:020000040800F2
:10000000B004002001010008090100080B010008EC
:100010000D0100080F010008110100080000000098
:1000200000000000000000000000000013010008B4
:100030001501000800000000170100081901000860
:100040001B0100081B0100081B0100081B01000820
:100050001B0100081B0100081B0100081B01000810
:100060001B0100081B0100081B0100081B01000800
:100070001B0100081B0100081B0100081B010008F0
:100080001B0100081B0100081B0100081B010008E0
:100090001B0100081B0100081B0100081B010008D0
:1000A0001B0100081B0100081B0100081B010008C0
:1000B0001B0100081B0100081B0100081B010008B0
:1000C0001B0100081B0100081B0100081B010008A0
:1000D0001B0100081B0100081B0100081B01000890
:1000E0001B0100081B0100081B010008DFF80CD0F1
:1000F00000F018F80048004791090008B0040020FB
:100100000648804706480047FEE7FEE7FEE7FEE7B1
:10011000FEE7FEE7FEE7FEE7FEE7FEE71908000858
:10012000ED000008064C074D06E0E06840F00103D2
:1001300094E8070098471034AC42F6D3FFF7DAFF93
:10014000CC0C0008EC0C00082DE9F047CA7802F04E
:100150000F0CD30644BF8B784CEA030C09880B06BE
:1001600025D082465AF8144B00F1100E00254FF0AE
:1001700001094FF00F08002706E000BF1E6001379D
:10018000082F05F1040511D009FA07F60E42F6D042
:1001900008FA05F324EA03030CFA05F41C43282AA1
:1001A0005346EBD0482AEAD17346E7E70460B1F53D
:1001B000807F38BFBDE8F087436800F1100E00F182
:1001C000140900254FF4807A4FF00F08002705E04E
:1001D00034600137082F05F1040512D00AFA07F43C
:1001E00004EA0106A642F4D108FA05F6B3430CFA74
:1001F00005F63343282A4E46EAD0482AE9D1764606
:10020000E6E74360BDE8F08710B586B0082001211D
:1002100000F0A6FA0120012100F0A2FA4FF400102C
:10022000012100F091FAC02045F20044C1F60340DC
:10023000C4F20004059004F5384005A9FFF784FFD7
:1002400041F68020C0F2060001900020CBF6FF703E
:1002500002901520C0F2004003904FF48040ADF8AA
:10026000100001A9204600F049F82046012100F0C5
:100270000FF806B010BD0000828A008B60F31742B1
:1002800002EA0100401AB0FA80F04009704700000D
:100290000288002918BF012122F0010211440180C7
:1002A000704700000288002918BF012122F48072E3
:1002B00042EA0121018070470288002918BF01210C
:1002C00022F4007242EA41210180704782B000228C
:1002D000019200920090080F01900198002821F0EF
:1002E0007F40009906BF000C18311431009100992D
:1002F0000968084018BF012002B0704770B586B089
:10030000044680880D4620F03F0601A800F034FA2C
:1003100003994DF68360C4F21B30A1FB000346EA4B
:100320009340A080208820F0010020802A6848F2B5
:10033000A060C0F2010082424FEA934008D8520008
:10034000B1FBF2F14FF6FC72114208BF042125E027
:10035000EB884BF6FF76B34204D102EB4202B1FBCD
:10036000F2F105E019235A43B1FBF2F141F4804167
:100370004FF49672504344F6D352C1F26202A0FB8E
:10038000020208466FF31F30B0FA80F040090843BC
:1003900048F20001CFF6FF7101439009013020843B
:1003A000A18320884FF6F53140F00100208020889D
:1003B0006A890840A988084310432080A8892989B0
:1003C0000843208106B070BD01F0FE01002A18BF6D
:1003D000012211440182704701827047F0B581B05B
:1003E00017460D46044600BF20464FF40031FFF784
:1003F0006DFF0028F8D1012620460121C0F2030636
:10040000FFF750FF20463146FFF736FF0028F9D0AE
:100410007800C1B220462A46FFF7D6FF012D0BD047
:1004200095B98227C0F2070720463946FFF724FF17
:100430000028F9D0012D07D1751C00BF20462946A0
:10044000FFF71AFF0028F9D001B0F0BDB0B504469F
:10045000FFF7C2FF8425C0F2070500BF20462946EA
:10046000FFF70AFF0028F9D0B0BD0000B0B540F298
:10047000A805C2F2000545F2004408202A78C4F21B
:100480000004E87120460021FFF7A8FFE979204623
:10049000FFF7DCFF20460121BDE8B040FFF70CBFAD
:1004A00070B540F2A8050229C2F2000503D36878AE
:1004B00040F0080068703220297100F04FFA45F2D0
:1004C00000442A78C4F20004EE7920460021FFF7A8
:1004D00085FFE87940EA06012046FFF7B7FF20468E
:1004E0000121FFF7E9FE4FF47A7000F037FA30206F
:1004F00000F0CCF841F2941000F016FA302000F031
:10050000C5F841F2941000F00FFA302000F0BEF868
:10051000962000F009FA202000F0B8F8687840F042
:100520002001040101F0F00000F0B0F8E0B200F0AA
:10053000ADF80420A870002000F0A8F8C02000F05A
:10054000A5F8002000F0A2F8102000F09FF840F677
:10055000B83000F0E9F90220E870002000F096F8C9
:10056000602000F093F8002000F090F8202000F0C8
:100570008DF840F6B830BDE8704000F0D5B9000005
:1005800080B5002000F082F8102000F07FF840F6DF
:10059000B830BDE8804000F0C7B9000070B50C4627
:1005A000302101EAC0014031C501084600F06EF873
:1005B000E8B200F06BF8013C082500BF14F8010F09
:1005C000060140F0010000F0F10000F05FF8701C3F
:1005D000C0B200F05BF8013DF0D170BD70B540F2E3
:1005E000A805C2F200050026144628706971AA7198
:1005F000EE71FFF709FE002021466E70BDE87040E5
:10060000FFF74EBF80B5102000F040F88020BDE815
:10061000804000F03BB8000080B5102000F036F8B4
:10062000C020BDE8804000F031B8000010B540F2B5
:10063000A802C2F2000212798A4238BF511EC9B222
:1006400007A212F82110084440F08001040101F0D3
:10065000F00000F01BF8E0B2BDE8104000F016B862
:1006600000000000400000001400000054000000E2
:1006700010B500F0F0010401481C00F007F8601C00
:10068000C0B2BDE8104000F001B8000070B540F203
:10069000A806C2F2000645F200443278C4F2000413
:1006A000054620460021FFF799FEF0792843C1B2A4
:1006B0002046FFF7CBFE20460121FFF7FDFD3278F3
:1006C00020460021FFF78AFEF079284340F004001D
:1006D000C1B22046FFF7BAFE20460121FFF7ECFD2C
:1006E000012000F021F932782046002105F0FB05B9
:1006F000FFF774FEF0792843C1B22046FFF7A6FE4B
:1007000020460121FFF7D8FD3220BDE8704000F0FF
:100710000BB9000070B504460078002808BF70BD12
:10072000002500BF060140F0010000F0F100FFF7D6
:10073000ADFF701CC0B2FFF7A9FF0135E8B2205C25
:100740000028EFD170BD0000002941F21C01C4F265
:1007500002010A680CBF22EA0000104308607047DB
:10076000002941F21801C4F202010A680CBF22EA12
:10077000000010430860704710B541F20404C4F251
:100780000204226802F00C02082A41F20022C0F2A0
:100790007A021CD12368D4F800C0C3F3834E5FEA09
:1007A000CC330EF1020C06D440F60012C0F23D022A
:1007B0000CFB02F20BE023689B0302D40CFB02F259
:1007C00005E040F60012C0F23D020CFB02F20260AE
:1007D000226840F66A43C2F30312C0F600039A5C33
:1007E0000168D14041602268C2F302229A5C21FA7A
:1007F00002F282602268C2F3C2229A5C40F666432B
:10080000D140C1602268C0F60003C2F381329A5C15
:10081000B1FBF2F1016110BD82B041F20400C4F2FB
:10082000020050F8041C002241F0010140F8041CB1
:100830000168CFF6FF021140016050F8041C4FF62A
:10084000FF72CFF6F662114040F8041C50F8041C09
:1008500021F4802140F8041C016821F4FE010160AC
:100860004FF41F01416000210191009150F8041CD8
:1008700041F4803140F8041C50F8041C01F40031AC
:100880000091019901310191009919B90199B1F5CE
:10089000A06FF1D150F8041C890354BF002101213D
:1008A00000910099012936D142F20001C4F20201FF
:1008B0000A6842F010020A600A6822F007020A6021
:1008C0000A6842F002020A60016801600168016082
:1008D000016841F480610160016821F47C110160CC
:1008E000016841F4E811016050F8041C41F0807186
:1008F00040F8041C50F8041C8901FBD5016821F064
:1009000003010160016841F002010160016801F02A
:100910000C010829FAD14EF60850CEF200004FF033
:100920000061016002B0704710B586B004466846A9
:10093000FFF722FF01984CF66B21C6F65F31A0FB52
:100940000101880D60430590059828B1059801388C
:10095000059005980028F9D106B010BD10B586B0F5
:1009600004466846FFF708FF019841F25971CDF23D
:10097000B711A0FB0101480B60430590059828B111
:1009800005980138059005980028F9D106B010BDEA
:100990002DE9F04389B0272010210222FFF71EFE27
:1009A000FFF764FDFFF7ECFD002000210026FFF7B4
:1009B0003DFE91A0FFF7AEFE00200121FFF736FEBD
:1009C00092A0FFF7A7FE4FF47A70FFF7C7FFFFF77B
:1009D000D7FD46F2634843F6381943F2345743F2E1
:1009E0003015C6F26568C6F26129C3F23677C3F2E4
:1009F00032356C46F1B20020FFF718FE2046CDF8E4
:100A00000C808DE8A002FFF785FE0136012EF1D0A3
:100A10004FF47A70FFF7A2FF00200121FFF706FED6
:100A20007FA0FFF777FE1424FFF7ECFD4FF4FA7078
:100A3000FFF794FF013CF7D14FF47A70FFF78EFF78
:100A400000200121FFF7F2FD7AA0FFF763FE1424D6
:100A5000FFF7E2FD4FF4FA70FFF780FF013CF7D19A
:100A60004FF47A70FFF77AFFFFF78AFD00266C4695
:100A7000F1B20020FFF7DAFD2046CDF80C808DE8BA
:100A8000A002FFF747FE0136012EF1D04FF47A7035
:100A9000FFF764FFFFF774FD40F20001C2F20001AE
:100AA00000200025FFF77AFD40F20801C2F20001A4
:100AB0000120FFF773FD40F21001C2F20001022095
:100AC000FFF76CFD40F21801C2F200010320FFF7AE
:100AD00065FD40F22001C2F200010420FFF75EFD37
:100AE00040F22801C2F200010520FFF757FD40F255
:100AF0003001C2F200010620FFF750FD40F238013C
:100B0000C2F200010720FFF749FD40F28004C2F263
:100B1000000400BF00200021FFF788FD2068FFF7D8
:100B2000F9FD0A200121FFF781FDE8B2FFF7A0FDE2
:100B30004FF47A70FFF712FF0135082DEAD140F229
:100B4000DC50FFF70BFFFFF71BFD40F27001C2F214
:100B5000000100200025FFF721FD40F24801C2F20C
:100B600000010120FFF71AFD40F26001C2F200010E
:100B70000220FFF713FD40F26801C2F200010320DA
:100B8000FFF70CFD40F25801C2F200010420FFF70C
:100B900005FD40F24001C2F200010520FFF7FEFC16
:100BA00040F25001C2F200010620FFF7F7FC40F2CC
:100BB0007801C2F200010720FFF7F0FC00200021BD
:100BC000FFF734FD04EB850040686E1CFFF7A2FDC3
:100BD0000A200121FFF72AFDE8B2FFF749FD4FF493
:100BE0007A70FFF7BBFE082E3546E7D1FFF7C8FC49
:100BF000002009B0BDE8F0832D20505255454241F8
:100C0000204C4344204932432D0000004C696E655E
:100C1000612032202D4142434445464748000000B0
:100C20004D4F564552204120495A5155494552444D
:100C3000000000004D4F564552204120444552458A
:100C4000434841200000000002E008C8121F08C10C
:100C5000002AFAD170477047002001E001C1121F3D
:100C6000002AFBD1704702040608000000000102C0
:100C70000304010203040607080963617261203A54
:100C80002020006E6F7461203A2020007061746F24
:100C9000203A2020006372757A203A202000726585
:100CA0006C6F6A203A2000626174657269613A0073
:100CB000636F6E74726F6C3A00636F72617A6F6EFD
:100CC0003A007265746F726E6F3A0000F00C0008A3
:100CD00000000020A8000000480C0008980D000843
:100CE000A800002008040000580C000800000000C4
:100CF0000E1B11111111111F0E1B111111111F1FAC
:100D00000E1B1111111F1F1F0E1B11111F1F1F1F63
:100D10000E1B111F1F1F1F1F0E1B1F1F1F1F1F1F1B
:100D20000E1F1F1F1F1F1F1F0E1F1B171D1B1F1F07
:100D3000000103161C080000000E1517110E00001C
:100D4000001B0E040E1B0000000C1D0F0F06000000
:100D5000000A0A0A00110E00000A1F1F0E040000FC
:100D60000203020E1E0C0000010105091F08040009
:100D7000A70C0008830C00089E0C00087A0C0008E1
:100D8000B90C00088C0C0008B00C0008950C000889
:080D9000C20C00080000000085
:04000005080000ED02
:00000001FF
