:020000040800F2
:10000000680A002001010008090100080B0100082E
:100010000D0100080F010008110100080000000098
:1000200000000000000000000000000013010008B4
:1000300015010008000000001701000891150008D4
:100040001B0100081B0100081B0100081B01000820
:100050001B0100081B0100081B0100081B01000810
:100060001B0100081B0100081B0100081B01000800
:100070001B0100081B0100081B0100081B010008F0
:100080001B0100081B0100081B0100081B010008E0
:100090001B0100081B0100081B0100081B010008D0
:1000A0001B0100081B0100081B0100081B010008C0
:1000B0001B0100081B0100081B0100081B010008B0
:1000C0001B0100081B0100081B0100081B010008A0
:1000D0001B0100081B0100081B0100081B01000890
:1000E0001B0100081B0100081B010008DFF80CD0F1
:1000F00000F0A4FA00480047711F0008680A0020B9
:100100000648804706480047FEE7FEE7FEE7FEE7B1
:10011000FEE7FEE7FEE7FEE7FEE7FEE7A1150008C3
:10012000ED000008202A04DB203A21FA02F0002129
:10013000704721FA02F3D040C2F1200291400843F7
:1001400019467047D2B201E000F8012B491EFBD2DC
:1001500070470022F6E710B513460A4604461946D2
:10016000FFF7F0FF204610BD2DE9F04D81EA0304B2
:1001700004F0004B21F0004514464FF0000A23F034
:10018000004150EA050220D054EA01021DD0C5F317
:100190000A570246C5F31303C1F31300C1F30A560D
:1001A00040F4801543F48013A7EB0608101BD646D5
:1001B00008F2FD3873EB050002D308F1010801E0F5
:1001C00092185B41B8F1000F03DA00200146BDE848
:1001D000F08D00204FF48011064684460EE0171B78
:1001E00073EB050705D3121B63EB050306434CEACB
:1001F000010C49084FEA300092185B4150EA0107B0
:10020000EDD152EA030012D082EA040083EA05012C
:10021000084305D0101BAB4106D20122002306E0A3
:1002200000224FF0004302E06FF0010253101AEB7E
:1002300006004CEB085110EB0A0041EB0B01BDE846
:10024000F04D00F054B80EB540F233410291002158
:10025000CDE900110A460B4600F058F803B000BD86
:1002600030B50B46014600202022012409E021FA86
:1002700002F59D4205D303FA02F5491B04FA02F583
:100280002844151EA2F10102F1DC30BD2DE9F05F1A
:100290000546002092469B468846064681464024F5
:1002A0001BE02846414647462246FFF73BFF5346A0
:1002B0005A46C01A914110D311461846224600F002
:1002C000CFF92D1A67EB01084F4622460120002185
:1002D00000F0C6F917EB00094E41201EA4F10104FD
:1002E000DFDC484631462A464346BDE8F09F10B55C
:1002F000141E73F1000408DA401C41F10001921849
:100300005B411A4301D120F0010010BD2DE9F04DF1
:1003100092469B4611B1B1FA81F202E0B0FA80F246
:100320002032904600F09CF904460F4640EA0A004D
:1003300041EA0B0153465A46084313D0114653EA8B
:10034000010019D0C8F140025046FFF7EBFE054608
:100350000E4650465946424600F082F9084305D001
:10036000012004E020463946BDE8F08D0020054319
:1003700046EAE0762C4337430A986305E40AA0EB8B
:1003800008000022FD0A44EA47540A3002D5002042
:100390000146E9E7010510196941DDE90845001941
:1003A0006941BDE8F04DA2E72DE9FE4F804681EAA4
:1003B0000300C00F0C46009021F0004123F00045DF
:1003C000B8EB0200A94105D24046214690461C46A2
:1003D0000B46024623F00040104347D0270DC7F3D9
:1003E0000A00C3F30A510290401A019040286BDAC8
:1003F000C3F3130040F4801B0098924620B1002301
:10040000D2EB030A63EB0B0B01985946C0F1400293
:10041000504600F025F906460D4650465946019AC9
:1004200000F02DF910EB08006141002487EA115219
:1004300084EAE7731A4340D0009A62B3019A012A12
:100440004FEA075215DC001B61EB02014FF000423E
:1004500002EA0752CDE90042001C41F58011324604
:100460002B46FFF753FF03B0BDE8F08F404621460F
:10047000F9E7001B61EB0201001C41F58013001835
:100480005B412018A2F5001747EB030140EAD57045
:10049000B6196D4111E06D084FEA360645EAC075A0
:1004A0004FEA0752001B61EB0201001C41F580116D
:1004B00049084FEA30000019514132462B4603B03B
:1004C000BDE8F04FFFF713BF009801224000002362
:1004D000D0EB020263EBE073009821464FEAE07430
:1004E000B8EB000061EB0401E9E783F000435BE750
:1004F00081F0004158E72DE9FE4F81EA030404F042
:10050000004421F0004100944FF0000B23F0004321
:1005100050EA01045ED052EA03045BD0C3F30A54EC
:10052000C1F30A552C44A4F2F3340194A0FB025405
:10053000C1F3130141F48011C3F3130343F4801397
:1005400001FB024400FB034E840A970A44EA8154EB
:1005500047EA8357A4FB076802958D0A05FB0785C8
:100560004FEA932C04FB0C542705029D4FEA0658D2
:1005700047EA1637B5EB08056EEB070C870E920EAF
:1005800047EA811742EA8312A7FB0201B6EB0B018F
:1005900064EB00042B0D43EA0C335E1844EB1C5053
:1005A000DA465146E7FB0201C5F313044FEA0B3369
:1005B00043EA14534FEA0432019C43EA0603A4F1D0
:1005C0000C040294009CCDE900B4FFF79FFE03B039
:1005D000BDE8F08F00200146F9E7C1F30A52C1F3EC
:1005E000130140F2FF3341F480119A4202DA0020F5
:1005F0000146704740F233439A42A2F2334202DC92
:100600005242FFF78FBD00F02BB8000030B5041E3A
:1006100071F1000404DB4FF00044404264EB01013F
:10062000141E73F1000405DB1C464FF000435242D8
:1006300063EB0403994208BF904230BD064C074D5E
:1006400006E0E06840F0010394E8070098471034A2
:10065000AC42F6D3FFF74EFD7C3700089C3700080C
:10066000202A04DB203A00FA02F100207047914072
:10067000C2F1200320FA03F3194390407047202A67
:1006800006DBCB17203A41FA02F043EAE07306E0BA
:1006900041FA02F3D040C2F12002914008431946CA
:1006A000704731B500F0E6F8044600F0E3F8009931
:1006B000001B8842F9D338BD2DE9F84FDFF890A12F
:1006C00000220AF1040B144601274FF00F090BF129
:1006D000040E00BF0B6807FA04F52B40AB4274D13F
:1006E000DFF870C14E68A6EB0C0866452BD00DDC18
:1006F000032E34D005DC36B3012E19D0022E2FD1B3
:100700001BE0112E16D0122E2AD119E0B8F5881F41
:1007100019D006DCB8F5803F15D0B8F5801F1FD181
:1007200011E0B8F5001F0ED0B8F5041F18D10AE08B
:10073000CA6815E0CA68121D12E0CA6808320FE0E4
:10074000CA680C320CE08A682AB1012A4FF008020C
:1007500003D0456104E0042202E0056100E00022CC
:10076000FF2B01D8064601E000F104064FEA84059C
:1007700001D9A5F12005D6F800C009FA05F82CEA40
:10078000080C02FA05F54CEA050CC6F800C04D68E5
:10079000ED0057D5304DAE6946F00106AE61AD694A
:1007A00024F0030605F0010500952C4D06EB050C21
:1007B000DCF80850A6074FEA167809FA08F6B543A0
:1007C000274EB04202D1002610E03BE0254EB04259
:1007D00001D101260AE0244EB04201D1022605E0F3
:1007E000224EB04201D1032600E0042606FA08F6A4
:1007F0002E43CCF808604D68DAF80060ED035546EA
:1008000001D51E4300E09E432E604D68DBF800607A
:10081000AD035D4601D51E4300E09E432E604D684A
:10082000DEF80060ED02754601D51E4300E09E43F0
:100830002E604D68AD020E4D2E6801D51E4300E0BE
:100840009E432E60641C102CFFF444AFBDE8F88F6B
:10085000000401400000111000100240000001409F
:1008600000080140000C014000100140001401404C
:100870000C04014001480068704700001800002087
:1008800070B5040004D094F83500002510B106E0DE
:10089000012070BD84F83450204600F099F92420DE
:1008A00084F835002068016821F00101016000F042
:1008B0003FFA014628482268B1FBF0F05060274A11
:1008C0006368934206D94FF4967358434FF47A7392
:1008D000B0FBF3F02368401C18626068904208D8AF
:1008E0004000B1FBF0F0C0F30B01042916D2042044
:1008F00014E0A26852B100EBC00202EB0010B1FBA1
:10090000F0F040F44040010507D007E000EB400064
:10091000B1FBF0F040F40040F5E701202168C86128
:10092000D4E90701084321680860D4E903100843AB
:1009300021688860D4E9050108432168C8602068FF
:10094000016841F001010160A563202084F83500B1
:1009500084F83650002070BD40420F00A086010090
:100960002DE9FF4F044690F8350081B099468B463B
:100970000125202873D142F21073012248492046F4
:1009800000F098FA00286AD194F83400012866D063
:10099000012084F834002068016821F400610160BE
:1009A000242084F835000026A663202720680168EB
:1009B00041F4807101604B4600224FF00111204646
:1009C00000F078FA00285CD121680BF0FE00086185
:1009D000FFF750FF2168804648694969C0F340002D
:1009E00094F83520C1F380214FF0A00A14E000BF35
:1009F000B9F1000F05D0FFF73DFFA0EB0801494515
:100A000001D984F835A0216848694969C0F34000DC
:100A100094F83520C1F38021084301D1A02AE7D101
:100A200084F8357020684169C943890718D4016882
:100A300041F400710160206841698069009042F2D0
:100A4000107301221649204600F034FAC8B984F820
:100A5000357084F83460002005B0BDE8F08F1DE0EB
:100A6000016841F4007101602068416921F48061EE
:100A7000416142F2107301220949204600F01AFA3E
:100A800008B10320E8E7284603996D1C88428DD3FE
:100A900084F8357084F834600120DDE70220DBE75C
:100AA000020010002DE9F843044690F83500DDF807
:100AB00020801D461746894620287BD1002F7AD0FA
:100AC000002D7ED042F2107301224049204600F0F2
:100AD000F1F9002877D194F83400012873D001206F
:100AE00084F834002068016821F40061016021204D
:100AF00084F83500102084F836000026A6634246AC
:100B00004946204600F09CF928B1A06B84F8346077
:100B1000042856D00BE02068416980690090414666
:100B2000204600F050FA28B1A06B042844D00320DE
:100B3000BDE8F883216817F8010B086120686D1E75
:100B4000ADB24169C943490705D435B117F8011B56
:100B500001616D1EADB2002DE1D14546FFF78AFE61
:100B60008046202716E0204600F055F90028DBD10A
:100B7000681C0FD02DB1FFF77DFEA0EB0800A84246
:100B800008D9A06B40F02001A16384F8357084F887
:100B90003460C9E720684069C0434007E3D4206857
:100BA000016841F40071016084F8357084F83460A4
:100BB0000020BDE707E004E02068016841F400710F
:100BC00001600120B4E70220B2E70000020010003B
:100BD00000B500680C4985B0884212D1C020009051
:100BE000122001900320039069460848FFF764FD36
:100BF0000748C16941F40011C161C06900F40010E7
:100C0000049005B000BD000000540040000C0140FD
:100C10000010024002480168491C01607047000052
:100C200018000020074810B5016841F0100101606C
:100C3000032000F051F8002000F006F800F016F84C
:100C4000002010BD0020024010B5044600F056F808
:100C50004FF47A71B0FBF1F000F0C5F800222146A4
:100C6000501E00F019F8002010BD0000094808B51A
:100C7000816941F001018161806900F0010000900B
:100C8000032000F029F80022BDE808401146501E5C
:100C900000F002B800100240F0B40E4B1B680C4686
:100CA000C3F30223C3F10705042D00D90425191D40
:100CB000072901D2002300E0DB1E012606FA05F118
:100CC000491E214099409E40761E16403143F0BC9B
:100CD00000F0D8B90CED00E0064900F00702086802
:100CE0004FF6FF03184040EA0220034A1043086011
:100CF000704700000CED00E00000FA0500B500F0C0
:100D00002DF808494968F02292FAA2F201F0F001A8
:100D1000B2FA82F2D140044A515CC84003490860EB
:100D200000BD0000001002406C3700081C000020CD
:100D300000B5FFF7E3FF074949684FF4E06292FA14
:100D4000A2F201F4E061B2FA82F2D140024A515CAF
:100D5000C84000BD001002406C37000810B519A350
:100D600085B00FCB8DE80F001AA01B4B00680490D4
:100D70005A681A4802F00C0104291DD008291BD119
:100D80004FF4701494FAA4F402F47011B4FA84F4D9
:100D9000E140D2031DF8011010D55A684FF400331A
:100DA00093FAA3F302F40032B3FA83F3DA4004AB0C
:100DB0009A5CB0FBF2F0484305B010BD08484843C8
:100DC000FAE7000002030405060708090A0B0C0DE8
:100DD0000E0F1010010200000010024000127A00F5
:100DE00000093D00704710B5401EB0F1807F01D36F
:100DF000012010BD4FF0E02460610F21601700F06A
:100E000041F90020A06107202061002010BD10B52D
:100E1000FFF7E8FF10BD01684A69D24352050DD4BF
:100E20004A6922F480624A6104218163202180F8AA
:100E30003510002180F834100120704700207047E1
:100E400070B5044600680D461646016841F480718D
:100E50000160134600224FF00111204600F02AF8ED
:100E600098B92069B0F5804F11D00620216800EABA
:100E7000D51040F0F000086132460D49204600F0E0
:100E80005EF838B1A06B042810D0032070BD05F0C7
:100E9000FE0000E0E8B22168086105493246891F7A
:100EA000204600F04CF80028ECD170BD012070BD48
:100EB000080001002DE9F05F1E4690460C460546ED
:100EC000FFF7D8FC81464FF0000A4FF0200BC4F327
:100ED0000747B8F1000F09D024E0701C06D0D6B146
:100EE000FFF7C8FCA0EB0900B04214D82868012F16
:100EF00006D0806924EA00000004000C1BD0ECE757
:100F00004069F7E7701C0DD02EB1FFF7B3FCA0EBE2
:100F10000900B04206D985F835B085F834A0032021
:100F2000BDE8F09F2868012F07D0806924EA0000FF
:100F30000004000CE6D00020F2E74069F6E72DE956
:100F4000F04791460D460446FFF794FC8246002781
:100F50004FF02008C5F3074629E020684069C043E8
:100F6000400512D42068016841F4007101602068D6
:100F7000416921F4806141610420A06384F83580D7
:100F800084F834700120BDE8F087B9F1FF3F0ED03E
:100F9000B9F1000F05D0FFF76DFCA0EB0A01494540
:100FA00005D984F8358084F834700320EBE7206895
:100FB000012E06D0806925EA00000004000CE2D072
:100FC000CBE74069F7E770B50D460446FFF752FCE2
:100FD000064619E02046FFF71EFF08B1012070BD4C
:100FE000681C11D025B1FFF745FC801BA8420BD926
:100FF00054F8380F40F0200044F8040920206070B5
:1010000000202070032070BD20684069C0430006A6
:10101000E0D4002070BD00000D4808B5816941F0A2
:1010200020018161816901F020010091816941F015
:1010300004018161816901F004010091816941F03D
:1010400008018161806900F00800009008BD00007F
:1010500000100240094808494FF4804201600849E5
:10106000416000218160C0E9031241618161C16179
:101070000162FFF705BC0000005400402C00002076
:10108000801A06000907090E002806DA00F00F0092
:1010900000F1E02080F8141D704700F1E02080F896
:1010A000001470472DE9FF4F0746C2F101001446B6
:1010B0000FFA80F8C2EBC43040000FFA80FA82B019
:1010C0000E46081981B24FF001090025B8B2059A01
:1010D00000F0F6F8301B81B2B8B2059A00F0F0F8D3
:1010E0003819B1B280B2059A00F0EAF8B1B2381BF3
:1010F00057E000BFB8F1000F09DB0AF102000FFA58
:1011000080FA641E08EB0A0024B20FFA80F809F195
:1011100002000FFA80F96D1C08EB09002DB20FFADE
:1011200080F8781906EB040B01901FFA8BF180B25E
:10113000059A00F0C5F8781B00901FFA8BF180B279
:10114000059A00F0BDF80198A6EB040B1FFA8BF18D
:1011500080B2059A00F0B4F800981FFA8BF180B2C3
:10116000059A00F0ADF8381906EB050B01901FFA4F
:101170008BF180B2059A00F0A3F8381B00901FFA9B
:101180008BF180B2059A00F09BF80198A6EB050B55
:101190001FFA8BF180B2059A00F092F800981FFABE
:1011A0008BF180B2059A00F08BF8A542A2DB06B065
:1011B000BDE8F08F2DE9FC4F1D4614460E4607464C
:1011C000802800D37F27802C00D37F24402E00D39B
:1011D0003F26402D00D33F25A74201D2E01B00E06F
:1011E000381B0FFA80F9AE4201D2A81B00E0701B39
:1011F0000FFA80FA4FF0FF30A74201D2012100E040
:1012000001460191AE4200D2012083464846D145B5
:1012100001DCCAF1000000EBD07040F34F08B9F1D7
:10122000000F23D0BAF1000F35D0C9F100000090B3
:10123000314638460B9A00F043F8A74201D1AE423E
:1012400027D000994046884506DDA8EB0A010FFA31
:1012500081F8019939448FB25045E9DA08EB090069
:101260000FFA80F806EB0B0086B2E1E7B54202D236
:101270002846354686B2BC4200D2A7B234B206E058
:10128000A1B238460B9A00F01BF8641C24B2AC42A1
:10129000F6DDBDE8FC8FB54200D2AEB2BC4202D250
:1012A00020463C4687B23DB206E0A8B231460B9AD2
:1012B00000F006F86D1C2DB2A542F6DDE9E700004E
:1012C00070B5802813D2402911D20B4B012401F0B4
:1012D00007051E79AC40094BC90800EBC1100EB1DF
:1012E00032B101E0012A03D0195CA143195470BD49
:1012F000195C2143FAE7000010000020680000207C
:1013000028B1FF224FF480610248FEF71BBF002284
:10131000F8E7000068000020014A10805180704703
:101320001000002010B500F083FF44F62063012276
:1013300078215148FFF714FB08B1002010BD40F69A
:10134000C210401EFDD1AE220021782000F076FFB1
:1013500020220021782000F071FF10220021782047
:1013600000F06CFFB0220021782000F067FFC82257
:101370000021782000F062FF00221146782000F062
:101380005DFF10220021782000F058FF402200214C
:10139000782000F053FF81220021782000F04EFFDA
:1013A000FF220021782000F049FFA12200217820AF
:1013B00000F044FFA6220021782000F03FFFA82281
:1013C0000021782000F03AFF3F220021782000F031
:1013D00035FFA4220021782000F030FFD322002125
:1013E000782000F02BFF00221146782000F026FF25
:1013F000D5220021782000F021FFF0220021782062
:1014000000F01CFFD9220021782000F017FF2222D3
:101410000021782000F012FFDA220021782000F06D
:101420000DFF12220021782000F008FFDB220021AE
:10143000782000F003FF20220021782000F0FEFE3B
:101440008D220021782000F0F9FE1422002178205E
:1014500000F0F4FEAF220021782000F0EFFE002023
:10146000FFF74EFF00F070F8044800210180418032
:1014700001214171084610BD2C0000201000002001
:101480002DE9F047814625480D46924601882A7885
:101490001144802905D28046408869780844402854
:1014A00002D30020BDE8F08700262AE0A9F1200140
:1014B00001FB00606A68002432F810701DE000BF74
:1014C00007FA04F0000409D5B8F80210B8F80000D3
:1014D0003144204489B280B252460BE0BAF1000F89
:1014E0001AD00022B8F80210B8F8000031442044A5
:1014F00089B280B2FFF7E4FE641C2878A042DFD8EE
:10150000761C6878B042D1D8B8F800102A784846DE
:101510001144A8F80010C5E70122E3E710000020FD
:1015200070B515460E46044609E02A463146FFF7D7
:10153000A7FF2178884201D0C8B270BD641C207812
:101540000028F2D1C0B270BD70B5104D002400BFAC
:1015500004F1B000C2B20021782000F06FFE00223A
:101560001146782000F06AFE10220021782000F059
:1015700065FE05EBC41280234021782000F06EFE4A
:10158000641CE4B2082CE3D370BD000068000020A6
:1015900010B5FFF73FFBBDE81040FFF738BC000077
:1015A0000D48016841F00101016041680B4A11409A
:1015B000416001680A4A11400160016821F48021FC
:1015C0000160416821F4FE0141604FF41F01816018
:1015D0000449C00308607047001002400000FFF893
:1015E000FFFFF6FE08ED00E00FB4054B10B503A9B0
:1015F000044A029800F0EEF810BC5DF814FB0000FD
:101600000D1F0008200000200FB4084B10B504A9DE
:1016100002AA039800F0DEF8044602A9002000F0B8
:1016200070FC204610BC5DF814FB0000031F00088E
:1016300002E008C8121F08C1002AFAD1704770479B
:10164000002001E001C1121F002AFBD170470000F9
:101650002DE9FF5F82B00021DDE90430020DDDF8E5
:1016600040B0034318D044F61050A2F2FF32424378
:101670001514119801281FD0A5EB0B00401C5FEA40
:10168000000A4FF000064E4FDFF83891B046504642
:1016900015D5CAF1000413E0119801244AA30128CA
:1016A00001D16FEA0B010298119AC0E90031C0E93B
:1016B000024206B0BDE8F09FCBF10000DFE7044630
:1016C0000021404A491842EB0450CDE9001012E0D5
:1016D000E00707D032463B4640464946FEF70BFF3F
:1016E0008046894632463B4610461946FEF703FFC0
:1016F00006460F466410002CEAD1DDE90401DDE95D
:101700000023BAF1000F06DAFEF7F5FE42464B461B
:10171000FEF7F1FE05E0FEF727FD42464B46FEF7D9
:1017200023FD04460E460022284BFEF76FFF03D828
:101730004FF0FF30014607E00022254B204631469E
:10174000FEF732FEFEF749FF102409E0002C0ADB09
:101750000A220023FEF79AFD039B30321A55641EBD
:1017600050EA0102F2D1641C039AC4F1110314443B
:10177000119A012A03D0012208430DD10AE008433F
:1017800004D000204FF0110B119072E7A3EB0B0572
:101790006D1E0DE05B4504DD4FF0000205F1010513
:1017A00004E003DA4FF00002A5F10105002AECD0B5
:1017B00002981199C0E90231C0E9004579E70000BB
:1017C000000014400000F03F300000000000F04333
:1017D0000000E03F2DE9FF4F95B09B468946064645
:1017E00000250FE2252877D100242746F84A012159
:1017F000059400E0044316F8013F203B01FA03F092
:101800001042F7D130782A2811D06FF02F033078AA
:10181000A0F13002092A16D8059A44F0020402EB1E
:10182000820203EB42021044761C0590EFE759F860
:10183000042B0592002A03DA504244F40054059028
:1018400044F00204761C30782E2816D116F8010FC9
:1018500044F004042A280DD06FF02F023078A0F154
:101860003003092B09D807EB870302EB4303C718A2
:10187000761CF3E759F8047B761C30786C280FD07F
:1018800006DC4C2817D068280DD06A2814D104E053
:10189000742810D07A280FD10DE044F400140AE027
:1018A00044F4801401E044F440147278824202D17E
:1018B00004F58014761C761C307866280BD013DC77
:1018C000582877D009DC002875D04528F6D046285E
:1018D000F4D047281AD19DE118E0632835D0642858
:1018E00079D0652812D195E1702873D008DC67287B
:1018F000F1D069286FD06E280DD06F2806D1B5E0E1
:1019000073282CD0752875D0782874D05A4617992A
:1019100090476D1C75E1C4F30250022809D00328DA
:101920000DD0D9F8001004280DD00D6009F104097C
:1019300067E1D9F80010EA17C1E90052F6E7D9F8D3
:1019400000100D80F2E70D70F0E719F8041B8DF818
:10195000001000208DF80100EA46012003E059F84C
:1019600004AB4FF0FF3061074FF0000102D40DE0EF
:1019700008F101018846B9420FDA8045F8DB1AF810
:1019800008100029F4D108E008F1010188468142DD
:10199000FADB1AF808100029F6D105985B46A0EB8F
:1019A000080721463846179A00F094FA284400EBBD
:1019B000080507E04DE029E10DE01AF8010B5A4651
:1019C00017999047B8F10108F7D25B46214638468F
:1019D000179A13E142E00A220092C4F302524FF038
:1019E000000A022A08D059F804CB032A4FEAEC7106
:1019F0000AD00DE029E02AE009F1070121F00702F1
:101A0000F2E802C1914609E00FFA8CFC4FEAEC7152
:101A1000042A03D14FFA8CFC4FEAEC71002907DA53
:101A20000A460021DCF1000C61EB02012D2202E0EC
:101A3000220504D52B228DF80420012203E0E207C1
:101A400001D02022F7E7904659E00A2102E0102257
:101A50000DE010214FF0000A00910BE010224FF032
:101A6000000A44F004040827009203E008224FF023
:101A7000000A0092C4F30252022A05D059F804CB9E
:101A80000021032A08D009E009F1070121F007022B
:101A9000F2E802C1914605E01FFA8CFC042A01D14C
:101AA0000CF0FF0C4FF00008220728D5702806D054
:101AB000009B83F0100353EA0A0305D00EE0402296
:101AC0008DF80420012208E05CEA010206D03022F1
:101AD0008DF804208DF8050002229046009B83F0CB
:101AE000080353EA0A030AD15CEA010201D1620742
:101AF00005D530228DF804204FF001087F1E5828AC
:101B000004D034A003900EA802900DE036A0F9E7AF
:101B100053466046009AFEF7B9FB84460398825C00
:101B20000298401E029002705CEA0100F0D1029817
:101B300006A9081A00F1200A600702D524F48034AF
:101B400000E00127574502DDA7EB0A0000E0002076
:101B500000EB0A01009005984144401A0590E0030B
:101B600006D45B462146179A059800F0B3F9054460
:101B7000002706E001A85A46C05D179990476D1CE2
:101B80007F1C4745F6DBE0030CD55B462146179AE0
:101B9000059800F09FF9054404E030205A46179953
:101BA00090476D1C0099481E00900029F5DC08E064
:101BB000029802995A460078491C02911799904759
:101BC0006D1CBAF10001AAF1010AF1DC65E1000027
:101BD0000928010030313233343536373839616203
:101BE00063646566000000003031323334353637C7
:101BF00038394142434445460000000000F058F99E
:101C00000544761C307800287FF4ECAD19B02846E6
:101C1000BDE8F08F620700D4062709F1070222F021
:101C2000070CFCE80223E14603F000485FEA080CD9
:101C300002D00FF2702C0DE05FEA045C02D50FF2C7
:101C4000682C07E05FEAC47C02D00FF2602C01E050
:101C5000AFF2700C4FF0FF3823F00043CDF850C0C6
:101C600065280CD006DC452809D046281DD0472819
:101C70003DD13DE0662818D067287ED138E00021AC
:101C8000112F01DB112000E0781CCDE9000106A92D
:101C90000EA8FFF7DDFCDDE90F010E9A039100218C
:101CA000009207F1010A04914DE04FF000400097C7
:101CB000CDE9011006A90EA8FFF7CAFCDDE90F0265
:101CC00003920E9B11990022DDF80CA00093049260
:101CD00011B9791C00EB010AB7EB0A0004D4C0F17A
:101CE000FF3007F1010A0490AAEB0700019044E0DD
:101CF000012F00DA01270021112F01DD112000E062
:101D00003846CDE9000106A90EA8FFF7A1FCDDE9E0
:101D10000F010E9A0391002104910092BA46210707
:101D20000CD40399514500DA8A46BAF1010F05DD5A
:101D3000009AAAF10101515C302908D0B84202DAB8
:101D400010F1040F06DA0121CDE9011015E0AAF126
:101D50000101E9E7002805DC049901440491AAEB9C
:101D6000000102E0411C514500DD8A460499401AF9
:101D7000401C01904FF000400290200704D40198CD
:101D8000504501DBCDF8048000208DF84F0002980B
:101D90000DF14F07B0F1004F25D02B200E90029887
:101DA0004FF0020800280CDA404202902D200E90DD
:101DB00007E00A210298FEF753FA3031029007F843
:101DC000011DB8F10001A8F10108F2DC0298002819
:101DD000EFD1791E0E980870307800F0200040F0A6
:101DE000450007F8020D12A8C01B00F1070814985F
:101DF000007800B1012000EB0A01019801EBE071CD
:101E000005984144401A401E0590E00306D45B4605
:101E10002146179A059800F05DF80544149800785B
:101E200018B15A46179990476D1CE00324D55B46BC
:101E30002146179A059800F04DF805441CE00498D7
:101E4000002807DBDDE90301884203DD0098405CE0
:101E5000179901E0179930205A469047049805F1E8
:101E60000105401C04900198401E019004D12E20D1
:101E70005A46179990476D1CBAF10001AAF1010A60
:101E8000DDDC05E017F8010B5A46179990476D1CE9
:101E9000B8F10001A8F10108F4DC5B462146179A6D
:101EA0000598ABE62D0000002B000000200000008C
:101EB0002DE9F041044600251E461746880404D447
:101EC00005E039462020B0476D1C641EF9D5284630
:101ED000BDE8F0812DE9F041044600251E469046FC
:101EE000C80301D5302700E02027880404D505E089
:101EF00041463846B0476D1C641EF9D52846BDE8FA
:101F0000F0810A68531C0B601070704738B50446A6
:101F10008DF8000069460320ABBE204638BD0000A6
:101F200010B5002821D0114B0022001F196803E0D2
:101F3000814203D80A4649680029F9D152B1136891
:101F4000841A9C4204D1006818441060104602E0D4
:101F5000506000E0186039B102680B1A934203D157
:101F60000B681A4402604968416010BD24000020DB
:101F70001FB5FEF757FEFFF74FF8FFF76BF8FFF7B7
:101F8000D1F9014677A0FFF72FFB4FF4FA70FEF767
:101F900088FB1B210A20FFF7BFF90122754976A0B3
:101FA000FFF7BEFA34210A20FFF7B6F90122714982
:101FB00074A0FFF7B5FAFFF7C7FA4FF47A773846FF
:101FC000FEF76FFB0020FFF79BF940240026012558
:101FD000B3B2A1B2802200200095FFF7EBF8FFF723
:101FE000B3FAA41EB61C002CF2DCB8463C463846B8
:101FF000FEF757FB0120FFF783F9FFF7A5FA00234F
:10200000192220214020FFF74DF8FFF79DFA002309
:10201000192220218020FFF745F8FFF795FA0023C9
:10202000192220211846FFF73DF8FFF78DFA2021ED
:10203000002319220846FFF735F8FFF785FA002339
:10204000192220216020FFF72DF8FFF77DFA2046A6
:10205000FEF727FB0020FFF753F9FFF775FA00277B
:102060006FF06304C8260197029722464AA101A88F
:102070000397FFF7C9FA1B213220FFF74DF9012220
:102080003C4901A8FFF74CFAA00100F5C85090FBAD
:10209000F6F083B2E00100F5485090FBF6F082B212
:1020A0000A2140200095FFF785F8FFF74DFA002040
:1020B000FFF726F9641C642CD5DD1B213220FFF7C5
:1020C0002BF936A101A8FFF79FFA0122294901A89F
:1020D000FFF726FA0A210846FFF71EF901223049C8
:1020E00030A0FFF71DFA1E210A20FFF715F9012283
:1020F0002B492EA0FFF714FAFFF726FA0020FFF76E
:10210000FFF84046FEF7CDFA00242B4EFEF7B2FB57
:1021100005461B211E20FFF7FFF8281BFEF793F84A
:1021200002460B4600203146FEF71EF802460B46DB
:1021300022A101A8FFF768FA01220E4901A8FFF7C2
:10214000EFF934210720FFF7E7F8012209490DA034
:10215000FFF7E6F9FFF7F8F90020FFF7D1F82C4672
:10216000D4E700004F4C454420696E69743A20253D
:10217000640A0000000000204F4C454420696E694D
:10218000746564004C757473616920416C65786195
:102190006E6465720000000025640000454E440036
:1021A0000800002048454C4C4F000000574F524C4F
:1021B000442021210000000000408F406670733AE7
:1021C00020256600F0B50B30154D20F007010024E6
:1021D000144A0FE003688B420BD38B4205D95E1A79
:1021E00043184768C3E9006700E04368136002C012
:1021F00004E0021D10680028ECD12046002802D11E
:10220000286808B10020F0BD064A07481060074A58
:10221000121A22F00702C0E9002401202860D7E743
:1022200028000020240000206C0400206808002002
:102230000148401EFDD1704790D003001CB5022319
:102240008DF804100A2100918DF80520014601AA9D
:102250000148FEF727FC1CBD2C0000202DE9F843A7
:1022600080461C4616460F46581CFFF7ABFF054636
:102270000770012005E0311811F8011C2954401C99
:10228000C0B2A042F7D90A20009023462A46414610
:102290000348FEF707FC2846BDE8F843FFF740BEB9
:1022A0002C000020000000000000000000000000E2
:1022B00000000000000000000010001000100010DE
:1022C000001000100000001000000000002800288E
:1022D00000280000000000000000000000000000D6
:1022E00000240024007C00240048007C00480048B2
:1022F0000000000000380054005000380014005462
:102300000054003800100000002000540058003035
:1023100000280054001400080000000000100028ED
:10232000002800100034004800480034000000007D
:10233000001000100010000000000000000000006D
:1023400000000000000800100020002000200020F5
:1023500000200020001000080020001000080008E5
:1023600000080008000800080010002000100038D5
:102370000010002800000000000000000000000025
:102380000000000000100010007C00100010000091
:10239000000000000000000000000000000000003D
:1023A00000000010001000100000000000000000FD
:1023B00000000038000000000000000000000000E5
:1023C00000000000000000000000001000000000FD
:1023D000000800080010001000100010002000206D
:1023E0000000000000380044004400540044004451
:1023F00000440038000000000010003000500010C1
:102400000010001000100010000000000038004410
:1024100000440004000800100020007C00000000C0
:102420000038004400040018000400040044003890
:102430000000000000080018002800280048007C68
:102440000008000800000000007C00400040007808
:10245000000400040044003800000000003800447C
:1024600000400078004400440044003800000000B0
:10247000007C000400080010001000200020002054
:1024800000000000003800440044003800440044CC
:1024900000440038000000000038004400440044BC
:1024A000003C000400440038000000000000000070
:1024B00000100000000000000000001000000000FC
:1024C00000000000000000100000000000000010EC
:1024D0000010001000000000000C00300040003030
:1024E000000C000000000000000000000000007C64
:1024F0000000007C00000000000000000000000060
:1025000000600018000400180060000000000000D7
:102510000038004400040008001000100000001003
:102520000000000000380044004C0054005C0040F3
:10253000004000380000000000100028002800289B
:102540000028007C004400440000000000780044A3
:10255000004400780044004400440078000000007B
:102560000038004400400040004000400044003873
:102570000000000000700048004400440044004493
:102580000048007000000000007C00400040007C1B
:10259000004000400040007C00000000007C004043
:1025A0000040007800400040004000400000000073
:1025B0000038004400400040005C00440044003803
:1025C00000000000004400440044007C004400443B
:1025D000004400440000000000380010001000100B
:1025E000001000100010003800000000000400047B
:1025F000000400040004000400440038000000004F
:10260000004400480050006000500048004800446A
:10261000000000000040004000400040004000403A
:102620000040007C000000000044006C006C00547E
:1026300000440044004400440000000000440064E2
:10264000006400540054004C004C004400000000A2
:102650000038004400440044004400440044003872
:10266000000000000078004400440044007800406E
:1026700000400040000000000038004400440044D6
:102680000044004400540038000400000078004476
:102690000044004400780048004800440000000066
:1026A00000380044004000300008000400440038B6
:1026B00000000000007C001000100010001000104E
:1026C00000100010000000000044004400440044DA
:1026D000004400440044003800000000004400446E
:1026E000004400280028002800100010000000000E
:1026F00000440044005400540054006C002800289A
:1027000000000000004400280028001000100028ED
:102710000028004400000000004400440028002875
:10272000001000100010001000000000007C0004E9
:1027300000080010001000200040007C0000000095
:102740000018001000100010001000100010001001
:1027500000100018002000200010001000100010D1
:1027600000080008000000000030001000100010F9
:1027700000100010001000100010003000100028A1
:1027800000280044000000000000000000000000DD
:102790000000000000000000000000000000000039
:1027A000000000FE002000100000000000000000FB
:1027B000000000000000000000000000003800449D
:1027C000003C0044004C0034000000000040004089
:1027D00000580064004400440064005800000000F9
:1027E0000000000000380044004000400044003871
:1027F00000000000000400040034004C00440044C9
:10280000004C0034000000000000000000380044CC
:10281000007C00400044003800000000000C001064
:10282000007C0010001000100010001000000000DC
:10283000000000000034004C00440044004C003410
:102840000004007800400040005800640044004448
:102850000044004400000000001000000070001060
:102860000010001000100010000000000010000018
:10287000007000100010001000100010001000E0A8
:1028800000400040004800500060005000480044F4
:102890000000000000700010001000100010001078
:1028A000001000100000000000000000007800543C
:1028B00000540054005400540000000000000000C8
:1028C000005800640044004400440044000000003C
:1028D0000000000000380044004400440044003878
:1028E00000000000000000000058006400440044A4
:1028F0000064005800400040000000000034004C1C
:1029000000440044004C00340004000400000000B7
:1029100000580064004000400040004000000000FB
:102920000000000000380044003000080044003877
:10293000000000000020002000780020002000207F
:1029400000200018000000000000000000440044C7
:1029500000440044004C003400000000000000006F
:102960000044004400280028002800100000000057
:1029700000000000005400540054006C002800289F
:1029800000000000000000000044002800100010BB
:102990000028004400000000000000000044004443
:1029A0000028002800100010001000600000000047
:1029B000007C0008001000200040007C00000000A7
:1029C000001800100010001000200020001000105F
:1029D000001000180010001000100010001000106F
:1029E0000010001000100010003000100010001047
:1029F0000008000800100010001000300000000067
:102A000000000074004C0000000000000000000006
:102A100000000000000000000000000000000000B6
:102A200000000000000000000000000000000000A6
:102A3000000000000000000C000C000C000C000C5A
:102A4000000C000C000C000C000C000C0000000C32
:102A5000000C0000000000000000001B001B001B19
:102A6000001B001B00000000000000000000000030
:102A700000000000000000000000000000008019BD
:102A8000801980198019C07FC07F80190033C07FF2
:102A9000C07F00330033003300330000000000002B
:102AA0000000001E003F807580650074003C001E21
:102AB00000078005806580658075003F001E00046A
:102AC000000400000000007000D840D8C0D880D9B1
:102AD00000730006000C801BC036C066C046C006EE
:102AE00080030000000000000000001E003F0033D3
:102AF00000330033001E000CC03CC0668063806160
:102B00008063C03E801C0000000000000000000C3C
:102B1000000C000C000C000C000000000000000085
:102B200000000000000000000000000000000000A5
:102B3000800000010003000600060004000C000CE9
:102B4000000C000C000C000C000400060006000342
:102B500000018000002000100018000C000C000490
:102B60000006000600060006000600060004000C31
:102B7000000C0018001000200000000C002D003F89
:102B8000001E0033000000000000000000000000F4
:102B90000000000000000000000000000000000035
:102BA0000000000C000C000C000CC0FFC0FF000C6B
:102BB000000C000C000C00000000000000000000F1
:102BC0000000000000000000000000000000000005
:102BD00000000000000000000000000C000C0004D9
:102BE00000040008000000000000000000000000D9
:102BF000000000000000001E001E00000000000099
:102C000000000000000000000000000000000000C4
:102C100000000000000000000000000000000000B4
:102C20000000000C000C0000000000000000000389
:102C3000000300030006000600060006000C000C5E
:102C4000000C000C00180018001800000000000024
:102C50000000001E003F0033806180618061806D54
:102C6000806D8061806180610033003F001E000044
:102C70000000000000000006000E001E00360026C6
:102C80000006000600060006000600060006000614
:102C900000060000000000000000001E003F8073DE
:102CA00080618061800100030006000C0018003084
:102CB0000060807F807F0000000000000000001C9A
:102CC000003E006300630003000E000E000380015D
:102CD000800180618073003F001E00000000000042
:102CE00000000006000E000E001E001E001600363A
:102CF00000360066807F807F000600060006000028
:102D0000000000000000007F007F006000600060A5
:102D1000006E007F80638001800180618073003FCE
:102D2000001E0000000000000000001E003F803375
:102D300080610060006E007F8073806180618061CF
:102D40008033003F001E0000000000000000807F74
:102D5000807F80010003000300060006000C000CC9
:102D6000000C000800180018001800000000000007
:102D70000000001E003F8063806180610021001E12
:102D8000003F8061806180618061003F001E000023
:102D9000000000000000001E003F007380618061A1
:102DA00080618073803F801D800180610073003FDF
:102DB000001E0000000000000000000000000000F5
:102DC0000000000C000C00000000000000000000EB
:102DD0000000000C000C00000000000000000000DB
:102DE0000000000000000000000C000C00000000CB
:102DF000000000000000000C000C000400040008AB
:102E0000000000000000000080008003000E003879
:102E100000600038000E8003800000000000000009
:102E20000000000000000000000000000000807FA3
:102E3000807F00000000807F807F00000000000095
:102E40000000000000000000000000000000000082
:102E500000400070001C000780010007001C00708B
:102E60000040000000000000000000000000001F03
:102E7000803FC071C060C000C00180030007000E29
:102E8000000C000C0000000C000C00000000000012
:102E90000000001E003F803180718063806F806D74
:102EA000806D806F806700600032003E001C000073
:102EB000000000000000000E000E001B001B001BA5
:102EC000001B80318031803F803F8031C060C06016
:102ED000C0600000000000000000007C007E006375
:102EE000006300630063007E007E00638061806198
:102EF0008063007F007E0000000000000000001ED4
:102F0000003F803180610060006000600060006010
:102F1000006080618031003F001E00000000000062
:102F20000000007C007F00638063806180618061BD
:102F300080618061806100630063007E007C00002E
:102F4000000000000000807F807F00600060006063
:102F50000060007F007F0060006000600060807F94
:102F6000807F0000000000000000807F807F006004
:102F7000006000600060007F007F00600060006013
:102F80000060006000600000000000000000001E03
:102F9000003F80318061006000600060806380637A
:102FA000806180618031803F001E000000000000D1
:102FB0000000806180618061806180618061807FCC
:102FC000807F8061806180618061806180610000BC
:102FD000000000000000003F003F000C000C000C4F
:102FE000000C000C000C000C000C000C000C003F4E
:102FF000003F00000000000000008001800180010F
:1030000080018001800180018001800180618061F8
:103010008073003F001E0000000000000000C06040
:103020008061006300660066006C0078007C0066CA
:103030000066006380618061C060000000000000E5
:1030400000000060006000600060006000600060E0
:1030500000600060006000600060807F807F000092
:10306000000000000000C071C071C07BC07AC06A5F
:10307000C06AC06EC064C060C060C060C060C06034
:10308000C060000000000000000080718071807945
:1030900080798079806D806D806D806580678067C4
:1030A0008067806380630000000000000000001E55
:1030B000003F003380618061806180618061806158
:1030C000806180610033003F001E000000000000AE
:1030D0000000007E007F806380618061806180638A
:1030E000007F007E00600060006000600060000003
:1030F000000000000000001E003F0033806180617E
:103100008061806180618061806580670033803F7D
:10311000401E0000000000000000007E007F806371
:10312000806180618063007F007E006600630063D1
:1031300080618061C0600000000000000000000E9F
:10314000001F8031803100300038001E00078003EE
:10315000806180618031003F001E0000000000009F
:103160000000C0FFC0FF000C000C000C000C000CA5
:10317000000C000C000C000C000C000C000C0000FB
:1031800000000000000080618061806180618061DA
:103190008061806180618061806180618073003FB7
:1031A000001E0000000000000000C060C060C060A1
:1031B000803180318031001B001B001B001B000E82
:1031C000000E000E00040000000000000000C0C05F
:1031D000C0C0C0C0C0C0C0C0C0CC804C804C805EED
:1031E0008052805280738061806100000000000086
:1031F0000000C0C0806080610033003B001E000CF6
:10320000000C001E001F003B80718061C0C00000E8
:10321000000000000000C0C0806180610033003306
:10322000001E001E000C000C000C000C000C000C1A
:10323000000C0000000000000000803F803F800183
:10324000000300030006000C000C001800180030FA
:103250000060807F807F000000000000000F000FF2
:10326000000C000C000C000C000C000C000C000CFE
:10327000000C000C000C000C000C000C000F000FE8
:103280000000001800180018000C000C000C000CC6
:10329000000600060006000600030003000300000D
:1032A00000000000001E001E0006000600060006CA
:1032B00000060006000600060006000600060006DE
:1032C00000060006001E001E0000000C000C001E80
:1032D00000120033003380618061000000000000B4
:1032E00000000000000000000000000000000000DE
:1032F00000000000000000000000000000000000CE
:10330000000000000000000000000000E0FF0000DE
:10331000000000380018000C000000000000000051
:10332000000000000000000000000000000000009D
:103330000000000000000000000000000000001F6E
:10334000803F80618001801F803F80618063807F3B
:10335000C038000000000000000000600060006055
:103360000060006E007F8073806180618061806199
:103370008073007F006E000000000000000000006D
:10338000000000000000001E003F807380610060AC
:10339000006080618073003F001E0000000000009C
:1033A00000008001800180018001801D803F8073CA
:1033B00080618061806180618073803F801D00003A
:1033C0000000000000000000000000000000001EDF
:1033D000003F00738061807F807F00608071003FCC
:1033E000001E0000000000000000C007C00F000C1D
:1033F000000C807F807F000C000C000C000C000C87
:10340000000C000C000C0000000000000000000098
:1034100000000000801D803F8073806180618061BA
:1034200080618073803F801D80018063007F003E4B
:1034300000000060006000600060006F807F8071AD
:103440008061806180618061806180618061000055
:103450000000000000000006000600000000003E22
:10346000003E0006000600060006000600060006F4
:10347000000600000000000000060006000000003A
:10348000003E003E0006000600060006000600069C
:103490000006000600060046007E003C00000060BA
:1034A000006000600060806100630066006C007C6A
:1034B0000076006300638061C060000000000000CF
:1034C0000000003E003E0006000600060006000662
:1034D00000060006000600060006000600060000C2
:1034E000000000000000000000000000000080DD7F
:1034F000C0FFC0CEC0CCC0CCC0CCC0CCC0CCC0CC37
:10350000C0CC00000000000000000000000000002F
:103510000000006F807F80718061806180618061C8
:1035200080618061806100000000000000000000F8
:10353000000000000000001E003F80738061806179
:10354000806180618073003F001E00000000000069
:103550000000000000000000006E007F80738061AA
:103560008061806180618073007F006E0060006018
:10357000006000600000000000000000801D803F2F
:10358000807380618061806180618073803F801D75
:103590008001800180018001000000000000000027
:1035A00000000067803F00390030003000300030FC
:1035B000003000300030000000000000000000007B
:1035C000000000000000001E803F80610060007F5E
:1035D000803F80018061007F001E0000000000002D
:1035E00000000000000800180018007F007F00188D
:1035F00000180018001800180018801F800F000025
:1036000000000000000000000000000000008061D9
:103610008061806180618061806180618063807F82
:10362000803D0000000000000000000000000000DD
:103630000000C060803180318031001B001B001B06
:10364000000E000E00060000000000000000000058
:1036500000000000000080DD80DD80DD00550055A9
:1036600000550077007700220022000000000000D3
:103670000000000000000000000080610033003303
:10368000001E000C000C001E00330033806100009F
:103690000000000000000000000000008061806168
:1036A000803100330033001B001B001B000E000E96
:1036B000000E001C007C00700000000000000000F4
:1036C0000000C07FC07F800100030006000C0018CE
:1036D0000030C07FC07F0000000000008003800732
:1036E00000060006000600060006000E001C001C76
:1036F000000E000600060006000600068007800394
:103700000006000600060006000600060006000689
:103710000006000600060006000600060006000679
:10372000000600060038003C000C000C000C000CE9
:10373000000C000E00070007000E000C000C000C2F
:10374000000C000C003C00380000000000000000ED
:103750000000000000008038807F0047000000006B
:103760000000000000000000000000000000000059
:103770000102030401020304060708099C3700083C
:10378000000000202C00000030160008C837000898
:103790002C0000203C0A000040160008070A000028
:1037A000A42200080B120000102A000800000000EC
:1037B000000000000000000000A24A040000000019
:0837C000000000000000000001
:04000005080000ED02
:00000001FF
