:020000040800F2
:1000000008040020A10400080105000801050008FB
:1000100001050008010500080105000800000000B6
:1000200000000000000000000000000001050008C2
:100030000105000800000000010500080105000896
:100040000105000801050008010500080105000878
:100050000105000801050008010500080105000868
:100060000105000801050008010500080105000858
:100070000105000801050008010500080105000848
:100080000105000801050008010500080105000838
:100090000105000801050008010500080105000828
:1000A0000105000801050008010500080105000818
:1000B00001050008010500086107000801050008A6
:1000C00001050008010500080105000801050008F8
:1000D00001050008010500080105000801050008E8
:1000E00001050008010500080105000800000000E6
:1000F0000000000000000000000000000000000000
:1001000000000000000000005FF808F180B485B036
:1001100000AF786039600023FB817B681B88FB811E
:100120007B682E4A934213D07B682D4A93420FD0AE
:100130007B68B3F1804F0BD07B682A4A934207D08B
:100140007B68294A934203D07B68284A934208D1AE
:10015000FB8923F07003FB813B685A88FB891343BA
:10016000FB817B68224A93420CD07B68214A9342F0
:1001700008D0FB8923F44073FB813B68DA88FB8954
:100180001343FB817B68FA891A803B689A887B68F5
:100190009A853B681A887B681A857B680F4A934268
:1001A0000FD07B680E4A93420BD07B68124A934271
:1001B00007D07B68114A934203D07B68104A934270
:1001C00004D13B681B7A9AB27B681A867B6801224D
:1001D0009A8200BF1437BD4680BC7047002C014096
:1001E000003401400004004000080040000C0040C2
:1001F0000010004000140040004001400044014055
:100200000048014080B483B000AF78607B684FF64F
:10021000FF729A807B6800221A807B680022DA8055
:100220007B6800225A807B6800221A7200BF0C375C
:10023000BD4680BC704780B483B000AF78600B4689
:10024000FB70FB78002B08D07B681B889BB243F0C7
:1002500001039AB27B681A8007E07B681B889BB217
:1002600023F001039AB27B681A8000BF0C37BD46A9
:1002700080BC704780B483B000AF78600B467B8051
:1002800013467B707B78002B08D07B689B899AB2E1
:100290007B8813439AB27B689A8109E07B689B89CB
:1002A0009AB27B88DB439BB213409AB27B689A81F7
:1002B00000BF0C37BD4680BC704780B485B000AF2E
:1002C00078600B467B800023FB730023BB810023F7
:1002D0007B817B681B8A9AB27B881340BB817B68D9
:1002E0009B899AB27B8813407B81BB89002B05D008
:1002F0007B89002B02D00123FB7301E00023FB73F9
:10030000FB7B18461437BD4680BC704780B483B071
:1003100000AF78600B467B807B88DB439AB27B68BA
:100320001A8200BF0C37BD4680BC704780B500AF55
:10033000154B1B68144A43F001031360124B5A68B3
:100340001149124B13404B600F4B1B680E4A23F0B0
:10035000847323F4803313600B4B1B680A4A23F425
:1003600080231360084B5B68074A23F4FE03536045
:10037000054B4FF41F029A6000F00CF8044B4FF04D
:1003800000629A6000BF80BD001002400000FFF8CC
:1003900000ED00E080B500AF00F002F800BF80BDC6
:1003A00080B483B000AF00237B6000233B603A4BF6
:1003B0001B68394A43F480331360374B1B6803F4DE
:1003C00000333B607B6801337B603B68002B03D1CB
:1003D0007B68B3F5A06FF0D12F4B1B6803F400339B
:1003E000002B02D001233B6001E000233B603B680F
:1003F000012B4BD1294B1B68284A43F01003136093
:10040000264B1B68254A23F003031360234B1B680C
:10041000224A43F0020313601F4B1F4A5B6853607C
:100420001D4B1D4A5B6853601B4B5B681A4A43F4C3
:1004300080635360184B5B68174A23F47C13536046
:10044000154B5B68144A43F4E8135360124B1B6866
:10045000114A43F08073136000BF0F4B1B6803F019
:100460000073002BF9D00C4B5B680B4A23F003039D
:100470005360094B5B68084A43F00203536000BFB6
:10048000054B5B6803F00C03082BF9D100BF0C3758
:10049000BD4680BC704700BF0010024000200240F3
:1004A00080B582B000AF114B7B60114B3B6007E021
:1004B0007A68131D7B603B68191D396012681A60E9
:1004C0003B680C4A9342F3D30B480C494FF00002AF
:1004D0008842B8BF40F8042BFADBFFF727FF00F093
:1004E000EAF800BF0837BD4680BD00BFF00800082D
:1004F0000000002000000020000000200400002078
:1005000080B400AFFEE780B489B000AF7860396096
:100510000023FB6100233B610023BB610023FB60E0
:1005200000237B610023BB603B68DB7803F00F0393
:10053000FB613B68DB7803F01003002B05D03B68C0
:100540009B781A46FB691343FB613B681B88DBB24F
:10055000002B44D07B681B687B610023BB6138E0C3
:100560000122BB6902FA03F3FB603B681B881A4651
:10057000FB6813403B613A69FB689A4226D1BB692C
:100580009B00FB600F22FB6802FA03F3BB60BB68B1
:10059000DB437A6913407B61FA69FB6802FA03F373
:1005A0007A6913437B613B68DB78282B05D10122F4
:1005B000BB699A407B685A6108E03B68DB78482B4E
:1005C00004D10122BB699A407B681A61BB6901337F
:1005D000BB61BB69072BC3D97B687A691A603B682A
:1005E0001B88FF2B46D97B685B687B610023BB615E
:1005F0003AE0BB690833012202FA03F3FB603B686F
:100600001B881A46FB6813403B613A69FB689A42B3
:1006100027D1BB699B00FB600F22FB6802FA03F342
:10062000BB60BB68DB437A6913407B61FA69FB6896
:1006300002FA03F37A6913437B613B68DB78282B6A
:1006400005D1BB69083301229A407B685A613B6837
:10065000DB78482B05D1BB69083301229A407B68BF
:100660001A61BB690133BB61BB69072BC1D97B68C8
:100670007A695A6000BF2437BD4680BC704780B499
:1006800083B000AF78600B467B807A887B681A6104
:1006900000BF0C37BD4680BC704780B483B000AF4C
:1006A00078600B467B807A887B685A6100BF0C3784
:1006B000BD4680BC704780B500AF00F01DF800F06B
:1006C00001F8FEE780B582B000AF0121102000F0F4
:1006D00071F84FF40053BB800323BB711023FB71EF
:1006E0003B1D19460348FFF70EFF00BF0837BD4604
:1006F00080BD00BF0010014080B584B000AF012173
:10070000042000F075F83B1D1846FFF77BFD4FF401
:10071000FA53BB804FF4FA733B810023FB803B1DEF
:1007200019460E48FFF7F2FC012201210B48FFF7A2
:10073000A1FD01210948FFF77EFD1E233B70002328
:100740007B700023BB700123FB703B46184600F012
:100750006DF800BF1037BD4680BD00BF00080040E7
:1007600080B500AF01211048FFF7A7FD0346002B1D
:1007700018D001210C48FFF7C9FD0C4B1B68002B5A
:1007800008D10A4B01221A604FF400510848FFF7C4
:1007900076FF07E0054B00221A604FF40051044831
:1007A000FFF77BFF00BF80BD000800400000002075
:1007B0000010014080B483B000AF78600B46FB703E
:1007C000FB78002B06D0094B9A6908497B681343D4
:1007D0008B6106E0054B9A697B68DB430349134054
:1007E0008B6100BF0C37BD4680BC704700100240D3
:1007F00080B483B000AF78600B46FB70FB78002BB1
:1008000006D0094BDA6908497B681343CB6106E0DF
:10081000054BDA697B68DB4303491340CB6100BFBA
:100820000C37BD4680BC70470010024080B487B0D2
:1008300000AF786000237B6100233B610F23FB60E6
:100840007B68DB78002B3AD0274BDB68DB431B0A45
:1008500003F007037B617B69C3F104033B61FA6822
:100860007B6922FA03F3FB607B685B781A463B697D
:1008700002FA03F37B617B689B781A46FB6813409E
:100880007A6913437B617B691B017B61174A7B6833
:100890001B787969C9B213440A4683F800237B6840
:1008A0001B7803F01F0311497A6812785209D2B2FB
:1008B0001046012202FA03F341F820300FE07B6872
:1008C0001B7803F01F0309497A6812785209D2B2E3
:1008D000104601229A4000F1200341F8232000BF76
:1008E0001C37BD4680BC704700ED00E000E100E031
:0400000508000000EF
:00000001FF
