:020000040800F2
:100000000004002081020008E1020008E10200086B
:10001000E1020008E1020008E1020008000000001F
:10002000000000000000000000000000E1020008E5
:10003000E102000800000000E1020008E1020008FF
:10004000E1020008E1020008E1020008E102000804
:10005000E1020008E1020008E1020008E1020008F4
:10006000E1020008E1020008E1020008E1020008E4
:10007000E1020008E1020008E1020008E1020008D4
:10008000E1020008E1020008E1020008E1020008C4
:10009000E1020008E1020008E1020008E1020008B4
:1000A000E1020008E1020008E1020008E1020008A4
:1000B000E1020008E1020008E1020008E102000894
:1000C000E1020008E1020008E1020008E102000884
:1000D000E1020008E1020008E1020008E102000874
:1000E000E1020008E1020008E1020008000000004F
:1000F0000000000000000000000000000000000000
:1001000000000000000000005FF808F180B500AFBB
:10011000154B1B68144A43F001031360124B5A68D5
:100120001149124B13404B600F4B1B680E4A23F0D2
:10013000847323F4803313600B4B1B680A4A23F447
:1001400080231360084B5B68074A23F4FE03536067
:10015000054B4FF41F029A6000F00CF8044B4FF06F
:1001600000629A6000BF80BD001002400000FFF8EE
:1001700000ED00E080B500AF00F002F800BF80BDE8
:1001800080B483B000AF00237B6000233B603A4B18
:100190001B68394A43F480331360374B1B6803F400
:1001A00000333B607B6801337B603B68002B03D1ED
:1001B0007B68B3F5A06FF0D12F4B1B6803F40033BD
:1001C000002B02D001233B6001E000233B603B6831
:1001D000012B4BD1294B1B68284A43F010031360B5
:1001E000264B1B68254A23F003031360234B1B682F
:1001F000224A43F0020313601F4B1F4A5B6853609F
:100200001D4B1D4A5B6853601B4B5B681A4A43F4E5
:1002100080635360184B5B68174A23F47C13536068
:10022000154B5B68144A43F4E8135360124B1B6888
:10023000114A43F08073136000BF0F4B1B6803F03B
:100240000073002BF9D00C4B5B680B4A23F00303BF
:100250005360094B5B68084A43F00203536000BFD8
:10026000054B5B6803F00C03082BF9D100BF0C377A
:10027000BD4680BC704700BF001002400020024015
:1002800080B582B000AF114B7B60114B3B6007E043
:100290007A68131D7B603B68191D396012681A600B
:1002A0003B680C4A9342F3D30B480C494FF00002D1
:1002B0008842B8BF40F8042BFADBFFF727FF00F0B5
:1002C00071F900BF0837BD4680BD00BF4806000871
:1002D000000000200000002000000020000000209E
:1002E00080B400AFFEE780B489B000AF78603960B9
:1002F0000023FB6100233B610023BB610023FB6003
:1003000000237B610023BB603B68DB7803F00F03B5
:10031000FB613B68DB7803F01003002B05D03B68E2
:100320009B781A46FB691343FB613B681B88DBB271
:10033000002B44D07B681B687B610023BB6138E0E5
:100340000122BB6902FA03F3FB603B681B881A4673
:10035000FB6813403B613A69FB689A4226D1BB694E
:100360009B00FB600F22FB6802FA03F3BB60BB68D3
:10037000DB437A6913407B61FA69FB6802FA03F395
:100380007A6913437B613B68DB78282B05D1012216
:10039000BB699A407B685A6108E03B68DB78482B70
:1003A00004D10122BB699A407B681A61BB690133A1
:1003B000BB61BB69072BC3D97B687A691A603B684C
:1003C0001B88FF2B46D97B685B687B610023BB6180
:1003D0003AE0BB690833012202FA03F3FB603B6891
:1003E0001B881A46FB6813403B613A69FB689A42D6
:1003F00027D1BB699B00FB600F22FB6802FA03F365
:10040000BB60BB68DB437A6913407B61FA69FB68B8
:1004100002FA03F37A6913437B613B68DB78282B8C
:1004200005D1BB69083301229A407B685A613B6859
:10043000DB78482B05D1BB69083301229A407B68E1
:100440001A61BB690133BB61BB69072BC1D97B68EA
:100450007A695A6000BF2437BD4680BC70470000EF
:1004600080B485B000AF786039600023FB60002362
:10047000BB60134B1B68FB6040F6FE727B6802FAA0
:1004800003F3DB43FA681340FB603B681A683B6880
:100490005B681A433B689B681A433B68DB681343FD
:1004A000BB60BA687B6802FA03F3FA681343FB6027
:1004B000034AFB68136000BF1437BD4680BC704719
:1004C0000074004080B483B000AF78600B46FB70CE
:1004D000FB78002B09D00C4B1A6801217B6801FACC
:1004E00003F3094913430B6009E0074B1A68012124
:1004F0007B6801FA03F3DB43034913400B6000BF41
:100500000C37BD4680BC70470074004080B485B095
:1005100000AF78600B467B800023FB60074BFB60DD
:10052000FA687B6813440833FB60FB681A467B88D3
:10053000136000BF1437BD4680BC70470074004094
:1005400080B586B000AF0121042000F041F81023EF
:10055000BB820023FB750323BB7507F11403194607
:100560000F48FFF7C0FE01214FF0005000F04EF899
:1005700000233B6100237B600023BB603B1D1946C9
:100580000020FFF76DFF3B1D19461020FFF768FFA5
:1005900001210020FFF796FF00BF1837BD4680BD40
:1005A0000008014080B582B000AFFFF7C9FF00230B
:1005B0007B6008E07B689BB219460020FFF7A6FF2E
:1005C0007B6801337B607B68B3F57A6FF2DBEEE723
:1005D00080B483B000AF78600B46FB70FB78002BD3
:1005E00006D0094B9A6908497B6813438B6106E082
:1005F000054B9A697B68DB43034913408B6100BF5D
:100600000C37BD4680BC70470010024080B483B0F8
:1006100000AF78600B46FB70FB78002B06D0094BCF
:10062000DA6908497B681343CB6106E0054BDA6958
:100630007B68DB4303491340CB6100BF0C37BD46E9
:0806400080BC7047001002406D
:0400000508000000EF
:00000001FF
