:020000040800F2
:10000000100400206D060008CD060008CD0600088B
:10001000CD060008CD060008CD060008000000004F
:10002000000000000000000000000000CD060008F5
:10003000CD06000800000000CD060008CD0600082F
:10004000CD060008CD060008CD060008CD06000844
:10005000CD060008CD060008CD060008CD06000834
:10006000CD060008CD060008CD060008CD06000824
:10007000CD060008CD060008CD060008CD06000814
:10008000CD060008CD060008CD060008CD06000804
:10009000CD060008CD060008CD060008CD060008F4
:1000A000CD060008CD060008CD060008CD060008E4
:1000B000CD060008CD060008190A0008CD06000884
:1000C000CD060008CD060008CD060008CD060008C4
:1000D000CD060008CD060008CD060008CD060008B4
:1000E000CD060008CD060008CD060008000000007F
:1000F0000000000000000000000000000000000000
:1001000000000000000000005FF808F180B485B036
:1001100000AF786039600023FB817B681B88FB811E
:100120007B682E4A934213D07B682D4A93420FD0AE
:100130007B68B3F1804F0BD07B682A4A934207D08B
:100140007B68294A934203D07B68284A934208D1AE
:10015000FB8923F07003FB813B685A88FB891343BA
:10016000FB817B68224A93420CD07B68214A9342F0
:1001700008D0FB8923F44073FB813B68DA88FB8954
:100180001343FB817B68FA891A803B689A887B68F5
:100190009A853B681A887B681A857B680F4A934268
:1001A0000FD07B680E4A93420BD07B68124A934271
:1001B00007D07B68114A934203D07B68104A934270
:1001C00004D13B681B7A9AB27B681A867B6801224D
:1001D0009A8200BF1437BD4680BC7047002C014096
:1001E000003401400004004000080040000C0040C2
:1001F0000010004000140040004001400044014055
:100200000048014080B485B000AF786039600023B9
:100210007B810023FB810023BB817B681B8C9BB20D
:1002200023F001039AB27B681A847B681B8CFB81E4
:100230007B689B88BB817B681B8B7B817B8923F0E0
:1002400070037B817B8923F003037B813B681A88E1
:100250007B8913437B81FB8923F00203FB813B688D
:100260001A89FB891343FB813B685A88FB89134336
:10027000FB817B68244A93420FD07B68234A9342D8
:100280000BD07B68224A934207D07B68214A934275
:1002900003D07B68204A934223D1FB8923F00803D3
:1002A000FB813B685A89FB891343FB81FB8923F05F
:1002B0000403FB813B689A88FB891343FB81BB895C
:1002C00023F48073BB81BB8923F40073BB813B683B
:1002D0009A89BB891343BB813B68DA89BB89134385
:1002E000BB817B68BA899A807B687A891A833B686C
:1002F000DA887B689A867B68FA891A8400BF14378B
:10030000BD4680BC704700BF002C01400034014056
:1003100000400140004401400048014080B483B0E7
:1003200000AF78607B684FF6FF729A807B6800228E
:100330001A807B680022DA807B6800225A807B6802
:1003400000221A7200BF0C37BD4680BC704780B4D3
:1003500083B000AF78607B6800221A807B6800223F
:100360005A807B6800229A807B680022DA807B6852
:1003700000221A817B6800225A817B6800229A81C0
:100380007B680022DA8100BF0C37BD4680BC704715
:1003900080B483B000AF78600B46FB70FB78002B15
:1003A00008D07B681B889BB243F001039AB27B683C
:1003B0001A8007E07B681B889BB223F001039AB286
:1003C0007B681A8000BF0C37BD4680BC704780B484
:1003D00083B000AF78600B467B8013467B707B78E0
:1003E000002B08D07B689B899AB27B8813439AB212
:1003F0007B689A8109E07B689B899AB27B88DB43A2
:100400009BB213409AB27B689A8100BF0C37BD46FD
:1004100080BC704780B483B000AF78600B467B80AF
:100420007B687A889A8400BF0C37BD4680BC7047D1
:1004300080B485B000AF78600B467B800023FB73EF
:100440007B681B8A9AB27B8813409BB2002B02D038
:100450000123FB7301E00023FB73FB7B1846143779
:10046000BD4680BC704780B483B000AF78600B4657
:100470007B807B88DB439AB27B681A8200BF0C3793
:10048000BD4680BC704780B485B000AF78600B4635
:100490007B800023FB730023BB8100237B817B686F
:1004A0001B8A9AB27B881340BB817B689B899AB276
:1004B0007B8813407B81BB89002B05D07B89002B77
:1004C00002D00123FB7301E00023FB73FB7B184682
:1004D0001437BD4680BC704780B483B000AF7860ED
:1004E0000B467B807B88DB439AB27B681A8200BF15
:1004F0000C37BD4680BC704780B500AF154B1B68FC
:10050000144A43F001031360124B5A681149124B0D
:1005100013404B600F4B1B680E4A23F0847323F487
:10052000803313600B4B1B680A4A23F4802313604B
:10053000084B5B68074A23F4FE035360054B4FF4F6
:100540001F029A6000F00CF8044B4FF000629A60B2
:1005500000BF80BD001002400000FFF800ED00E089
:1005600080B500AF00F002F800BF80BD80B483B05A
:1005700000AF00237B6000233B603A4B1B68394A85
:1005800043F480331360374B1B6803F400333B6044
:100590007B6801337B603B68002B03D17B68B3F53C
:1005A000A06FF0D12F4B1B6803F40033002B02D057
:1005B00001233B6001E000233B603B68012B4BD1F2
:1005C000294B1B68284A43F010031360264B1B6815
:1005D000254A23F003031360234B1B68224A43F090
:1005E000020313601F4B1F4A5B6853601D4B1D4A7B
:1005F0005B6853601B4B5B681A4A43F4806353602B
:10060000184B5B68174A23F47C135360154B5B68E7
:10061000144A43F4E8135360124B1B68114A43F029
:100620008073136000BF0F4B1B6803F00073002B37
:10063000F9D00C4B5B680B4A23F003035360094B62
:100640005B68084A43F00203536000BF054B5B68D8
:1006500003F00C03082BF9D100BF0C37BD4680BC5A
:10066000704700BF001002400020024080B582B0F9
:1006700000AF114B7B60114B3B6007E07A68131DA4
:100680007B603B68191D396012681A603B680C4A30
:100690009342F3D30B480C494FF000028842B8BF95
:1006A00040F8042BFADBFFF727FF00F01BFA00BF2E
:1006B0000837BD4680BD00BFEC0B000800000020DD
:1006C00000000020000000201000002080B400AFD7
:1006D000FEE780B489B000AF786039600023FB6129
:1006E00000233B610023BB610023FB6000237B618F
:1006F0000023BB603B68DB7803F00F03FB613B68C2
:10070000DB7803F01003002B05D03B689B781A467A
:10071000FB691343FB613B681B88DBB2002B44D0B1
:100720007B681B687B610023BB6138E00122BB69E9
:1007300002FA03F3FB603B681B881A46FB68134010
:100740003B613A69FB689A4226D1BB699B00FB601A
:100750000F22FB6802FA03F3BB60BB68DB437A69D4
:1007600013407B61FA69FB6802FA03F37A69134369
:100770007B613B68DB78282B05D10122BB699A405D
:100780007B685A6108E03B68DB78482B04D1012282
:10079000BB699A407B681A61BB690133BB61BB6965
:1007A000072BC3D97B687A691A603B681B88FF2BCB
:1007B00046D97B685B687B610023BB613AE0BB691B
:1007C0000833012202FA03F3FB603B681B881A46D8
:1007D000FB6813403B613A69FB689A4227D1BB69C9
:1007E0009B00FB600F22FB6802FA03F3BB60BB684F
:1007F000DB437A6913407B61FA69FB6802FA03F311
:100800007A6913437B613B68DB78282B05D1BB6990
:10081000083301229A407B685A613B68DB78482B99
:1008200005D1BB69083301229A407B681A61BB6914
:100830000133BB61BB69072BC1D97B687A695A60F8
:1008400000BF2437BD4680BC704780B483B000AF82
:1008500078607B684FF6FF721A807B6802229A707C
:100860007B680422DA7000BF0C37BD4680BC70473D
:1008700080B483B000AF0346FB71FB7903F01F0324
:10088000012202FA03F1054A97F907305B0942F8A1
:10089000231000BF0C37BD4680BC704700E100E06C
:1008A00080B588B000AF0121082000F023F9402373
:1008B000BB831823FB770223BB7707F11C03194680
:1008C0001E48FFF706FF07F11C031846FFF7BDFFA0
:1008D0000121042000F02CF907F110031846FFF75E
:1008E0001DFD48233B824FF6FF73BB820023FB8232
:1008F00000237B8207F1100319461148FFF706FC1D
:100900003B461846FFF723FD0023FB8060233B8016
:1009100001237B8000233B813B4619460848FFF7B3
:1009200071FC012210210648FFF751FD1E20FFF740
:100930009FFF00BF2037BD4680BD00BF000C0140B7
:100940000008004080B582B000AF786039607B68F5
:10095000002B0EDD1B4A7B6892FBF3F21A4B92B21E
:100960009A85194B9B8D9BB2174A5B089BB2938665
:1009700006E0154B4FF47A729A85134B00229A8643
:1009800000211148FFF746FD0F4B9B8D9BB21A4685
:100990000C4B93FBF2F33A6802FB03F30B4A82FB26
:1009A00003129211DB17D31A094A1360094B002274
:1009B0001A6001210448FFF7EBFC00BF0837BD4671
:1009C00080BD00BF40420F0000080040D34D6210C0
:1009D000080000200C00002080B500AF0B4B002267
:1009E0001A600B4B01221A70084B1B68094A32F837
:1009F00023301846054B1B68064A9B0013445B884E
:100A00001946FFF79FFF00BF80BD00BF0000002018
:100A1000040000206C0B000880B500AF10212B48AB
:100A2000FFF731FD0346002B4ED010212748FFF77A
:100A300053FD274B1B680133254A1360244B1A686A
:100A4000244B1B689A4232DD234B1B78002B04D1C8
:100A500000211E48FFF79CFC29E0204B1B681E2B41
:100A60001EDC1A4B9B8E9BB2002B14D11B4B1B68B8
:100A700001331A4A1360194B1B68194A32F82330A4
:100A80001846164B1B68164A9B0013445B88194690
:100A9000FFF758FF0BE01E210020FFF753FF06E091
:100AA0000E4B00221A601E210020FFF74BFF4FF46F
:100AB00080510648FFF7BCFC0346002B04D04FF4DE
:100AC00080510248FFF7CFFC00BF80BD0008004006
:100AD0000C0000200800002004000020000000207E
:100AE0006C0B000880B500AFFFF7DAFEFFF774FF6C
:100AF000FEE7000080B483B000AF78600B46FB7067
:100B0000FB78002B06D0094B9A6908497B68134390
:100B10008B6106E0054B9A697B68DB430349134010
:100B20008B6100BF0C37BD4680BC7047001002408F
:100B300080B483B000AF78600B46FB70FB78002B6D
:100B400006D0094BDA6908497B681343CB6106E09C
:100B5000054BDA697B68DB4303491340CB6100BF77
:100B60000C37BD4680BC704700100240EE01F40116
:100B7000EF00D0078801FA007201FA00EF00E803E5
:100B8000EE01F401B801E2047201E803EE01F401A0
:100B9000EF00E8038801FA007201FA002501E8037A
:100BA000EF00F401EE01E8030000E803EE01F401B8
:100BB000EF00E8038801FA007201FA00EF00E80391
:100BC000EE01F4012501E8031501F4010A02E8032E
:100BD000B801F4010A02E803EE01FA00D201FA00BA
:0C0BE000EE01E8038801F401EF00E803D7
:0400000508000000EF
:00000001FF
