:020000040800F2
:10000000900E0020A1040008010500080105000869
:1000100001050008010500080105000800000000B6
:1000200000000000000000000000000001050008C2
:100030000105000800000000010500080105000896
:100040000105000801050008010500080105000878
:100050000105000801050008010500080105000868
:100060000105000801050008010500080105000858
:100070000105000801050008010500080105000848
:100080000105000801050008010500080105000838
:100090000105000801050008010500080105000828
:1000A0000105000801050008010500080105000818
:1000B00001050008010500080908000801050008FD
:1000C00001050008010500080105000801050008F8
:1000D00001050008010500080105000801050008E8
:1000E00001050008010500080105000800000000E6
:1000F0000000000000000000000000000000000000
:1001000000000000000000005FF808F180B485B036
:1001100000AF786039600023FB817B681B88FB811E
:100120007B682E4A934213D07B682D4A93420FD0AE
:100130007B68B3F1804F0BD07B682A4A934207D08B
:100140007B68294A934203D07B68284A934208D1AE
:10015000FB8923F07003FB813B685A88FB891343BA
:10016000FB817B68224A93420CD07B68214A9342F0
:1001700008D0FB8923F44073FB813B68DA88FB8954
:100180001343FB817B68FA891A803B689A887B68F5
:100190009A853B681A887B681A857B680F4A934268
:1001A0000FD07B680E4A93420BD07B68124A934271
:1001B00007D07B68114A934203D07B68104A934270
:1001C00004D13B681B7A9AB27B681A867B6801224D
:1001D0009A8200BF1437BD4680BC7047002C014096
:1001E000003401400004004000080040000C0040C2
:1001F0000010004000140040004001400044014055
:100200000048014080B483B000AF78607B684FF64F
:10021000FF729A807B6800221A807B680022DA8055
:100220007B6800225A807B6800221A7200BF0C375C
:10023000BD4680BC704780B483B000AF78600B4689
:10024000FB70FB78002B08D07B681B889BB243F0C7
:1002500001039AB27B681A8007E07B681B889BB217
:1002600023F001039AB27B681A8000BF0C37BD46A9
:1002700080BC704780B483B000AF78600B467B8051
:1002800013467B707B78002B08D07B689B899AB2E1
:100290007B8813439AB27B689A8109E07B689B89CB
:1002A0009AB27B88DB439BB213409AB27B689A81F7
:1002B00000BF0C37BD4680BC704780B485B000AF2E
:1002C00078600B467B800023FB730023BB810023F7
:1002D0007B817B681B8A9AB27B881340BB817B68D9
:1002E0009B899AB27B8813407B81BB89002B05D008
:1002F0007B89002B02D00123FB7301E00023FB73F9
:10030000FB7B18461437BD4680BC704780B483B071
:1003100000AF78600B467B807B88DB439AB27B68BA
:100320001A8200BF0C37BD4680BC704780B500AF55
:10033000154B1B68144A43F001031360124B5A68B3
:100340001149124B13404B600F4B1B680E4A23F0B0
:10035000847323F4803313600B4B1B680A4A23F425
:1003600080231360084B5B68074A23F4FE03536045
:10037000054B4FF41F029A6000F00CF8044B4FF04D
:1003800000629A6000BF80BD001002400000FFF8CC
:1003900000ED00E080B500AF00F002F800BF80BDC6
:1003A00080B483B000AF00237B6000233B603A4BF6
:1003B0001B68394A43F480331360374B1B6803F4DE
:1003C00000333B607B6801337B603B68002B03D1CB
:1003D0007B68B3F5A06FF0D12F4B1B6803F400339B
:1003E000002B02D001233B6001E000233B603B680F
:1003F000012B4BD1294B1B68284A43F01003136093
:10040000264B1B68254A23F003031360234B1B680C
:10041000224A43F0020313601F4B1F4A5B6853607C
:100420001D4B1D4A5B6853601B4B5B681A4A43F4C3
:1004300080635360184B5B68174A23F47C13536046
:10044000154B5B68144A43F4E8135360124B1B6866
:10045000114A43F08073136000BF0F4B1B6803F019
:100460000073002BF9D00C4B5B680B4A23F003039D
:100470005360094B5B68084A43F00203536000BFB6
:10048000054B5B6803F00C03082BF9D100BF0C3758
:10049000BD4680BC704700BF0010024000200240F3
:1004A00080B582B000AF114B7B60114B3B6007E021
:1004B0007A68131D7B603B68191D396012681A60E9
:1004C0003B680C4A9342F3D30B480C494FF00002AF
:1004D0008842B8BF40F8042BFADBFFF727FF00F093
:1004E00003F900BF0837BD4680BD00BF046C00089B
:1004F00000000020CC090020CC090020900A002038
:1005000080B400AFFEE780B489B000AF7860396096
:100510000023FB6100233B610023BB610023FB60E0
:1005200000237B610023BB603B68DB7803F00F0393
:10053000FB613B68DB7803F01003002B05D03B68C0
:100540009B781A46FB691343FB613B681B88DBB24F
:10055000002B44D07B681B687B610023BB6138E0C3
:100560000122BB6902FA03F3FB603B681B881A4651
:10057000FB6813403B613A69FB689A4226D1BB692C
:100580009B00FB600F22FB6802FA03F3BB60BB68B1
:10059000DB437A6913407B61FA69FB6802FA03F373
:1005A0007A6913437B613B68DB78282B05D10122F4
:1005B000BB699A407B685A6108E03B68DB78482B4E
:1005C00004D10122BB699A407B681A61BB6901337F
:1005D000BB61BB69072BC3D97B687A691A603B682A
:1005E0001B88FF2B46D97B685B687B610023BB615E
:1005F0003AE0BB690833012202FA03F3FB603B686F
:100600001B881A46FB6813403B613A69FB689A42B3
:1006100027D1BB699B00FB600F22FB6802FA03F342
:10062000BB60BB68DB437A6913407B61FA69FB6896
:1006300002FA03F37A6913437B613B68DB78282B6A
:1006400005D1BB69083301229A407B685A613B6837
:10065000DB78482B05D1BB69083301229A407B68BF
:100660001A61BB690133BB61BB69072BC1D97B68C8
:100670007A695A6000BF2437BD4680BC704780B499
:1006800085B000AF78600B467B800023FB737B68EE
:100690009A687B881340002B02D00123FB7301E092
:1006A0000023FB73FB7B18461437BD4680BC7047A4
:1006B00080B483B000AF78600B467B807A887B681B
:1006C0001A6100BF0C37BD4680BC704780B483B050
:1006D00000AF78600B467B807A887B685A6100BFE8
:1006E0000C37BD4680BC704780B500AF00F074FD8C
:1006F00000F00AF800F036F9024800F0C5FD00F0FD
:1007000051F8FEE73C68000880B500AF00F004F83F
:1007100000F02EF800BF80BD80B582B000AF10237E
:100720007B600121786800F0ABFB1023FB70032392
:10073000BB704FF400533B803B4619460B48FFF714
:10074000E2FE4FF480433B803B4619460748FFF7E3
:10075000DAFE4FF400433B803B4619460348FFF75F
:10076000D2FE00BF0837BD4680BD00BF001001406B
:1007700080B582B000AF08237B600121786800F06B
:100780007FFB0323BB704823FB7001233B803B4668
:1007900019460348FFF7B7FE00BF0837BD4680BDC6
:1007A000000C014080B584B000AF0121042000F0AE
:1007B00085FB3B1D1846FFF725FD0023BB804FF648
:1007C000FF733B810023FB803B1D19460D48FFF75B
:1007D0009DFC012201210B48FFF74CFD0121094836
:1007E000FFF729FD1E233B7000237B700023BB70A5
:1007F0000123FB703B46184600F062FD00BF103736
:10080000BD4680BD0008004080B500AF012107480B
:10081000FFF753FD0346002B05D000F009F8012136
:100820000248FFF773FD00BF80BD00BF0008004015
:1008300080B500AF01212748FFF721FF03461A4684
:10084000254B1A6002212348FFF719FF03461A4679
:10085000224B1A6008211F48FFF711FF03461A4672
:100860001F4B1A6000F044F81B4B1A681D4B1B68A5
:100870009A420AD0184B1B681A4A136000F012F90A
:10088000154B1B68184600F0BDF8144B1A68164B40
:100890001B689A420AD0114B1B68134A136000F080
:1008A00001F90E4B1B68184600F0B5F80C4B1A689E
:1008B0000E4B1B689A420AD0094B1B680B4A136007
:1008C00000F0F0F8064B1B68184600F0ADF800BFCA
:1008D00080BD00BF000C0140D0090020D8090020D5
:1008E000E0090020D4090020DC090020E4090020F0
:1008F00080B500AF174B1B68002B05D14FF400519A
:100900001548FFF7E3FE04E04FF400511248FFF7EB
:10091000CFFE124B1B68002B05D14FF480410E48CF
:10092000FFF7D4FE04E04FF480410B48FFF7C0FE10
:100930000B4B1B68002B05D14FF400410648FFF715
:10094000C5FE04E04FF400410348FFF7B1FE00BFCD
:1009500080BD00BFD009002000100140D809002050
:10096000E009002080B500AF01211E48FFF787FE97
:1009700003461A461C4B1A6002211A48FFF77FFEF5
:1009800003461A46194B1A6008211648FFF777FEEE
:1009900003461A46164B1A60134B1B68154A136020
:1009A000124B1B68144A1360114B1B68134A1360E7
:1009B000FFF79EFF0D4B1B68002B06D10A4B1B68EF
:1009C000002B02D10E4B02221A60084B1B68012B30
:1009D00006D1054B1B68012B02D1094B01221A607D
:1009E00000BF80BD000C0140D0090020D8090020C4
:1009F000E0090020D4090020DC090020E4090020DF
:100A0000CC09002080B483B000AF786000BF0C3701
:100A1000BD4680BC704780B483B000AF786000BF33
:100A20000C37BD4680BC704780B483B000AF78609F
:100A300000BF0C37BD4680BC7047000080B500AFDA
:100A4000094B1B680133084A1360074B1A68074BB0
:100A50001B689A4203DD054B1B68034A136000F0D4
:100A600045F900BF80BD00BF000000200400002049
:100A700080B500AF094B1B68013B084A1360074B68
:100A80001A68074B1B689A4203DA054B1B68034A36
:100A9000136000F02BF900BF80BD00BF00000020F4
:100AA0000800002080B500AF8D4B1B68013B0D2B6B
:100AB00000F2138101A252F823F000BFF50A0008EA
:100AC000270B0008590B0008790B0008950B00084C
:100AD000B50B0008D10B0008E90B0008050C000855
:100AE000210C0008390C0008550C0008710C000896
:100AF000890C00087B4B1B68012B06D17A4B1B68C5
:100B0000002B02D1764B03221A60764B1B68002B18
:100B100040F0C880744B1B68012B40F0C380704BC1
:100B200006221A60BEE06F4B1B68002B06D16E4B8D
:100B30001B68012B02D16A4B09221A60694B1B68A2
:100B4000012B40F0B180684B1B68002B40F0AC805B
:100B5000634B0C221A60A7E0624B1B68002B40F02D
:100B6000A580614B1B68002B40F0A0805C4B0422E9
:100B70001A60FFF763FF99E05A4B1B68002B40F0A7
:100B80009780594B1B68012B40F09280544B0522F3
:100B90001A608DE0534B1B68012B40F08B80524B49
:100BA0001B68012B40F086804D4B01221A60FFF735
:100BB00045FF7FE04B4B1B68002B7DD14A4B1B68E8
:100BC000002B79D1464B07221A60FFF751FF73E0E3
:100BD000444B1B68012B71D1434B1B68002B6DD11B
:100BE0003F4B08221A6069E03E4B1B68012B67D11E
:100BF0003D4B1B68012B63D1394B01221A60FFF773
:100C000037FF5DE0374B1B68012B5BD1364B1B6810
:100C1000012B57D1324B0A221A60FFF70FFF51E028
:100C2000304B1B68012B4FD12F4B1B68002B4BD136
:100C30002B4B0B221A6047E02A4B1B68002B45D137
:100C4000294B1B68002B41D1254B02221A60FFF76C
:100C5000F5FE3BE0234B1B68012B39D1224B1B686F
:100C6000012B35D11E4B0D221A60FFF701FF2FE03B
:100C70001C4B1B68012B2DD11B4B1B68012B29D151
:100C8000174B0E221A6025E0164B1B68002B23D150
:100C9000154B1B68002B1FD1114B02221A60FFF766
:100CA000E7FE19E000BF18E000BF16E000BF14E047
:100CB00000BF12E000BF10E000BF0EE000BF0CE07C
:100CC00000BF0AE000BF08E000BF06E000BF04E08C
:100CD00000BF02E000BF00E000BF00BF80BD00BF5A
:100CE000CC090020D8090020D009002080B500AF31
:100CF000054B1B681A460549054800F043FB0448AC
:100D000000F0C2FA00BF80BD00000020606800084B
:100D1000E809002080B487B000AF786000237B61D1
:100D200000233B610023FB600023BB604F4B5B68EB
:100D300003F00C037B617B69082B11D07B69082BC6
:100D40003AD87B69002B03D07B69042B04D033E0B5
:100D50007B68474A1A6033E07B68454A1A602FE097
:100D6000424B5B6803F470133B61404B5B6803F4D8
:100D70008033FB603B699B0C02333B61FB68002BBB
:100D800006D13B693B4A03FB02F27B681A6017E01D
:100D9000364B5B6803F40033002B06D03B69354AC1
:100DA00003FB02F27B681A600AE03B69304A03FBEE
:100DB00002F27B681A6003E07B682D4A1A6000BF6C
:100DC0002A4B5B6803F0F0037B617B691B097B6145
:100DD000294A7B6913441B78DBB2BB607B681A68C5
:100DE000BB68DA407B685A60204B5B6803F4E063C1
:100DF0007B617B691B0A7B611F4A7B6913441B78FB
:100E0000DBB2BB607B685A68BB68DA407B689A607B
:100E1000164B5B6803F460537B617B69DB0A7B6183
:100E2000154A7B6913441B78DBB2BB607B685A6848
:100E3000BB68DA407B68DA600C4B5B6803F44043C4
:100E40007B617B699B0B7B610C4A7B6913441B783C
:100E5000DBB2BB607B68DA68BB68B2FBF3F27B682D
:100E60001A6100BF1C37BD4680BC704700100240AD
:100E700000127A0000093D000C0000201C00002038
:100E800080B483B000AF78600B46FB70FB78002B1A
:100E900006D0094B9A6908497B6813438B6106E0C9
:100EA000054B9A697B68DB43034913408B6100BFA4
:100EB0000C37BD4680BC70470010024080B483B040
:100EC00000AF78600B46FB70FB78002B06D0094B17
:100ED000DA6908497B681343CB6106E0054BDA69A0
:100EE0007B68DB4303491340CB6100BF0C37BD4631
:100EF00080BC70470010024080B58CB000AF7860B5
:100F000039600023FB620023BB6200237B62002365
:100F10003B620023FB617B68FB617B681B8A9BB2A1
:100F2000FB62FA6A4CF6FF731340FB623B68DB8896
:100F30001A46FB6A1343FB62FB6A9AB27B681A8209
:100F40007B689B899BB2FB62FA6A4EF6F3131340EF
:100F5000FB623B689A883B681B8913439AB23B68E3
:100F60005B8913439BB21A46FB6A1343FB62FB6A1D
:100F70009AB27B689A817B689B8A9BB2FB62FA6A11
:100F80004FF6FF431340FB623B689B891A46FB6A9E
:100F90001343FB62FB6A9AB27B689A8207F10803EB
:100FA0001846FFF7B7FEFB692E4A934202D17B69D0
:100FB000BB6201E03B69BB627B689B899BB21BB251
:100FC000002B0CDABA6A13469B0013449A001A44A9
:100FD0003B681B685B00B2FBF3F37B620BE0BA6A11
:100FE00013469B0013449A001A443B681B689B00FD
:100FF000B2FBF3F37B627B6A1B4AA2FB03235B0910
:101000001B01FB62FB6A1B09642202FB03F37A6A81
:10101000D31A3B627B689B899BB21BB2002B0CDA14
:101020003B6ADB003233104AA2FB03235B0903F067
:101030000703FA6A1343FB620BE03B6A1B0132337E
:10104000094AA2FB03235B0903F00F03FA6A134367
:10105000FB62FB6A9AB27B681A8100BF3037BD46DB
:1010600080BD00BF003801401F85EB5180B483B0C4
:1010700000AF78600B46FB70FB78002B08D07B68D4
:101080009B899BB243F400539AB27B689A8107E034
:101090007B689B899BB223F400539AB27B689A8148
:1010A00000BF0C37BD4680BC704780B483B000AF32
:1010B00078600B467B807B88C3F308039AB27B6819
:1010C0009A8000BF0C37BD4680BC704780B485B0A5
:1010D00000AF78600B467B800023FB737B681B8826
:1010E0009AB27B8813409BB2002B02D00123FB7382
:1010F00001E00023FB73FB7B18461437BD4680BC20
:101100007047000080B485B000AF78600A4B1B6860
:10111000002B02D1084B094A1A60074B1B68FB6081
:10112000054B1A687B681344034A1360FB68184632
:101130001437BD4680BC7047500A0020900A00203A
:1011400080B483B000AF78604FF0FF3318460C379F
:10115000BD4680BC704780B483B000AF7860396012
:101160003B684FF400525A60002318460C37BD46C6
:1011700080BC704780B483B000AF7860012318460C
:101180000C37BD4680BC704780B485B000AFF860B6
:10119000B9607A60002318461437BD4680BC70479A
:1011A00080B485B000AFF860B9607A607B6818469B
:1011B0001437BD4680BC704780B485B000AFF8607E
:1011C000B9607A607B6818461437BD4680BC7047AA
:1011D00080B400AFFEE7000080B586B000AF01210B
:1011E00044F20400FFF74CFE4FF40073BB82182357
:1011F000FB750323BB7507F1140319461348FFF76A
:1012000082F94FF48063BB820423FB7507F114035A
:1012100019460E48FFF777F94FF4E1337B6000235E
:101220003B8100237B810023BB8100233B820C2375
:10123000FB813B1D19460648FFF75EFE012104486D
:10124000FFF714FF00BF1837BD4680BD00080140FE
:101250000038014080B582B000AF78607B68DBB2B7
:101260009BB219460748FFF720FF00BF4021054801
:10127000FFF72CFF0346012BF8D17B68184608378F
:10128000BD4680BD0038014080B584B000AF7860B5
:101290000023FB6009E0FB687A6813441B7818465A
:1012A000FFF7D8FFFB680133FB60FB687A681344E3
:1012B0001B78002BEFD100BF00BF1037BD4680BDAB
:1012C00080B487B000AF786000237B6100233B616E
:1012D0000F23FB607B68DB78002B3AD0274BDB6861
:1012E000DB431B0A03F007037B617B69C3F1040343
:1012F0003B61FA687B6922FA03F3FB607B685B78E9
:101300001A463B6902FA03F37B617B689B781A46B5
:10131000FB6813407A6913437B617B691B017B6126
:10132000174A7B681B787969C9B213440A4683F867
:1013300000237B681B7803F01F0311497A68127839
:101340005209D2B21046012202FA03F341F82030CA
:101350000FE07B681B7803F01F0309497A68127855
:101360005209D2B2104601229A4000F1200341F8FE
:10137000232000BF1C37BD4680BC704700ED00E055
:1013800000E100E00EB46FF0004100B59CB01DAB71
:1013900002900690079104910848094953F8042BDC
:1013A0000591006802A9019300F00CF80022029B4D
:1013B0001A701CB05DF804EB03B0704720000020E9
:1013C0000802FFFF2DE9F04FD3B08B4692461E4630
:1013D000814602F021F903681846179302F0FCFEDB
:1013E000BBF80C301290180618D5DBF81030ABB9EA
:1013F0004021484602F014F9CBF80000CBF8100069
:1014000048B90C23C9F800304FF0FF330F930F9801
:1014100053B0BDE8F08F4023CBF8143000250022F4
:101420000023CDE92755CDE91023CDE9195529AC85
:10143000269409950D95159518950F9553461D46BB
:1014400013F8012B0AB1252AF9D1B5EB0A070DD003
:10145000289BC4E900A73B442893279B0133072B13
:10146000279379DC08340F9B3B440F932B78002B98
:1014700001F03A8100234FF0FF32984607920A2785
:101480002B2201358DF87B3013932B4613F8011B6B
:101490000A910E930A9B203B5A2B00F2AC85DFE8A1
:1014A00013F07E00AA05AA058600AA05AA05AA05CA
:1014B0006500AA05AA0589009300AA059000960078
:1014C000AA05B300B600B600B600B600B600B60076
:1014D000B600B600B600AA05AA05AA05AA05AA057F
:1014E000AA05AA052501AA05E300F60025012501A4
:1014F0002501AA05AA05AA05AA05C600AA05AA05E6
:101500008204AA05AA05AA05CD04AA05EE04AA0527
:10151000AA051005AA05AA05AA05AA05AA05AA05ED
:10152000AA05AA052501AA05E300F8002501250161
:101530002501C900F800DD00AA05D600AA055D0452
:101540008404BB04DD00AA05CD047C00F004AA05D8
:10155000AA052F05AA057C005946484626AA02F08E
:1015600056FE002840F02F8129AC7CE7484602F067
:1015700053F843681846189302F02EFE159048461B
:1015800002F04AF883682B220D93159B2BB10D9B1B
:101590001BB11B780BB148F480680E9D75E79DF870
:1015A0007B30002BF9D120238DF87B30F5E748F014
:1015B0000108F2E756F8043B002B1393EDDA5B4287
:1015C000139348F00408E8E78DF87B20E5E70E9DCB
:1015D00015F8013B2A2B0A9313D156F8040B0E95EC
:1015E00040EAE0730793D8E7079907FB01330793B5
:1015F00015F8013B0A930A9B303B092BF4D90E9551
:1016000048E700230793F6E748F08008C5E7002382
:101610000E9D13930A9B1399303B07FB01331393E1
:1016200015F8013B0A93303B092BF3D9E7E748F063
:101630000808B2E70E9B1B78682B01BF0E9B48F48D
:10164000007801330E9318BF48F04008A5E70E9BC1
:101650001B786C2B05D10E9B01330E9348F02008AC
:101660009BE748F0100898E73246002052F8043B08
:101670008DF87B000B928DF8E43001230746064677
:101680000546089007930C900DF1E40AB0E148F08C
:10169000100818F0200F11D0F31D23F007031A468D
:1016A00052F8086B5F680B92002F05DA2D23764203
:1016B00067EB47078DF87B30012387E3334653F808
:1016C000047B18F0100F0B9302D03E46FF17EBE798
:1016D00018F0400F03D03EB247F3C037E4E718F4E8
:1016E000007FF2D07EB247F3C017DDE7073626F061
:1016F00007031946F1E80223CDE91023DDE9106361
:1017000023F000450B914FF0FF32304629463A4B0B
:1017100004F0D2FE18BB4FF0FF3230462946364B5C
:1017200004F0ACFED8B9DDE910010022002304F07A
:101730009BFE10B12D238DF87B30304A30480A9B38
:101740000021472BD4BF924682460323CDE90731BF
:1017500028F0800800273E463B4600F0FFBFDDE949
:1017600010231046194604F0A7FE48B1119B254AE4
:10177000002BB8BF2D232448B8BF8DF87B30DEE79F
:101780000A9B23F02003412B0C9325D130238DF8A5
:101790007C300A9B48F00208612B0CBF7823582349
:1017A0008DF87D30079B632B30DD4846591C01F0D6
:1017B00037FF8246002840F0F781BBF80C3043F039
:1017C0004003ABF80C30BBF80C3013F0400F0F9B0C
:1017D00018BF4FF0FF3319E6079B013300F0E68195
:1017E0000C9B472B40F0E581079B002B40F0E181EB
:1017F0000893012307930CE0FFFFEF7F6E6800085A
:1018000072680008766800087A68000808900DF190
:10181000E40A48F480731493DDE910731D1EAEBF13
:10182000002303F100452D231C930C9B412B40F01A
:10183000D881384620AA294602F08AFC00224FF0BF
:101840007F5304F09FFB0022002306460F4604F05E
:1018500001FE08B101232093AD4BAE4A0A995546CB
:10186000612918BF1A46079B1B92013B099300226E
:10187000A94B3046394604F085FB0F46064604F076
:1018800031FE1D9004F014FB02460B4630463946EB
:1018900004F0C0F91D9A1B9B06469B5C0F4605F899
:1018A000013B099B5A1C169307D0013B0993002268
:1018B000002304F0CFFD0028D9D00022304639465D
:1018C000964B04F0EFFD60B9002230463946934B49
:1018D00004F0C0FD002800F07F811D9BDB0740F174
:1018E0007B8130201B9B2495D97B249A531E249303
:1018F00012F8013C8B4200F05E81392B0BBF1B9B21
:1019000001339B7ADBB202F8013CA5EB0A03099391
:101910000C9B209D472B40F0B181EF1C03DB079B04
:10192000AB4280F2D6810A9B023B0A930A999DF84A
:10193000282021F02001412908BF0F3205F1FF3393
:1019400006BFD2B201210021002B8DF88820B4BF40
:101950002D222B222093B8BFC5F10103092B8DF84E
:10196000892040F3A4810A260DF1970293FBF6F536
:10197000114606FB1530303001F8010C184663287B
:101980002B4602F1FF32F1DC3033881E02F8013CB5
:1019900003460DF18A020DF19705AB42C0F082813A
:1019A0000DF19902521AA84288BF00220DF18A0354
:1019B0001A4422ABD31A099A1993012A13440793A4
:1019C00002DC18F0010F03D0079B129A134407930F
:1019D0000026354628F4806343F4807314930C96F4
:1019E0001C9B13B12D238DF87B300027DDF8508030
:1019F000079BBB42B8BF3B4614939DF87B3013B1A5
:101A0000149B0133149318F002031B931EBF149B05
:101A10000233149318F084031C9321D1DDE91332AF
:101A20009B1A002B16931BDDDDE927231698013244
:101A300010283B4804F10801206000F3EB8216985F
:101A4000072A0344CDE92723606040F3F882594612
:101A5000484626AA02F0DBFB002840F0238629AC8A
:101A60009DF87B3073B10DF17B032360012363602C
:101A7000289B01332893279B0133072B279300F3DF
:101A8000E08208341B9B6BB11FAB236002236360B1
:101A9000289B02332893279B0133072B279300F3BE
:101AA000DA8208341C9B802B21D1DDE913329B1A8A
:101AB000002B16931BDDDDE9272316980132102831
:101AC000184804F10801206000F3CF821698072A15
:101AD0000344CDE92723606040F3DC825946484641
:101AE00026AA02F094FB002840F0DC8529AC079B75
:101AF000FF1A002F28DDDDE927320A48102F03F1F5
:101B0000010304F10801206000F3C6820CE000BF6D
:101B10008F6800087E680008000030400000E03F49
:101B2000A2680008B26800086760072B1744CDE977
:101B3000273740F3C4825946484626AA02F067FB7D
:101B4000002840F0AF8529AC18F4807F289F40F032
:101B5000BD82079BC4F800A01F4463602897279BA1
:101B60000133072B279300F3F682083418F0040F93
:101B700040F07A85DDE913210F9B8A42ACBF9B18A8
:101B80005B180F93289B3BB15946484626AA02F0A2
:101B90003EFB002840F0868500232793089B002BFE
:101BA00040F09C8529ACE4E0089032E606230890DA
:101BB00020E608902DE602F8010C96E603F8010BEA
:101BC000CA1A002AFADA169A169B013203F10103A7
:101BD000B8BF00231D4498E6169A2B463020A9185A
:101BE000EEE70C9B462B05D0452B1BD1079B5E1CBB
:101BF000022301E00323079E24AA049221AA039250
:101C000020AACDE9016200933A462B46484600F0EF
:101C10003BFE0C9B8246472B06D118F0010F03D1E7
:101C2000249D72E6079EE3E70AEB060309930C9BEB
:101C3000462B11D19AF80030302B09D10022002315
:101C40003846294604F006FC10B9C6F10106209674
:101C5000099A209B1A4409920022002338462946FB
:101C600004F0F8FB08B1099B24933022249B0999C6
:101C70009942D5D9591C24911A70F7E70C9B462B31
:101C80007FF454AE079A08F00103002D43EA0203E3
:101C90001ADD002B34D0129BEB181A4407926623EE
:101CA0000A9333E013F8016B02F8016B75E641B952
:101CB00030228DF88A200DF18B02303302F8013B7F
:101CC00077E60DF18A02F8E7E3B1129B079A013338
:101CD000E3E7099B9D4207DB18F0010F2BD0129B15
:101CE000EB1807936723DBE7099B129A002D134437
:101CF0000793F7DC079AC5F101031A440792F1E74D
:101D00000795CCE766230A930123079318F48063B1
:101D10000C9321D00026002D0C967FF761AE0D9B11
:101D20001B78FF2B09D10C9B079A1599334401FBB3
:101D30000323079354E60795D4E7AB42F3DAED1A91
:101D40000D9B5B7833B10C9B01330C930D9B0133DE
:101D50000D93E4E70136E2E70C9E41E6331D18F0EF
:101D6000200F0B930AD00F9A33680F99D217C3E94B
:101D700000120B9EDDF838A0FFF760BB18F0100FC3
:101D800003D033680F9A1A60F3E718F0400F03D0BE
:101D900033680F9A1A80ECE718F4007FF1D03368AB
:101DA0000F9A1A70E5E748F0100818F0200320D0C9
:101DB000F31D23F007031A4652F8086B5F680B9275
:101DC000002328F4806800228DF87B20079A0132D6
:101DD00000F0958428F08002089256EA070240F04D
:101DE0009484079A002A00F0FB80012B40F0908435
:101DF0009FE0324652F8046B18F010070B9201D0A6
:101E00001F46DDE718F0400301D0B6B2D8E718F45A
:101E10000077D5D0F6B2F3E7334653F8046B782257
:101E20000B9330238DF87C30A64B00271A9348F093
:101E3000020802238DF87D200A92C4E7334600256C
:101E400053F804AB8DF87B500B93079B581C10D0B4
:101E50001A462946504601F01FFE0890002800F05F
:101E6000D680A0EB0A032F462E46CDE907350C9508
:101E7000BEE5504602F0B0F9CDE907056AE448F046
:101E8000100818F0200309D0F31D23F007031A46A9
:101E900052F8086B5F680B92012394E7324652F8C0
:101EA000046B18F010070B9201D01F46F4E718F0EE
:101EB000400301D0B6B2EFE718F40077ECD0F6B2E9
:101EC000F3E7814B1A9318F020031BD0F31D23F086
:101ED00007031A4652F8086B5F680B9218F0010F5F
:101EE0000AD056EA070307D030238DF87C300A9BCE
:101EF00048F002088DF87D30022328F4806862E7FC
:101F0000704BDFE7324652F8046B18F010070B9263
:101F100001D01F46E2E718F0400301D0B6B2DDE77A
:101F200018F40077DAD0F6B2F3E70A2E77F100035F
:101F300006D230368DF847610DF2471A00F004BC26
:101F400000230993089B52AD03F480680A22002302
:101F50003046394604F0EEFA099B3032013305F180
:101F6000FF3A05F8012C0993B8F1000F19D00D9B29
:101F7000099A1B789A4214D1FF2A12D00A2E77F1BF
:101F800000030ED3159B1899AAEB030A1A46504674
:101F900002F02AF90D9B5D7895B101330D93002372
:101FA000099300230A223046394604F0C3FA0A2E68
:101FB00077F10003C0F0C88306460F465546C5E7D3
:101FC0000995EEE71A9A06F00F03D35C360946EA44
:101FD00007763F090AF8013D56EA0703F2D1B3E359
:101FE00033B918F0010F03D030238DF84731A3E740
:101FF0000DF5A47AA8E30A9B002B00F0758300205E
:102000008DF8E4308DF87B000B96FFF736BB089F08
:10201000FFF7A1BB1020072A0344CDE92723606006
:1020200008DD5946484626AA02F0F1F8002840F09B
:10203000398329A9169B0C46103B1693F4E40C46F1
:102040000EE55946484626AA02F0E1F8002840F07D
:10205000298329AC16E55946484626AA02F0D7F846
:10206000002840F01F8329AC1CE51020072A0344F8
:10207000CDE92723606008DD5946484626AA02F0CC
:10208000C6F8002840F00E8329A9169B0C46103B89
:10209000169310E50C462AE51020072B0244CDE9E3
:1020A0002732606008DD5946484626AA02F0AFF89C
:1020B000002840F0F78229A90C46103F1BE50C468A
:1020C00042E500BF7E6800088F6800080A9B652B08
:1020D00040F33082DDE910010022002304F0BAF958
:1020E000002868D06D4B236001231F446360279B49
:1020F00028970133072B279337DC0834209B099A54
:10210000934203DB18F0010F3FF430AD179B129A96
:102110002360129B6360289B13442893279B013301
:10212000072B27932BDC0834099B5D1E002D7FF7BE
:102130001DAD10275A4E102DDDE9273204F108019C
:1021400003F10103266024DC6560072B1544CDE90B
:10215000273540F386825946484626AA02F057F8AA
:10216000002840F09F8229AC00E55946484626AA3F
:1021700002F04DF8002840F0958229ACBEE75946A0
:10218000484626AA02F043F8002840F08B8229AC8A
:10219000CAE71032072BCDE92732676008DD5946C0
:1021A000484626AA02F033F8002840F07B8229A98D
:1021B0000C46103DBFE7209B002B73DC374B2360A0
:1021C00001231F446360279B28970133072B279324
:1021D0003DDC08340999209A289B0A4308F0010144
:1021E0000A433FF4C3AC179A2260129A134428930F
:1021F000279B62600133072B279332DC0834209D34
:10220000002D1BDA23461027254E6D42102DDDE9E7
:10221000272104F1080402F101021E602BDC5D603D
:10222000072A0D44CDE9272508DD5946484626AA48
:1022300001F0EDFF002840F0358229AC099B099A96
:102240006360289BC4F800A01344289387E4594690
:10225000484626AA01F0DBFF002840F0238229AC83
:10226000B8E75946484626AA01F0D1FF002840F0B9
:10227000198229ACC3E71031072ACDE927215F6015
:1022800008DD5946484626AA01F0C1FF002840F063
:10229000098229AC2346103DB8E700BFA0680008BA
:1022A000B2680008099BAB42A8BF2B46002B0793DE
:1022B0000ADD1F44C4E900A3279B28970133072B9D
:1022C000279300F385800834079B002BB4BF2F466B
:1022D000EF1A002F19DDDDE927329548102F03F1A1
:1022E000010304F1080120607CDC6760072B1744C0
:1022F000CDE9273740F389805946484626AA01F0A0
:1023000086FF002840F0CE8129AC18F4806F554438
:1023100009D00C9B002B7AD1002E7AD1099B534413
:102320009D4228BF1D46209B099A934202DB18F06C
:10233000010F0ED0179B129A2360129B6360289B9B
:1023400013442893279B0133072B279300F3DB804B
:102350000834099B209E0AEB03029E1B521B9642E7
:10236000A8BF1646002E0BDD289BC4E90056334457
:102370002893279B0133072B279300F3CE80083443
:10238000209D099B002EA3EB0505A8BFAD1B002DCA
:102390007FF7ECAB1027664E102DDDE9273204F1F4
:1023A000080103F1010326607FF7CEAE1032072B40
:1023B000CDE92732676008DD5946484626AA01F074
:1023C00026FF002840F06E8129A90C46103DE3E766
:1023D0005946484626AA01F01AFF002840F06281BB
:1023E00029AC71E71020072B0244CDE92732606049
:1023F00008DD5946484626AA01F009FF002840F0AA
:10240000518129A90C46103F65E70C467DE7002E57
:1024100049D0013E189B159A2360159B6360289B49
:1024200013442893279B0133072B279342DC08345E
:10243000099B0D9A534412785B1B9A42A8BF1A4617
:10244000002A07920ADD289BC4E90052134428930E
:10245000279B0133072B279336DC08340D9B1F780D
:10246000079B002BA8BFFF1A002F18DDDDE92732DC
:102470002F48102F03F1010304F1080120602DDC27
:102480003A44072BCDE9273267603ADD5946484682
:1024900026AA01F0BCFE002840F0048129AC0D9B67
:1024A0001B781D4435E70D9B013B0D930C9B013BB5
:1024B0000C93AFE75946484626AA01F0A8FE00282B
:1024C00040F0F08029ACB3E75946484626AA01F00F
:1024D0009EFE002840F0E68029ACBFE71020072BC5
:1024E0000244CDE92732606008DD5946484626AAF5
:1024F00001F08DFE002840F0D58029A90C46103F40
:10250000B4E70C46CBE75946484626AA01F07FFEC1
:10251000002840F0C78029AC1BE75946484626AA48
:1025200001F075FE002840F0BD8029AC28E700BF0F
:10253000B2680008099A279B012A07F1010703F1F5
:10254000010304F1080502DC18F0010F7ED001221E
:10255000072BCDE92737C4F800A0626008DD594693
:10256000484626AA01F053FE002840F09B8029AD82
:10257000179B129A2B60129B6B60289B1344289325
:10258000279B0133072B279332DC0835099B002258
:10259000DDE910015C1E002303F05CFF002830D150
:1025A0002799289B099A0131013B0AF10100134444
:1025B0000729C5E90004CDE9271350DD59464846EF
:1025C00026AA01F024FE00286CD129AD22AB2B6095
:1025D000199B199A6B60289B13442893279B0133FE
:1025E000072B27933FF7B7AD05F10804FFF7BEBAF5
:1025F0005946484626AA01F00AFE002852D129ADC4
:10260000C4E7002CE2DD1027564E102CDDE92732FE
:1026100005F1080103F101032E6007DC6C60072B54
:102620001444CDE92734C9DC0D46CFE71032072B1F
:10263000CDE927326F6006DD5946484626AA01F0EB
:10264000E6FD78BB29A90D46103CDEE70122072BE9
:10265000CDE92737C4F800A06260B7DDAEE70835E2
:10266000B4E70C46FFF782BADDE913329D1A002D5C
:102670007FF780AA10273C4E102DDDE92732266017
:1026800003F1010318DC6560072B1544CDE92735FC
:102690007FF770AA5946484626AA01F0B8FD0028DF
:1026A0003FF468AA089B002B3FF48DA819464846C2
:1026B00000F0F2FEFFF787B81032072BCDE9273282
:1026C000676002DC0834103DD6E75946484626AA22
:1026D00001F09DFD0028E5D129ACF4E748460899B2
:1026E00000F0DAFEFFF75EBA289B002B3FF46BA8E0
:1026F0005946484626AA01F08AFDFFF764B856EA13
:102700000702CDF820803FF470AB012B3FF40DACF5
:10271000022B0DF5A47A3FF455AC06F00703F6083A
:1027200046EA4776FF08303356EA070152460AF870
:10273000013DF2D10899C90706D5302B04D03023CA
:102740000AF8013CA2F1020A52ABA3EB0A03079F6D
:10275000079300231E46DDF8208008931D460C9346
:10276000FFF746B9B2680008A26800082DE9F74FE4
:1027700003690C690746A342C0F28280013C00F164
:10278000140501F1140805EB8403019358F8243073
:1027900055F8242001339A42B2FBF3F64FEA840B3A
:1027A00008EB840931D34FF0000E4046AC46F246A8
:1027B00050F8042B93B206FB03E3120C4FEA134EBE
:1027C0009BB206FB02E2AAEB0303DCF800A04FEA8F
:1027D000124E1FFA8AFA5344DCF800A092B2C2EB00
:1027E0001A4202EB23429BB243EA024381454FEA7D
:1027F000224A4CF8043BDBD255F80B302BB9019B35
:10280000043B9D421A462FD33C61384601F09CFBA5
:10281000002825DB28464FF0000C013658F8041B31
:10282000D0F800E08BB2ACEB03031FFA8EF2134436
:102830000A0CC2EB1E4202EB23429BB243EA024364
:10284000C1454FEA224C40F8043BE7D255F824201A
:1028500005EB840322B9043B9D421A460AD33C612E
:10286000304603B0BDE8F08F1268043B002ACBD19C
:10287000013CC6E71268043B002AF0D1013CEBE7BB
:102880000020EEE7000000002DE9F04F016C97B04A
:10289000814614461D4692469B46239E49B101231C
:1028A000426C93408B604A6001F043F90023C9F801
:1028B00040302B1EADBF0023012223F0004B3360BC
:1028C0009F4BB8BF326033EA0B0319D142F20F734A
:1028D000229A1360CBF31303234300F07485249BE7
:1028E0000BB9984B20E0974B04930333249A136061
:1028F000049817B0BDE8F08F934B04930833F5E7C5
:102900000022002350465946CDE90CAB03F0A2FD4E
:10291000074658B10123229A1360249B002B00F034
:102920004F858A481860431E0493E1E714AB019376
:1029300015AB00934846DDE90C2301F0ADFBCBF36A
:102940000A560390002E7CD0DDE90C010D9BA6F207
:10295000FF36C3F3130343F07F5141F44011139743
:1029600000227B4B03F056F96FA3D3E9002303F059
:1029700009FB6FA3D3E9002303F04EF90446304668
:102980000D4603F095FA6CA3D3E9002303F0FAFA9D
:1029900002460B462046294603F03EF904460D4602
:1029A00003F0A0FD0022804600232046294603F0C4
:1029B0005BFD48B1404603F07BFA22462B4603F00C
:1029C00049FD08B908F1FF38B8F1160F56D8DDE90E
:1029D0000C01604B03EBC803D3E9002303F044FD73
:1029E00000284DD0002308F1FF380F93149B9E1B45
:1029F000731E099349BFC6F1010300230693002308
:102A000054BF06930993B8F1000F3BDB099BCDF847
:102A100038804344099300230A93209B092B6BD8E9
:102A2000052BC4BF043B2093209BC8BF0024A3F107
:102A30000203D8BF0124032B69D8DFE803F02D3A45
:102A4000385BDDE914631E4406F23243202BC3BF1A
:102A5000C3F1400306F212400BFA03F3C3F1200363
:102A6000C6BF24FA00F0184304FA03F003F010FA8A
:102A70000123A1F1F871013E139371E70123B4E73B
:102A80000F90B3E7069BA3EB08030693C8F100037E
:102A90000A9300230E93C0E700230B93219B002B86
:102AA00038DC01231A460893059321920BE0012399
:102AB000F3E700230B93219B434408930133012B3D
:102AC0000593B8BF01230022C9F84420042202F173
:102AD00014009842D9F8441020D9484601F004F86F
:102AE000049000283CD102464FF4D5711A4B1B4884
:102AF00001F016FC0123DDE7012400230B94209351
:102B00004FF0FF330022089305931223CDE70123F2
:102B10000B93F5E7219B08930593D4E70131C9F89E
:102B200044105200D3E700BF61436F63A787D23FD1
:102B3000B3C8608B288AC63FFB799F501344D33FAC
:102B40000000F07FC2680008C6680008A16800089D
:102B50000000F83FC0690008CF680008E06800087E
:102B6000049BC9F84030059B0E2B00F2A180002C7D
:102B700000F09E80B8F1000F34DD964A08F00F0394
:102B800002EBC30318F4807FD3E900344FEA281521
:102B9000CDE9103416D0DDE90C018F4B0326D3E9C3
:102BA000082303F019FB82468B4605F00F058A4C7B
:102BB00055B9DDE910235046594603F00DFB824616
:102BC0008B4628E00226F2E7E90708D5DDE9100187
:102BD000D4E9002303F0D6F9CDE9100101366D10D8
:102BE0000834E5E700F09E80DDE90C01C8F100043F
:102BF000784B04F00F0203EBC203D3E9002303F088
:102C0000C1F9022682468B460023734D2411002C05
:102C10007DD1002BD3D10F9B002B00F085800022AB
:102C2000504659466D4BCDE910AB03F01DFC002812
:102C30007AD0059B002B77D0089B002B36DD5046C1
:102C400059460022664B03F09DF982468B46089C4C
:102C500008F1FF350136304603F02AF952465B464B
:102C600003F090F900225F4B02F0D6FFA1F15076FD
:102C7000CDE910011196002C59D100225046594639
:102C8000594B02F0C7FF3346109A82468B4603F039
:102C900009FC002840F08B8250465946109A06F1F4
:102CA000004303F0E1FB002840F07F82DDE90CAB3C
:102CB000159B002BC0F24D81B8F10E0F00F3498136
:102CC000444B03EBC803D3E90034CDE90634219B20
:102CD000002B80F2D680059B002B00F3D28040F0C1
:102CE0006382DDE9060100223F4B03F04BF95246B7
:102CF0005B4603F0CDFB059C2546002840F03C8256
:102D00003123049E08F1010806F8013B38E2E2078E
:102D100005D5D5E9002303F035F901230136641008
:102D2000083574E7022676E74546059C93E7049943
:102D3000284B214412910B9903EBC403DDE9106782
:102D400053E90223002953D00020284903F044FA14
:102D500032463B4602F05EFFCDE91001049E594623
:102D6000504603F0BFFB044603F0A2F802460B46B0
:102D70005046594602F04EFFDDE91023303406F884
:102D8000014B82468B4603F06FFB002871D15246FF
:102D90005B460020114902F03DFFDDE9102303F0FE
:102DA00063FB002840F0B780129B9E423FF47EAF49
:102DB000DDE9100100220A4B03F0E4F80022CDE91E
:102DC0001001074B5046594603F0DCF882468B460B
:102DD000C5E700BFC0690008986900080000F03F1F
:102DE0000000244000001C40000014400000E03FB0
:102DF0003046394603F0C6F8CDE91001129F049E13
:102E00005946504603F06EFB044603F051F8024663
:102E10000B465046594602F0FDFE3034129B06F830
:102E2000014B9E4282468B464FF0000223D1DDE9E2
:102E30001001AF4B02F0F0FE02460B4650465946D9
:102E400003F030FB002866D1DDE910230020A849FB
:102E500002F0E0FE02460B465046594603F004FBE2
:102E600000283FF423AF3E4616F8013C013F302BCB
:102E7000F9D0A8463EE09F4B03F084F882468B468B
:102E8000BEE754464FF0000A5D46049EDFF864B288
:102E9000DDE906232046294603F09EF903F022FBD4
:102EA000074603F005F8DDE9062303F06BF8024658
:102EB0000B462046294602F0ADFE07F1300406F825
:102EC000014B049C059D341BA54202460B4633D1A1
:102ED00002F0A2FEDDE9062304460D4603F0E2FA05
:102EE000C0B9DDE906232046294603F0B3FA08B14C
:102EF000FB070FD44846039900F01BFE00233370F4
:102F0000229B08F101001860249B002B3FF4F0ACD9
:102F10001E60EDE4454633461E4613F8012D392A5E
:102F200006D1049A9A42F7D13022049901350A70E9
:102F30001A7801321A709CE752465B4603F022F879
:102F40000022002304460D4603F084FA00289FD097
:102F5000D0E70B9A002A00F0CF80209A012A00F3D4
:102F6000AD80139A002A00F0A58003F233430A9C37
:102F7000069E069A01211A440692099A48461A4466
:102F8000099200F073FE0546002E0CDD099B002B14
:102F900009DDB342A8BF3346069AF61AD21A069242
:102FA000099AD31A09930A9BF3B10B9B002B00F0EB
:102FB000A780002C10DD29462246484600F014FF69
:102FC000039A01460546484600F066FE0746039907
:102FD000484600F0AEFD03970A9B1A1B04D04846F2
:102FE000039900F001FF03900121484600F03EFEE6
:102FF0000E9B0446002B40F385801A460146484646
:1030000000F0F2FE209B0446012B7EDD00272369A1
:1030100004EB8303186900F0DBFDC0F12000099B7D
:10302000184410F01F0000F08E80C0F12003042B24
:1030300040F38780C0F11C00069B064403440693BE
:10304000099B03440993069B002B05DD1A4648465D
:10305000039900F009FF0390099B002B05DD214631
:103060001A46484600F000FF04460F9B002B6CD028
:103070002146039800F068FF002866DA00230A2240
:103080004846039900F05EFD0B9B08F1FF38039062
:10309000002B00F09F81002329460A22484600F0B9
:1030A00051FD089B0546002B00F38A80209B022BD4
:1030B00053DC85E0149BC3F1360358E7059B5C1E87
:1030C0000A9BA342B7BF0A9B1C1BE21A0E9BBEBF02
:1030D0000A949B180E93059BB8BF0024002BB7BF22
:1030E000DDE90523DDE905369E1A002341E700BF2F
:1030F0000000E03F000024400A9C069E0B9D43E731
:103100000A9A6CE7209B012B17DCBAF1000F14D14F
:10311000CBF313039BB92BF000473F0D3F0537B1AD
:103120000127069B01330693099B013309930E9BEC
:10313000002B7FF46CAF012071E70027F7E75746BB
:10314000F5E780D018461C3076E7059B002B31DC74
:10315000209B022B2EDD059B0893089B63B921461B
:103160000522484600F0EEFC01460446039800F0B4
:10317000EBFE00283FF7C4AD219B049E6FEA0308D5
:1031800000272146484600F0D4FC002D3FF4B2AEA3
:103190002FB1AF4203D03946484600F0CAFC294659
:1031A000484600F0C6FCA5E600242546E4E7A8460C
:1031B0002546A5E50B9B002B00F0C480059B0893DA
:1031C000002E05DD29463246484600F04DFE0546F4
:1031D000002F58D04846696800F086FC064620B9A2
:1031E000024640F2EA217F4B81E42A6905F10C0195
:1031F000023292000C3000F05DFC0122314648465C
:1032000000F032FE2F460546049B049A01330593D5
:10321000089B13440A930AF001030993059B214676
:10322000039803F1FF3BFFF7A1FA3946069000F13E
:10323000300A039800F088FE2A4608902146484646
:1032400000F09EFEC2680646FAB90146039800F0F7
:103250007BFE0246314648460B9200F06AFC209BFA
:103260000B9A059E43EA0201099B0B430FD1BAF169
:10327000390F28D0089B002B02DD069B03F1310A91
:103280008BF800A07DE72846BCE70122E2E7089B17
:10329000002B04DB20990B4309990B4320D1002A12
:1032A000EEDD01220399484600F0DEFD2146039041
:1032B00000F04AFE002803DCE2D11AF0010FDFD053
:1032C000BAF1390FD9D139238BF8003033461E4675
:1032D00016F8012C013B392A6AD001321A7050E7E6
:1032E000002A07DDBAF1390FEDD00AF101038BF89E
:1032F000003046E7059B0A9A03F801AC934241D09F
:1033000000230A220399484600F01CFCAF420390B8
:103310004FF000034FF00A023946484607D100F04B
:1033200011FC07460546059B0133059376E700F03F
:1033300009FC2946074600230A22484600F002FC01
:103340000546F0E7059B0893049E21460398FFF786
:103350000DFA049B00F1300A06F801ABF21A089B43
:10336000934207DD00230A224846039900F0EAFB56
:103370000390EAE7089B0027002BCCBF1E460126DE
:10338000049B1E4401220399484600F06DFD21462E
:10339000039000F0D9FD002898DC02D11AF0010F4B
:1033A00094D133461E4613F8012D302AFAD0E8E6B0
:1033B000049A9A428BD1312308F101081370E0E698
:1033C000094BFFF7B1BA249B002B7FF495AA074B5A
:1033D000FFF7AABA089B002BB6DC209B022B3FF715
:1033E000BCAEB1E7CF680008A0680008C668000856
:1033F0002DE9F041064608200C4600F083FF804688
:10340000224F304600F064FBBB685D6825F0030581
:103410002C1B113C4444B4FBF8F4013C08FB04F4BD
:10342000A04505DD304600F059FB0020BDE8F081E5
:103430000021304600F0C0FEBB682B449842F1D119
:103440003046614200F0B8FE013010D10021304614
:1034500000F0B2FEBA68831A0F2BE3DD0C4943F08B
:10346000010309685360401A0A490860DAE7BB683B
:10347000084A2D1B45F001055D60136830461B1B93
:10348000136000F02BFB0120D0E700BF50040020A8
:1034900058080020540A0020F8B505460F460029B8
:1034A00000F0B18000F014FB57F8042C564822F0CD
:1034B0000104A7F1080303EB040C8168DCF8046045
:1034C000614526F0030602F001021BD134443AB9EB
:1034D00057F8082C9B1A1444D3E90212CA60916071
:1034E00044F001025A608360484B1B68A34204D831
:1034F000474B28461968FFF77BFF2846BDE8F84090
:1035000000F0ECBACCF80460002A38D157F8081C57
:1035100000F108075B1A0C449968B94231D0DF68A2
:10352000CF60B9600CEB06014968C9070BD4DCF821
:10353000081034443ABB374EB14224D10122C0E9CD
:103540000433C3E9021144F0010159601C51002AFF
:10355000D3D1B4F5007F1BD26109E20801248C406D
:10356000416801320C43446000EBC20150F8324024
:103570000839C3E9024140F83230E360BDE7002278
:10358000D0E70122CEE7DCF80C60CE60B160DAE76C
:10359000B4F5206F4FEA542214D2A2093832511CDC
:1035A00050F8311000EBC2068E4225D10124921052
:1035B00004FA02F2446822434260C3E90216B3608F
:1035C000CB609AE7142A01D85B32E8E7542A02D884
:1035D000220B6E32E3E7B2F5AA7F02D8E20B773214
:1035E000DDE740F254518A4296BFA20C7E227C3223
:1035F000D5E789688E4204D04A6822F00302A242CD
:10360000F7D8CE68D9E7F8BD500400205C08002048
:10361000840A002058040020004870475009002008
:1036200001F10B03162B2DE9F74F054606D933F0B0
:10363000070704D50C232B600024A3E11027B9420F
:10364000F8D8284600F044FAB7F5FC7FAF4E37D2E1
:1036500007F1080232445468A2F108018C424FEA93
:10366000D70302D1D468A24210D06368D4E9021211
:1036700023F00303CA60234491605A6842F00102B8
:103680005A60284600F02AFA08347BE10233346994
:103690009F498C4277D0626822F0030CACEB0700A4
:1036A0000F2848DDE21940F0010347F00107676089
:1036B000C6E90422C2E90211536044F80C00E0E7B5
:1036C0007B0A2AD0042B12D8BB0938335A1C06EBCC
:1036D000C2025468A2F1080C644506D0626822F068
:1036E0000302D01B0F281CDD013B0133CFE7142B55
:1036F00001D85B33EAE7542B02D83B0B6E33E5E786
:10370000B3F5AA7F02D8FB0B7733DFE740F25452C0
:10371000934204D8BB0C7C33D8E73F23D6E77E2303
:10372000D4E70028E16804DBA368D9608B60A318A4
:10373000A3E70C46D0E70028C6E9041107DBA44440
:10374000DCF8043043F00103CCF8043099E7BCF511
:10375000007F706880F094804FEADC024FEA5C1EC4
:103760004FF0010C0CFA0EFC4CEA0000013256F846
:1037700032C0706006EBC2000838C4E902C046F8E7
:103780003240CCF80C4001209A1000FA02F2706826
:10379000904226D3104206D123F003035200104278
:1037A00003F10403FAD006EBC308C1469E46D9F8DC
:1037B0000C404C4540F0B8800EF1010E1EF0030F96
:1037C00009F10809F3D1980740F0E280736823EA11
:1037D0000203736070685200904202D3002A40F0E6
:1037E000E380D6F808A0DAF8043023F00309B945DD
:1037F00004D3A9EB07020F2A00F34181454B0820AF
:1038000019680AEB090B10313944019100F07AFD77
:10381000414A01991368804601331FBF01F1FF310E
:103820000918434219402846019100F0C5FC421C8A
:10383000044600F0F78083450199374A02D9B24522
:1038400040F0F080354BA345186808F1FF3C084470
:10385000186040F0AB801BEA0C0F40F0A780B26804
:10386000494441F0010151602D4A1B6811688B42A7
:1038700088BF13602B4A11688B4288BF1360D1E068
:10388000BCF5206F4FEA5C2218D24FEA9C12383206
:1038900002F1010E56F83EE006EBC208F0452BD1CE
:1038A0004FF0010C92100CFA02F210437060C4E960
:1038B00002E8C8F80840CEF80C4064E7142A01D8A2
:1038C0005B32E5E7542A03D84FEA1C326E32DFE759
:1038D000B2F5AA7F03D84FEADC327732D8E740F25C
:1038E000545E724596BF4FEA9C427E227C32CFE7FF
:1038F000DEF808E0F04505D0DEF8042022F00302EF
:103900006245F5D8DEF80C80D1E700BF50040020F6
:1039100058040020840A002058080020540A00207F
:103920007C0A0020800A00206068D4F80CC020F0D7
:103930000300A0EB070ABAF10F0F12DDA368E2192A
:1039400047F001076760C3F80CC0CCF808304AF0B4
:103950000103C6E90422C2E90211536044F800A041
:103960008FE6BAF1000F11DB2044436843F00103F6
:10397000436054F8083F2846C3F80CC0CCF8083020
:1039800000F0ACF8204603B0BDE8F08F644610E7C5
:1039900058F80809013B40453FF415AF1AE70433D6
:1039A00052001042FBD0FEE67346FAE7D2F800E080
:1039B000BEF1FF3F1BBFA4EB0B0B0BEB000214602F
:1039C0001A6014F0070B0EBF5846CBF108002418FC
:1039D000621802EA0C018044A8EB010808EA0C080E
:1039E00041462846019200F0E7FB431C019A294B0F
:1039F00007D1BBF1000F23D04FF00008ABF1080056
:103A000010441A68001B4044424440F00100B24593
:103A1000B4601A6060603FF427AFB9F10F0F12D89D
:103A200001236360B3685B6823F00303BB42A3EB2D
:103A3000070201D30F2A22DC284600F04FF8FBE5ED
:103A40001046D846DDE70521DAF80420A9F10C0973
:103A500029F0070902F0010242EA0902CAF804202B
:103A6000B9F10F0F0AEB0902C2E901117FF6FCAEB2
:103A700028460AF10801FFF70FFD064BF4E6B4688B
:103A800047F0010342F0010227446360B7607A60A7
:103A9000F7E500BF540A0020034610B5C9B202443E
:103AA0009342184601D1002003E0047801338C4290
:103AB000F6D110BD0A44914200F1FF3300D17047A6
:103AC00010B511F8014B914203F8014FF9D110BD27
:103AD000014800F099BC00BF880A0020014800F0AE
:103AE00094BC00BF880A0020C36C70B505460C4624
:103AF0007BB1EB6C53F82400A0B9012101FA04F664
:103B0000721D2846920000F029FC48B1C0E9014628
:103B10000BE02122042100F021FCE8640028E8D118
:103B2000002070BD026843F824200023C0E903335D
:103B3000F7E731B1C36C4A6853F82200086043F8D4
:103B4000221070472DE9F04107460C461E46002022
:103B50000D6901F1140CDCF80030013099B202FB60
:103B600001611E0C0B0C02FB063389B201EB034111
:103B700085424FEA13464CF8041BECDC0EB3A368F5
:103B8000AB4219DC616838460131FFF7ADFF804672
:103B900028B90246B5210C4B0C4800F0C1FB226944
:103BA00004F10C01023292000C30FFF783FF214632
:103BB0003846FFF7BEFF444604EB850301355E61DE
:103BC00025612046BDE8F081CF6800083B69000808
:103BD000020C12040346CAB90304102013F07F4FED
:103BE00004BF1B02083013F0704F04BF1B010430E8
:103BF00013F0404F04BF9B000230002B05DB13F095
:103C0000804F00F1010008BF202070470020E5E749
:103C10000368024613F007000BD0D90721D4980798
:103C200049BF5B089B08012013605CBF0220136042
:103C3000704799B209B910201B0CD9B209B90830E4
:103C40001B0A190704BF1B090430990704BF9B080E
:103C50000230D90703D45B0800F1010003D01360E0
:103C600070470020704720207047000010B50C46B8
:103C70000121FFF739FF024628B94FF4A071044B28
:103C8000044800F04DFB01234461036110BD00BFF7
:103C9000CF6800083B6900082DE9F04F91460A699A
:103CA000D9F810300C469A42BEBF0B464C46994696
:103CB0002769D9F810A0A368616807EB0A06B34228
:103CC00085B0B8BF0131FFF70FFF30B9024640F2AF
:103CD0005D11434B434800F023FB00F114052B46D4
:103CE000002205EB8608434521D304F1140303EBBE
:103CF000870709F1140303EB8A0202923A1B153A73
:103D000022F00302043204F115018F4238BF04226D
:103D10000192029A03939A420CD8002E03DD58F8C0
:103D2000043D002B59D0066105B0BDE8F08F43F883
:103D3000042BD8E7B3F800A0BAF1000F23D0A946AE
:103D40004FF0000C04F1140E5EF8042BD9F80010AB
:103D50001FFA82FB89B20AFB0B116144D9F800C03B
:103D6000120C4FEA1C4C0AFB02C202EB114289B250
:103D700041EA024177454FEA124C49F8041BE3D867
:103D8000019A45F802C0039A0433B2F80290B9F1DF
:103D9000000F20D0AE464FF0000A296804F1140C41
:103DA000BCF800B0BEF8022089B209FB0B22924495
:103DB00041EA0A414EF8041B5CF8042BBEF80010DF
:103DC000120C09FB0211674501EB1A414FEA114A37
:103DD000E6D8019AA95004359BE7013E9DE700BF54
:103DE000CF6800083B6900082DE9F843154612F03A
:103DF000030206460F4607D01A4C013A002354F836
:103E00002220FFF79FFE0746AD1027D0B46C44B9BF
:103E100040F271213046FFF729FF00230446B064C9
:103E200003604FF00009EB070AD5394622463046B9
:103E3000FFF732FF804639463046FFF77AFE4746A5
:103E40006D100BD0206838B9224621463046FFF766
:103E500023FF2060C0F800900446E4E73846BDE840
:103E6000F88300BF886A00082DE9F0470C46074632
:103E700091462369496803EB6218A3684FEA621A06
:103E800008F10106B3420BDB3846FFF72DFE05466D
:103E900048B9024640F2D911294B2A4800F040FAAD
:103EA00001315B00EEE7002300F1140100F1100284
:103EB0001846534537DB20692AEAEA7A04F11403ED
:103EC00019F01F0901EB8A0103EB80002FD08A460D
:103ED0004FF0000CC9F1200E1A6802FA09F242EA0A
:103EE0000C024AF8042B53F8042B984222FA0EFCD9
:103EF000F2D8031B153B23F00303043304F115022E
:103F0000904238BF042341F803C0BCF1000F01D038
:103F100008F10206013E384621462E61FFF709FEF0
:103F20002846BDE8F08742F8040F0133C1E70439A1
:103F300053F8042B984241F8042FF9D8EAE700BF60
:103F4000CF6800083B69000803460A69006930B57C
:103F5000801A0DD11433143103EB820401EB82017A
:103F600054F8045D51F8042D954202D004D3012089
:103F700030BDA342F4D3FBE74FF0FF30F8E7000079
:103F80002DE9F84F0D460746114628461446FFF71F
:103F9000DBFF061E11D131463846FFF7A5FD02466C
:103FA00028B940F232213A4B3A4800F0B9F90123DE
:103FB000C0E904361046BDE8F88FA4BF23462C465E
:103FC00038466168A6BF1D4600260126FFF78CFD16
:103FD000024618B94FF410712D4BE5E702F11408B1
:103FE000C2464FF0000C2769C6602E6904F1140028
:103FF00005F1140900EB870E09EB8606103454F81E
:1040000004BF59F8043B1FFA8BF18C4499B21B0C86
:10401000ACEB0101C3EB1B4303EB214389B24FEA35
:10402000234C4E4541EA03434AF8043BE7D8731B4F
:10403000153B23F0030315350433AE4238BF042388
:10404000184443441E46054675450ED30EF1030140
:10405000091A21F003010338864538BF00211944AD
:1040600051F8043D8BB11761A4E755F8048B1FFA92
:1040700088F161440C1404EB184489B241EA04410C
:104080004FEA244C46F8041BDEE7013FE8E700BF97
:10409000CF6800083B6900082DE9F3410121DDE903
:1040A000087690461D46FFF71FFD044630B90246CC
:1040B00040F20A31244B254800F032F9C5F31303CE
:1040C000C5F30A552DBB0193B8F1000326D068460D
:1040D0000093FFF79DFD0099F0B1019AC0F1200314
:1040E00002FA03F30B43C24063610192019B002B70
:1040F00014BF02210121A3612161C5B1A5F233459D
:104100000544C0F135003D603060204602B0BDE896
:10411000F08143F48013D6E76161E7E701A8FFF778
:1041200077FD0121019B216163612030E5E704EB0C
:104130008103A0F2324038601869FFF749FDC0EBF7
:1041400041113160E1E700BFCF6800083B6900081A
:10415000F8B5174600223A60144A21F0004696420C
:1041600004460D460B461EDC024632431BD0104A65
:104170000A4052B900220F4B01F004FF6FF03502E4
:1041800004460B4621F000463A603A68361523F0A3
:10419000FF43A6F2FE3623F4E003164443F07F55B6
:1041A0003E6045F4001520462946F8BDFFFFEF7F2D
:1041B0000000F07F0000504338B50023054D044651
:1041C00008462B60FCF79EFF431C02D12B6803B10D
:1041D000236038BD8C0A0020034613F8012B002A07
:1041E000FBD1181A01387047034610B5013932B1B6
:1041F00011F8014F013A03F8014B002CF7D10021CF
:104200001A44934200D110BD03F8011BF9E79368EB
:104210002DE9F74F80460C461746002B61D000234E
:104220009B46D2F800A00193BBF1000F2BD0A668EB
:104230005E4544D8A28912F4906F3ED0206821696F
:104240006569A0EB010905EB450505EBD57509F19D
:1042500001006D105844854238BF0546530545D5C9
:1042600029464046FFF7DCF90646A0B90C23C8F8FA
:104270000030A3894FF0FF3043F04003A3810023B7
:10428000C7E901332FE0DAF80030DAF804B001931F
:104290000AF1080AC8E74A462169FFF70BFCA28920
:1042A00022F4906242F08002A28126614E44266090
:1042B0005E466561A5EB0905A5605E4500D95E46D1
:1042C00032460199206800F0B3F8A268921BA26000
:1042D000226832442260BA68A2EB0B03BB60002B59
:1042E000D1D10020786003B0BDE8F08F2A46404667
:1042F00000F0C0F806460028D7D140462169FFF7F4
:10430000CBF8B3E7082808B506D000F05DF816230F
:1043100003604FF0FF3008BD4FF48050FBE7000012
:104320001FB514461A46094B05461B68D8684CB1A0
:10433000074BCDE9013400912B46064900F04AF8BD
:10434000FCF746FF044B1C46F3E700BF20000020AB
:10435000946A0008A16A0008CF6A000838B5A1FB7A
:1043600002152DB9FFF75CF9044638B9204638BD6F
:1043700000F02AF80C2300240360F7E750F8042C1F
:1043800022F00302043A242A19D8132A15D91B2A29
:10439000C0E9005506D800F108030022C3E9002255
:1043A0009A60E3E7242AC0E9025511BF00F1100327
:1043B000056100F118034561EFE70346EDE7294683
:1043C00000F050F8D2E70000014B1868704700BFBA
:1043D000200000200EB403B5014603AB054853F896
:1043E000042B0068019300F01FFA02B05DF804EBA3
:1043F00003B0704720000020014B93F8280170475C
:1044000060080020704770477047704782B001B95C
:1044100001A942B14BB113780B601278101E18BF7E
:10442000012002B070471046FBE76FF00100F8E78B
:10443000884210B501EB020402D98442234607D812
:10444000431EA14208D011F8012B03F8012FF8E711
:10445000014602448A4200D110BD13F8014D02F812
:10446000014DF7E703460244934200D1704703F839
:10447000011BF9E72DE9F74F0C468146114624B997
:1044800003B0BDE8F04FFFF7CBB80192FFF720FB78
:10449000019901F10B08B8F1160F0BD938F0070894
:1044A0000AD50C234FF0000BC9F80030584603B072
:1044B000BDE8F08F4FF010088845F2D354F8045C43
:1044C000A4F1080A25F00306B04540F371819C4A27
:1044D0000AEB0603D2F808C05A689C4505D022F0C2
:1044E000010018444068C70727D422F003029C4506
:1044F00006EB020719D108F11000B8421FDC904A00
:10450000A7EB08070AEB080347F0010793605F6019
:1045100054F8043C484603F0010343EA080344F816
:10452000043CFFF7DBFAA346C0E7B84507DCD3E954
:104530000232DA609360554680E000221346E807B5
:1045400000F1E88054F8085CAAEB0505686820F0E3
:10455000030000EB060B002B00F0A7809C4502EB4C
:104560000B074BD108F11003BB4200F39E80AB4612
:10457000EB685BF8082FD3609A60321F242A38D882
:10458000132A34D923681B2AAB606368EB601BD8FD
:10459000083405F1100322681A6062685A60A26844
:1045A0009A60674AA7EB080705EB080347F0010785
:1045B00093605F606B6803F0010343EA08036B607C
:1045C0004846FFF78BFA71E7A368242A2B61E3685A
:1045D00018BF10346B6109BF236905F11803AB6183
:1045E000626902BF05F12003EA611834D3E75B4634
:1045F000D1E721465846FFF71BFFD2E7B84554DC08
:10460000D3E902322846DA60936050F8082FEB684D
:10461000D3609A60321F242A43D8132A08D923680A
:104620001B2AAB606368EB6028D8083405F11000E2
:104630002368036063684360A36883606B68A7EBCB
:1046400008000F2803F0010305EB070240F2B280D7
:1046500005EB080148EA030340F001006B60486085
:104660005368484643F0010353600831FEF714FFD6
:104670004846FFF733FA05F1080B17E7A368242A29
:104680002B61E36818BF05F118006B6109BF23694E
:104690001034AB61636902BF05F12000EB6118348F
:1046A000C6E72146FFF7C4FEC8E7D84532DC2846F6
:1046B000EB6850F8082FD3609A60321F242A25D85F
:1046C000132A08D923681B2AAB606368EB600AD8F9
:1046D000083405F110002368036063684360A36831
:1046E00083605F46AAE7A368242A2B61E36818BFAA
:1046F00005F118006B6109BF23691034AB61636970
:1047000002BF05F12000EB611834E4E72146FFF712
:104710008FFEE6E74846FEF783FF834600283FF416
:104720004FAF54F8043CA0F1080223F001035344B6
:10473000934207D150F8047C27F003073744FAE688
:1047400050040020321F242A2ED8132A29D9236886
:104750001B2A0360636843600ED804F1080200F16D
:104760000803116819605168596092689A6021467F
:104770004846FEF791FE23E7A368242A8360E36896
:1047800018BF04F11002C36009BF236900F11003D0
:104790000361616902BF04F1180200F1180341616D
:1047A000DFE703462246DCE72146FFF741FEDEE76E
:1047B0003746C0E61F436F60536843F00103536000
:1047C00056E700BF2DE9F84F936880460F46144620
:1047D0001BB918465360BDE8F88F4B6E9D0420D579
:1047E000156808354FF0000955E902B64FEA960AF8
:1047F000CA450BDCA06826F00306801BA0600835C4
:104800000028EFD10023C4E90133E4E73A464046EB
:104810005BF8291000F09BFE431CF3D009F101095D
:10482000E6E700F0BDFEEDE72DE9F04FBBB00F4627
:104830001D461C468146029218B1836B0BB900F0ED
:104840001DFE7B6ED80705D4BB89990502D4B86DCF
:10485000FFF7DAFDB7F90C309A0406D443F400539D
:10486000BB817B6E23F400537B66BB891E0701D599
:104870003B69ABB93946484600F0B2FC80B17B6E6B
:10488000D80706D54FF0FF33039303983BB0BDE83C
:10489000F08FBB899905F5D4B86DFFF7B6FDF1E748
:1048A000BB8903F01A020A2A14D1B7F90E20002A94
:1048B00010DB7A6ED20704D49E0502D4B86DFFF7E0
:1048C000A4FD2B4639464846029A3BB0BDE8F04F5E
:1048D00000F038BC0023CDE90F33CDE90633CDE934
:1048E000083311AE0E960393029B1D4613F8012B5D
:1048F0000AB1252AF9D1029BB5EB03080DD0C6E910
:104900000038109B434410930F9B0133072B0F93E8
:1049100075DC0836039B434403932B78002B00F08F
:10492000D58300234FF0FF319A466A1C8DF833304F
:104930000191049312F8013B0292A3F120025A2A3A
:1049400000F21D83DFE812F09A001B031B03A20094
:104950001B031B031B0382001B031B03A500AF00EB
:104960001B03AC00B1001B03CC00CF00CF00CF0075
:10497000CF00CF00CF00CF00CF00CF001B031B0321
:104980001B031B031B031B031B031B031B03F9005C
:1049900007011B031B031B031B031B031B031B033D
:1049A0001B031B031B0356011B031B031B03A0015B
:1049B0001B037D021B031B039D021B031B031B0325
:1049C0001B031B031B031B031B031B031B03F9001C
:1049D00009011B031B031B03DF000901F3001B0379
:1049E000EC001B03340158018D01F3001B03A001EF
:1049F00098007F021B031B0365001B0398003946C8
:104A000048460EAAFFF7DEFE002840F03E8311AEB6
:104A100080E79C4A06921AF0200200F034820734A4
:104A200024F00702934655685BF8084B1AF0010F13
:104A300009D054EA05021FBF30228DF835308DF8B9
:104A400034204AF0020A2AF4806A18E14846FEF748
:104A5000E3FD436818460993FFF7BEFB08904846FC
:104A6000FEF7DAFD83680793089B2BB1079B1BB108
:104A70001B780BB14AF4806A029A5BE79DF83330E9
:104A8000002BF9D120238DF83330F5E74AF0010AE5
:104A9000F2E754F8043B002B0493EDDA5B420493F5
:104AA0004AF0040AE8E72B23EDE7029A12F8013BEB
:104AB0002A2B12D154F8040B40EAE073CDE90132FD
:104AC000DAE70A20019B00FB0313019312F8013B74
:104AD000A3F130010929F4D92EE700210191F7E76C
:104AE0004AF0800AC8E70021029A04910A2004993A
:104AF000303B00FB0133049312F8013BA3F130017A
:104B00000929F3D918E7029B1B78682B01BF029B88
:104B10004AF4007A0133029318BF4AF0400AABE727
:104B2000029B1B786C2B05D1029B013302934AF048
:104B3000200AA1E74AF0100A9EE7A34600215BF88D
:104B4000043B8DF833108DF8843001230D4601931A
:104B50000DF18408ADE04AF0100A1AF0200F10D0D1
:104B6000073424F007039B465D685BF8084B002D73
:104B700005DA2D23644265EB45058DF833300123BA
:104B80004AE0A3461AF0100F5BF8045B02D02C46F3
:104B9000ED17ECE71AF0400F03D02CB245F3C03507
:104BA000E5E71AF4007FF2D06CB245F3C015DEE7FA
:104BB0001AF0200F04F1040B07D0039A236803991D
:104BC000D217C3E900125C468EE61AF0100F03D02C
:104BD0002368039A1A60F6E71AF0400F03D023689F
:104BE000039A1A80EFE71AF4007FF1D02368039A42
:104BF0001A70E8E74AF0100A1AF020031FD00734B1
:104C000024F007039B465D685BF8084B00232AF4F9
:104C1000806A00228DF83320019A013200F063820D
:104C20002AF08002059254EA050240F06282019A5D
:104C3000002A00F09981012B40F05E823AE1A34600
:104C40001AF010055BF8044B01D01D46DEE71AF0A0
:104C5000400301D0A4B2D9E71AF40075D6D0E4B26B
:104C6000F3E730238DF834307823A34600258DF800
:104C70003530044B5BF8044B4AF0020A06930223DA
:104C8000C7E700BF7E680008A3460025019B5BF8CC
:104C9000048B5C1C8DF8335000F0CE801A462946F8
:104CA0004046FEF7F9FE002800F07381A0EB0803F0
:104CB0000193019BAB42B8BF2B4605939DF833305F
:104CC00013B1059B013305931AF002030A931EBF2B
:104CD000059B023305931AF084030B931FD1DDE982
:104CE00004329C1A002C1ADDDDE90F32AA48102C80
:104CF00003F1010306F10801306000F35381746091
:104D0000072B1444CDE90F3440F35E813946484601
:104D10000EAAFFF757FD002840F0B78111AE9DF8AD
:104D2000333073B10DF13302326001220F9B726098
:104D3000109A01330132072BCDE90F3200F346817F
:104D400008360A9B6BB10DAA326002220F9B72607B
:104D5000109A01330232072BCDE90F3200F33F8165
:104D600008360B9B802B1FD1DDE904329C1A002CE6
:104D70001ADDDDE90F328948102C03F1010306F139
:104D80000801306000F334817460072B1444CDE9CE
:104D90000F3440F33F81394648460EAAFFF712FD13
:104DA000002840F0728111AE019BEC1A002C1ADD34
:104DB0007A4D102CDDE90F3106F1080203F10103F1
:104DC000356000F329817460072B0C44CDE90F3462
:104DD00040F33381394648460EAAFFF7F3FC00281A
:104DE00040F0538111AE019B1098736018440F9BE3
:104DF000C6F800800133072B10900F9300F31F813A
:104E000006F108031AF0040F40F02181DDE90332B6
:104E100005998A42ACBF9B185B180393109B3BB16A
:104E2000394648460EAAFFF7CDFC002840F02D81F8
:104E3000002311AE0F93C6E64046FFF7CDF901906F
:104E400037E74AF0100A1AF0200308D0073424F09C
:104E500007039B465D685BF8084B0123D9E6A34630
:104E60001AF010055BF8044B01D01D46F5E71AF067
:104E7000400301D0A4B2F0E71AF40075EDD0E4B21B
:104E8000F3E7474AC6E5A3461AF010055BF8044B62
:104E900001D01546CAE51AF0400201D0A4B2C5E51A
:104EA0001AF400753FF4C2ADE4B2F2E70A2C75F1D2
:104EB000000305D230348DF8E7400DF1E70837E103
:104EC0004FF0000A3AAB0A93059B03F480630B93FF
:104ED0000A9B0A222046294603F1FF38002301F0ED
:104EE00029FB0A9B303203F8012C0B9B0AF1010AC3
:104EF000D3B1079B1B78534516D1BAF1FF0F13D0DE
:104F00000A2C75F100030FD3089B0999A8EB03083D
:104F10001A464046FFF768F9079B5B78A3B14FF04C
:104F2000000A079B0133079300230A2220462946E3
:104F300001F000FB0A2C75F10003C0F0F980044673
:104F40000D46CDF82880C3E79A46EDE7069A04F0AF
:104F50000F03D35C240944EA05742D0908F8013DC8
:104F600054EA0503F2D1E3E033B91AF0010F03D09C
:104F700030238DF8E730A0E70DF1E808D8E0002BEA
:104F800000F0A4800021A3468DF884308DF8331002
:104F9000DBE505468DE600BFDA6A0008EA6A00082C
:104FA0008F6800081020072B0244CDE90F32706093
:104FB00007DD394648460EAAFFF704FC002864D1F5
:104FC00011A90E46103C8FE60E46A8E63946484623
:104FD0000EAAFFF7F7FB002857D111AEB1E639460C
:104FE00048460EAAFFF7EEFB00284ED111AEB8E6F8
:104FF0001020072B0244CDE90F32706007DD3946DF
:1050000048460EAAFFF7DEFB00283ED111A90E4646
:10501000103CAEE60E46C7E61020072B0144CDE952
:105020000F31706006DD394648460EAAFFF7CAFB0D
:1050300058BB11AA1646103CBBE61646D3E63946C5
:1050400048460EAAFFF7BEFBF8B911ABDAE6DDE978
:105050000421541A002C7FF7D9AE1026384D102C9D
:10506000DDE90F211D6002F101021DDC5C60072AF1
:105070000C44CDE90F247FF7C9AE394648460EAA45
:10508000FFF7A0FB00283FF4C1AE7B6ED90705D423
:10509000BB899A0502D4B86DFFF7B7F9BB895B06E7
:1050A0007FF5F3ABFFF7EEBB1031072ACDE90F21F7
:1050B0005E6002DC0833103CD1E7394648460EAA50
:1050C000FFF780FB0028E0D111ABF4E7109B13B988
:1050D00000230F93D9E7394648460EAAFFF772FB23
:1050E0000028F5D0D1E754EA0502CDF814A03FF42A
:1050F000A2AD012B3FF4DAAE022B0DF1E8083FF42C
:1051000025AF04F00703E40844EA4574ED083033A2
:1051100054EA0501424608F8013DF2D10599C80755
:1051200006D5302B04D0302308F8013CA2F1020848
:105130003AABA3EB0803019DDDF814A00193B8E599
:10514000DA6A0008F0B51F468B89ADF26C4D23F08A
:105150000203ADF80C304B6E15461993CB89064609
:10516000ADF80E30CB6916A807934B6A0C4609932D
:105170001AAB009304934FF48063029305930023CA
:105180000693FFF73FF92A463B4669463046FFF74C
:105190004BFB051E07DB6946304600F003F900288B
:1051A00018BF4FF0FF35BDF80C3016985B0642BFB4
:1051B000A38943F04003A381FFF725F928460DF2A8
:1051C0006C4DF0BD0346084641B1FF2A04D98A223E
:1051D0004FF0FF301A60704701200A7070470000DE
:1051E00038B52A4B054618680C4618B1836B0BB9C5
:1051F00000F044F9A389B4F90C20180722D4D90689
:1052000007D409232B6042F040034FF0FF30A38105
:1052100034E0580712D5216B41B104F140039942A3
:1052200002D02846FEF738F900232363A38923F030
:105230002403A3810023636023692360A38943F0CF
:105240000803A38123694BB9A38903F42073B3F541
:10525000007F03D02146284600F036FBA089B4F930
:105260000C2010F001030AD00023A36063695B42A5
:10527000A361236943B910F08000C4D138BD810710
:1052800058BF6369A360F4E70020F7E7200000201F
:10529000F8B58B89054618070C46B1F90C205ED489
:1052A0004B6842F40062002B8A8104DCCB6B002B3C
:1052B00001DC0020F8BDA66A002EFAD0002312F40B
:1052C00080522F682B6036D0206DA3895A0705D5F0
:1052D0006368C01A236B0BB1E36BC01A002302464C
:1052E000A66A2846E169B047431CA38906D129680C
:1052F0001D2930D82A4ACA40D6072CD5002223F4CB
:1053000000631BB262602269D904A381226004D5C4
:10531000421C01D12B6803B92065216B2F60002945
:10532000C7D004F14003994202D02846FEF7B4F8F2
:1053300000202063BEE7E16901232846B047411CF5
:10534000C3D12B68002BC0D01D2B01D0162B01D14F
:105350002F60AEE7A38943F04003A381AAE70F695A
:10536000002FA6D09B0718BF00230E6808BF4B690B
:10537000F61B0F608B60002E9BDD33463A462846B5
:10538000E169D4F824C0E047002806DCA3894FF087
:10539000FF3043F04003A3818CE70744361AEAE765
:1053A0000100402038B50C46054618B1836B0BB997
:1053B00000F064F8B4F90C00B8B1636EDB0704D4F4
:1053C000810502D4A06DFFF71FF828462146FFF79C
:1053D0005FFF636E0546DA0705D4A3899B0502D4F7
:1053E000A06DFFF712F8284638BD0546FBE7000020
:1053F000002310B50446C0E90033C0E904338360DC
:1054000081814366C2818361194608225C30FFF7BF
:1054100029F8074BE4612362064B04F158006362EC
:10542000054BA362054BE362BDE81040FEF7EABFFF
:10543000495900086B590008A3590008C7590008CA
:10544000014900F0F5B900BFD15A00080148FEF744
:10545000DBBF00BF890A00200148FEF7D6BF00BFAE
:10546000890A00200148FEF7CFBF00BF8A0A00204A
:105470000148FEF7CABF00BF8A0A002010B50446E3
:10548000FFF7F0FFA26B1AB1BDE81040FFF7F0BFC5
:105490000D4B0421E3630323C4F8E43204F53B73AA
:1054A000C4F8E8326068C4F8E022FFF7A1FF0122E7
:1054B0000921A068FFF79CFF02221221E068FFF794
:1054C00097FF0123A363DFE7415400082DE9F74369
:1054D00080460E461546FEF78FFF012804461BD175
:1054E000731EFE2B18D88DF8046000270DF10409F7
:1054F000A74220D0AB6817F80910013B002BAB6026
:1055000004DAAA6993421ADB0A2918D02B685A1CBC
:105510002A6019700137EBE73246404605F15C031B
:1055200001A900F09DFA421C0446DED10646AB8973
:1055300043F04003AB81304603B0BDE8F0832A4618
:10554000404600F044FA431CE4D10646F3E7536EAC
:1055500070B5DB0705460E46144605D493899805B9
:1055600002D4906DFEF750FFB4F90C30990406D4C4
:1055700043F40053A381636E43F4005363662246F1
:1055800028463146FFF7A2FF636E0546DA0705D4C9
:10559000A3899B0502D4A06DFEF737FF284670BD96
:1055A00093682DE9F74F06460C4690461BB900203C
:1055B00003B0BDE8F08F8B89180750D50B69002B1D
:1055C0004DD0A389D8F8007013F002096BD113F005
:1055D000010300F09B804846CA46CB46BBF1000F52
:1055E00000F0028150B95A460A215046FEF754FA9B
:1055F000002800F0FE800130A0EB0A092068216934
:10560000D9454A4628BF5A468842636940F2F48029
:10561000A5681D44AA4240F3EF8051462A46FEF792
:1056200007FF236821462B4430462360FFF7BAFE6C
:10563000002866D1B9EB050940F0F68021463046D6
:10564000FFF7B0FE00285CD1D8F80820AA44ABEBE5
:10565000050B551BC8F80850002DBFD1A7E7214600
:105660003046FFF7BDFD0028ABD04FF0FF309FE77D
:10567000D7E900B50837002DFAD055452B465A46D4
:1056800028BF53463046E169D4F824C0E0470028DB
:1056900037DDD8F8083083442D1A181AC8F80800E6
:1056A0000028E8D183E74FF0000BDFF880A15D46CA
:1056B000E1E7D7E9009A0837BAF1000FF9D0A389DA
:1056C00020689905A26863D5524536D813F4906FC7
:1056D00033D021696569A0EB010B05EB450505EBAE
:1056E000D5750BF101026D105244954238BF154635
:1056F0005B053DD529463046FDF792FF48B90C239E
:105700003360A38943F04003A381AEE799469A46EC
:10571000D2E75A4621690190FEF7CCF9A289019B94
:1057200022F4906242F08002A281524623616561B8
:105730005B44A5EB0B052360A560524528BF52468C
:105740005546494620680192FEF772FEA368019A09
:105750009B1AA36023681A442260D8F80800A94461
:10576000AAEB050A451BC8F80850002DA4D11EE776
:105770002A463046FEF77EFE03460028D5D1304645
:105780002169FDF789FEA38923F08003A381B6E791
:105790002369834202D36169514515D9524528BF17
:1057A000524615464946FEF743FEA36822685B1B36
:1057B0002A44A3602260002BCFD121463046FFF758
:1057C000F1FD0028C9D09CE76FF000439A4538BF2F
:1057D000534693FBF1F3656A4B434A463046E16911
:1057E000A847051EB9DC8CE7D7E900AB00200837D5
:1057F000F4E60BF1010901E7934208DC656A5246C1
:105800003046E169A847051E3FF714AF79E75146D6
:105810000192FEF70DFE019AA36815469B1AA3603C
:1058200023681344236005E701200DE700FCFF7F98
:105830002DE9F84306468846002700F53874D4E978
:105840000195B9F1010905D52468002CF7D1384636
:10585000BDE8F883AB89012B07D9B5F90E300133C8
:1058600003D029463046C04707436835E9E770B59D
:105870000E46B1F90E10144600291D4696B00ADAFC
:105880000023B6F90C102B6011F0800016D14FF4F4
:105890008063236015E06A4600F072F90028EFDBB0
:1058A000019A4FF4006002F47042A2F500535A428C
:1058B0005A414FF480632A60236002E04022184678
:1058C000226016B070BD00008B8973B59D07064637
:1058D0000C4607D504F14303236023610123636170
:1058E00002B070BD6A4601ABFFF7C1FF00990546E3
:1058F0003046FDF795FE48B9B4F90C309A05EFD45F
:1059000023F0030343F00203A381E3E70D4BF363AA
:10591000A389206043F08003A381009B2061636121
:10592000019B5BB13046B4F90E1000F03BF928B191
:10593000A38923F0030343F00103A381A089054356
:10594000A581CDE74154000810B50C46B1F90E1001
:1059500000F04AF90028ABBF236DA3891B1823F47C
:105960008053ACBF2365A38110BD2DE9F0411F46D4
:105970008B890546DB050C46164605D50223002219
:10598000B1F90E1000F01EF9A389324623F48053BA
:10599000A38128463B46B4F90E10BDE8F04100F063
:1059A00075B810B50C46B1F90E1000F00BF9431C98
:1059B000A38915BF206523F4805343F48053A3814A
:1059C00018BFA38110BDB1F90E1000F071B8F8B581
:1059D0000E461446054618B1836B0BB9FFF74EFD12
:1059E000A369A360A389190729D523693BB3B4F937
:1059F0000C30F6B29A0437462AD523682069181A63
:105A00006369834204DC21462846FFF7CBFCE0B9FA
:105A1000A368013BA36023685A1C22601E70626960
:105A2000431C9A4204D0A389DB0706D50A2E04D171
:105A300021462846FFF7B6FC38B93846F8BD21465E
:105A40002846FFF7CDFB0028D1D04FF0FF37F4E711
:105A500043F40053A381636E23F400536366CCE7E1
:105A6000F0B5094C05461E46D4F8E07085B009B97A
:105A70000A4601A9B847431C01BF002333608A23AB
:105A80002B6005B0F0BD00BF6008002038B50446AB
:105A9000084611460022054D2A601A46FBF78CFB8A
:105AA000431C02D12B6803B1236038BD8C0A00204F
:105AB00038B50023054D044608462B60FBF740FB34
:105AC000431C02D12B6803B1236038BD8C0A00202F
:105AD00070B506460C4611B90025284670BD18B1B0
