:020000040800F2
:100000000004002081020008E1020008E10200086B
:10001000E1020008E1020008E1020008000000001F
:10002000000000000000000000000000E1020008E5
:10003000E102000800000000E1020008E1020008FF
:10004000E1020008E1020008E1020008E102000804
:10005000E1020008E1020008E1020008E1020008F4
:10006000E1020008E1020008E1020008E1020008E4
:10007000E1020008E1020008E1020008E1020008D4
:10008000E1020008E1020008E1020008E1020008C4
:10009000E1020008E1020008E1020008E1020008B4
:1000A000E1020008E1020008E1020008E1020008A4
:1000B000E1020008E1020008E1020008E102000894
:1000C000E1020008E1020008E1020008E102000884
:1000D000E1020008E1020008E1020008E102000874
:1000E000E1020008E1020008E1020008000000004F
:1000F0000000000000000000000000000000000000
:1001000000000000000000005FF808F180B500AFBB
:10011000154B1B68144A43F001031360124B5A68D5
:100120001149124B13404B600F4B1B680E4A23F0D2
:10013000847323F4803313600B4B1B680A4A23F447
:1001400080231360084B5B68074A23F4FE03536067
:10015000054B4FF41F029A6000F00CF8044B4FF06F
:1001600000629A6000BF80BD001002400000FFF8EE
:1001700000ED00E080B500AF00F002F800BF80BDE8
:1001800080B483B000AF00237B6000233B603A4B18
:100190001B68394A43F480331360374B1B6803F400
:1001A00000333B607B6801337B603B68002B03D1ED
:1001B0007B68B3F5A06FF0D12F4B1B6803F40033BD
:1001C000002B02D001233B6001E000233B603B6831
:1001D000012B4BD1294B1B68284A43F010031360B5
:1001E000264B1B68254A23F003031360234B1B682F
:1001F000224A43F0020313601F4B1F4A5B6853609F
:100200001D4B1D4A5B6853601B4B5B681A4A43F4E5
:1002100080635360184B5B68174A23F47C13536068
:10022000154B5B68144A43F4E8135360124B1B6888
:10023000114A43F08073136000BF0F4B1B6803F03B
:100240000073002BF9D00C4B5B680B4A23F00303BF
:100250005360094B5B68084A43F00203536000BFD8
:10026000054B5B6803F00C03082BF9D100BF0C377A
:10027000BD4680BC704700BF001002400020024015
:1002800080B582B000AF114B7B60114B3B6007E043
:100290007A68131D7B603B68191D396012681A600B
:1002A0003B680C4A9342F3D30B480C494FF00002D1
:1002B0008842B8BF40F8042BFADBFFF727FF00F0B5
:1002C00063F900BF0837BD4680BD00BF580800086D
:1002D000000000200000002000000020000000209E
:1002E00080B400AFFEE780B489B000AF78603960B9
:1002F0000023FB6100233B610023BB610023FB6003
:1003000000237B610023BB603B68DB7803F00F03B5
:10031000FB613B68DB7803F01003002B05D03B68E2
:100320009B781A46FB691343FB613B681B88DBB271
:10033000002B44D07B681B687B610023BB6138E0E5
:100340000122BB6902FA03F3FB603B681B881A4673
:10035000FB6813403B613A69FB689A4226D1BB694E
:100360009B00FB600F22FB6802FA03F3BB60BB68D3
:10037000DB437A6913407B61FA69FB6802FA03F395
:100380007A6913437B613B68DB78282B05D1012216
:10039000BB699A407B685A6108E03B68DB78482B70
:1003A00004D10122BB699A407B681A61BB690133A1
:1003B000BB61BB69072BC3D97B687A691A603B684C
:1003C0001B88FF2B46D97B685B687B610023BB6180
:1003D0003AE0BB690833012202FA03F3FB603B6891
:1003E0001B881A46FB6813403B613A69FB689A42D6
:1003F00027D1BB699B00FB600F22FB6802FA03F365
:10040000BB60BB68DB437A6913407B61FA69FB68B8
:1004100002FA03F37A6913437B613B68DB78282B8C
:1004200005D1BB69083301229A407B685A613B6859
:10043000DB78482B05D1BB69083301229A407B68E1
:100440001A61BB690133BB61BB69072BC1D97B68EA
:100450007A695A6000BF2437BD4680BC704780B4BB
:1004600085B000AF78600B467B800023FB737B6810
:100470009A687B881340002B02D00123FB7301E0B4
:100480000023FB73FB7B18461437BD4680BC7047C6
:1004900080B483B000AF78600B467B807A887B683D
:1004A0001A6100BF0C37BD4680BC704780B483B072
:1004B00000AF78600B467B807A887B685A6100BF0A
:1004C0000C37BD4680BC704780B582B000AF0121BB
:1004D000102000F0E9F80121082000F0E5F84FF4C1
:1004E0000053BB801023FB710323BB713B1D1946D6
:1004F0000B48FFF7F8FE4FF400510948FFF7C8FF1B
:100500000123BB804823FB710323BB713B1D1946AC
:100510000448FFF7E8FE00BF0837BD4680BD00BFB6
:1005200000100140000C014080B500AF45F255506D
:1005300000F04AF9032000F057F94FF4FA7000F088
:1005400063F900F071F900F07BF900BF80BD80B560
:1005500082B000AF03460A46FB711346BB8045F2EA
:10056000555000F031F9FB79184600F03DF9BB8891
:10057000184600F049F900F057F900F061F900BFA2
:100580000837BD4680BD000080B584B000AFFFF7DE
:100590009BFF4FF400513A48FFF788FF01214FF0CD
:1005A000C05000F09FF800F005F9012000F06CF851
:1005B0000023FB6002E0FB680133FB60FB68B3F5DE
:1005C000801FF8DB4FF400512D48FFF76FFF002329
:1005D000BB6002E0BB680133BB60BB68B3F5801F42
:1005E000F8DB4FF400512648FFF752FF1DE00023CF
:1005F0007B6002E07B6801337B607B68B3F5801F22
:10060000F8DB4FF400511E48FFF750FF00233B601A
:1006100002E03B6801333B603B68B3F5801FF8DBC9
:100620004FF400511648FFF733FF612000F088F8BF
:100630000346002BDBD04FF400511148FFF736FF83
:10064000FFF772FF4FF400510D48FFF721FF012122
:100650000C48FFF704FF0346002B0AD14FF400516A
:100660000748FFF723FF4FF47A610320FFF76FFF7E
:10067000EDE74FF400510248FFF70AFFE7E700BF3C
:1006800000100140000C014080B483B000AF03466D
:10069000FB71044AFB79136000BF0C37BD4680BC78
:1006A000704700BF8004424280B483B000AF7860DE
:1006B0000B46FB70FB78002B06D0094B9A69084962
:1006C0007B6813438B6106E0054B9A697B68DB43CB
:1006D000034913408B6100BF0C37BD4680BC704797
:1006E0000010024080B483B000AF78600B46FB700E
:1006F000FB78002B06D0094BDA6908497B68134365
:10070000CB6106E0054BDA697B68DB4303491340A4
:10071000CB6100BF0C37BD4680BC70470010024063
:1007200080B483B000AF0346FB71044AFB791360C9
:1007300000BF0C37BD4680BC704700BF400442423A
:1007400080B487B000AF0346FB710023FB60002339
:100750007B610023FB74FB795B09DBB2FB60FB6808
:10076000012B03D1124B1B687B6109E0FB68022B54
:1007700003D10F4B1B6A7B6102E00D4B5B6A7B610F
:10078000FB7903F01F03FB607A69FB6822FA03F32D
:1007900003F00103002B02D00123FB7401E00023CE
:1007A000FB74FB7C18461C37BD4680BC704700BFFD
:1007B0000010024080B500AF0120FFF7B1FF00201C
:1007C000FFF7AEFF00BF80BD80B483B000AF03462B
:1007D000FB80044AFB88136000BF0C37BD4680BC19
:1007E000704700BF0030004080B483B000AF0346C4
:1007F000FB71044AFB79536000BF0C37BD4680BCD7
:10080000704700BF0030004080B483B000AF0346A3
:10081000FB80044AFB88936000BF0C37BD4680BC58
:10082000704700BF0030004080B400AF034B4AF671
:10083000AA221A6000BFBD4680BC7047003000404D
:1008400080B400AF034B4CF6CC421A6000BFBD46EB
:0808500080BC7047003000403D
:0400000508000000EF
:00000001FF
