:020000040800F2
:100000000004002081020008E1020008E10200086B
:10001000E1020008E1020008E1020008000000001F
:10002000000000000000000000000000E1020008E5
:10003000E102000800000000E1020008E1020008FF
:10004000E1020008E1020008E1020008E102000804
:10005000E1020008E102000851050008E102000881
:10006000E1020008E1020008E1020008E1020008E4
:10007000E1020008E1020008E1020008E1020008D4
:10008000E1020008E1020008E1020008E1020008C4
:10009000E1020008E1020008E1020008E1020008B4
:1000A000E1020008E1020008E1020008E1020008A4
:1000B000E1020008E1020008E1020008E102000894
:1000C000E1020008E1020008E1020008E102000884
:1000D000E1020008E1020008E1020008E102000874
:1000E000E1020008E1020008E1020008000000004F
:1000F0000000000000000000000000000000000000
:1001000000000000000000005FF808F180B500AFBB
:10011000154B1B68144A43F001031360124B5A68D5
:100120001149124B13404B600F4B1B680E4A23F0D2
:10013000847323F4803313600B4B1B680A4A23F447
:1001400080231360084B5B68074A23F4FE03536067
:10015000054B4FF41F029A6000F00CF8044B4FF06F
:1001600000629A6000BF80BD001002400000FFF8EE
:1001700000ED00E080B500AF00F002F800BF80BDE8
:1001800080B483B000AF00237B6000233B603A4B18
:100190001B68394A43F480331360374B1B6803F400
:1001A00000333B607B6801337B603B68002B03D1ED
:1001B0007B68B3F5A06FF0D12F4B1B6803F40033BD
:1001C000002B02D001233B6001E000233B603B6831
:1001D000012B4BD1294B1B68284A43F010031360B5
:1001E000264B1B68254A23F003031360234B1B682F
:1001F000224A43F0020313601F4B1F4A5B6853609F
:100200001D4B1D4A5B6853601B4B5B681A4A43F4E5
:1002100080635360184B5B68174A23F47C13536068
:10022000154B5B68144A43F4E8135360124B1B6888
:10023000114A43F08073136000BF0F4B1B6803F03B
:100240000073002BF9D00C4B5B680B4A23F00303BF
:100250005360094B5B68084A43F00203536000BFD8
:10026000054B5B6803F00C03082BF9D100BF0C377A
:10027000BD4680BC704700BF001002400020024015
:1002800080B582B000AF114B7B60114B3B6007E043
:100290007A68131D7B603B68191D396012681A600B
:1002A0003B680C4A9342F3D30B480C494FF00002D1
:1002B0008842B8BF40F8042BFADBFFF727FF00F0B5
:1002C000CFF800BF0837BD4680BD00BF100800084A
:1002D000000000200000002000000020000000209E
:1002E00080B400AFFEE780B489B000AF78603960B9
:1002F0000023FB6100233B610023BB610023FB6003
:1003000000237B610023BB603B68DB7803F00F03B5
:10031000FB613B68DB7803F01003002B05D03B68E2
:100320009B781A46FB691343FB613B681B88DBB271
:10033000002B44D07B681B687B610023BB6138E0E5
:100340000122BB6902FA03F3FB603B681B881A4673
:10035000FB6813403B613A69FB689A4226D1BB694E
:100360009B00FB600F22FB6802FA03F3BB60BB68D3
:10037000DB437A6913407B61FA69FB6802FA03F395
:100380007A6913437B613B68DB78282B05D1012216
:10039000BB699A407B685A6108E03B68DB78482B70
:1003A00004D10122BB699A407B681A61BB690133A1
:1003B000BB61BB69072BC3D97B687A691A603B684C
:1003C0001B88FF2B46D97B685B687B610023BB6180
:1003D0003AE0BB690833012202FA03F3FB603B6891
:1003E0001B881A46FB6813403B613A69FB689A42D6
:1003F00027D1BB699B00FB600F22FB6802FA03F365
:10040000BB60BB68DB437A6913407B61FA69FB68B8
:1004100002FA03F37A6913437B613B68DB78282B8C
:1004200005D1BB69083301229A407B685A613B6859
:10043000DB78482B05D1BB69083301229A407B68E1
:100440001A61BB690133BB61BB69072BC1D97B68EA
:100450007A695A6000BF2437BD4680BC70470000EF
:1004600080B500AF00F018F800F03CF800F050F84C
:10047000084B4FF400525A614FF47A7000F084F840
:10048000044B4FF400521A614FF47A7000F07CF87C
:10049000EEE700BF0010014080B582B000AF01213F
:1004A000182000F091F80223BB801023FB71032376
:1004B000BB713B1D19460948FFF715FF4FF4005368
:1004C000BB801023FB710223BB713B1D19460448FE
:1004D000FFF709FF00BF0837BD4680BD000C014093
:1004E0000010014080B582B000AF0121042000F06F
:1004F0006BF80123BB804823FB713B1D1946034861
:10050000FFF7F1FE00BF0837BD4680BD000801407F
:1005100080B584B000AF01237B6000233B720823C9
:100520007B720123BB723B1D184600F06BF806235B
:100530003B7301237B730023BB730123FB7307F120
:100540000C03184600F002F900BF1037BD4680BD0D
:1005500080B500AF012000F0C7F80346002B0BD098
:10056000084B02221A61642000F00EF8054B0222AB
:100570005A61642000F008F8012000F0D9F800BFAB
:1005800080BD00BF000C014080B485B000AF786032
:100590000023FB600DE00023BB6002E0BB68013379
:1005A000BB60BB6842F6FE229342F7D9FB68013379
:1005B000FB60FA687B689A42EDD300BF00BF143736
:1005C000BD4680BC7047000080B483B000AF786047
:1005D0000B46FB70FB78002B06D0094B9A69084943
:1005E0007B6813438B6106E0054B9A697B68DB43AC
:1005F000034913408B6100BF0C37BD4680BC704778
:100600000010024080B485B000AF78600023FB602A
:10061000344BFB607B689B79002B4FD0314B1A68C1
:100620007B681B68DB432F4913400B602D4B5A68D6
:100630007B681B68DB432B4913404B607B681B794D
:100640001A46FB681344FB60FB6819687B681A68EC
:10065000FB680A431A60234B9A687B681B68DB437C
:10066000204913408B601F4BDA687B681B68DB43B3
:100670001C491340CB607B685B79102B0ED1194B62
:100680009A687B681B68174913438B60154BDA68BF
:100690007B681B6813491343CB601DE0114BFB6063
:1006A0007B685B791A46FB681344FB60FB6819683A
:1006B0007B681A68FB680A431A600DE07B681B7947
:1006C0001A46FB681344FB60FB6819687B681B686B
:1006D000DA43FB680A401A6000BF1437BD4680BC8D
:1006E000704700BF0004014080B485B000AF78605F
:1006F0000023FB730023BB600C4B1B687A6813401C
:10070000BB600A4B5A697B681340002B05D0BB685D
:10071000002B02D00123FB7301E00023FB73FB7B62
:1007200018461437BD4680BC704700BF0004014026
:1007300080B483B000AF7860034A7B68536100BF28
:100740000C37BD4680BC70470004014080B487B0C0
:1007500000AF786000237B6100233B610F23FB60C7
:100760007B68DB78002B3AD0274BDB68DB431B0A26
:1007700003F007037B617B69C3F104033B61FA6803
:100780007B6922FA03F3FB607B685B781A463B695E
:1007900002FA03F37B617B689B781A46FB6813407F
:1007A0007A6913437B617B691B017B61174A7B6814
:1007B0001B787969C9B213440A4683F800237B6821
:1007C0001B7803F01F0311497A6812785209D2B2DC
:1007D0001046012202FA03F341F820300FE07B6853
:1007E0001B7803F01F0309497A6812785209D2B2C4
:1007F000104601229A4000F1200341F8232000BF57
:100800001C37BD4680BC704700ED00E000E100E011
:0400000508000000EF
:00000001FF
