:020000040800F2
:10000000400C002081020008E1020008E102000823
:10001000E1020008E1020008E1020008000000001F
:10002000000000000000000000000000E1020008E5
:10003000E102000800000000E1020008E1020008FF
:10004000E1020008E1020008E1020008E102000804
:10005000E1020008E1020008E1020008E1020008F4
:10006000E1020008E1020008E1020008E1020008E4
:10007000E1020008E1020008E1020008E1020008D4
:10008000E1020008E1020008E1020008E1020008C4
:10009000E1020008E1020008E1020008E1020008B4
:1000A000E1020008E1020008E1020008E1020008A4
:1000B000E1020008E1020008E1020008E102000894
:1000C000E1020008E1020008E1020008E102000884
:1000D000E1020008E1020008E1020008E102000874
:1000E000E1020008E1020008E1020008000000004F
:1000F0000000000000000000000000000000000000
:1001000000000000000000005FF808F180B500AFBB
:10011000154B1B68144A43F001031360124B5A68D5
:100120001149124B13404B600F4B1B680E4A23F0D2
:10013000847323F4803313600B4B1B680A4A23F447
:1001400080231360084B5B68074A23F4FE03536067
:10015000054B4FF41F029A6000F00CF8044B4FF06F
:1001600000629A6000BF80BD001002400000FFF8EE
:1001700000ED00E080B500AF00F002F800BF80BDE8
:1001800080B483B000AF00237B6000233B603A4B18
:100190001B68394A43F480331360374B1B6803F400
:1001A00000333B607B6801337B603B68002B03D1ED
:1001B0007B68B3F5A06FF0D12F4B1B6803F40033BD
:1001C000002B02D001233B6001E000233B603B6831
:1001D000012B4BD1294B1B68284A43F010031360B5
:1001E000264B1B68254A23F003031360234B1B682F
:1001F000224A43F0020313601F4B1F4A5B6853609F
:100200001D4B1D4A5B6853601B4B5B681A4A43F4E5
:1002100080635360184B5B68174A23F47C13536068
:10022000154B5B68144A43F4E8135360124B1B6888
:10023000114A43F08073136000BF0F4B1B6803F03B
:100240000073002BF9D00C4B5B680B4A23F00303BF
:100250005360094B5B68084A43F00203536000BFD8
:10026000054B5B6803F00C03082BF9D100BF0C377A
:10027000BD4680BC704700BF001002400020024015
:1002800080B582B000AF114B7B60114B3B6007E043
:100290007A68131D7B603B68191D396012681A600B
:1002A0003B680C4A9342F3D30B480C494FF00002D1
:1002B0008842B8BF40F8042BFADBFFF727FF00F0B5
:1002C000E7F800BF0837BD4680BD00BF04680008DE
:1002D00000000020C4060020C406002040080020C2
:1002E00080B400AFFEE780B489B000AF78603960B9
:1002F0000023FB6100233B610023BB610023FB6003
:1003000000237B610023BB603B68DB7803F00F03B5
:10031000FB613B68DB7803F01003002B05D03B68E2
:100320009B781A46FB691343FB613B681B88DBB271
:10033000002B44D07B681B687B610023BB6138E0E5
:100340000122BB6902FA03F3FB603B681B881A4673
:10035000FB6813403B613A69FB689A4226D1BB694E
:100360009B00FB600F22FB6802FA03F3BB60BB68D3
:10037000DB437A6913407B61FA69FB6802FA03F395
:100380007A6913437B613B68DB78282B05D1012216
:10039000BB699A407B685A6108E03B68DB78482B70
:1003A00004D10122BB699A407B681A61BB690133A1
:1003B000BB61BB69072BC3D97B687A691A603B684C
:1003C0001B88FF2B46D97B685B687B610023BB6180
:1003D0003AE0BB690833012202FA03F3FB603B6891
:1003E0001B881A46FB6813403B613A69FB689A42D6
:1003F00027D1BB699B00FB600F22FB6802FA03F365
:10040000BB60BB68DB437A6913407B61FA69FB68B8
:1004100002FA03F37A6913437B613B68DB78282B8C
:1004200005D1BB69083301229A407B685A613B6859
:10043000DB78482B05D1BB69083301229A407B68E1
:100440001A61BB690133BB61BB69072BC1D97B68EA
:100450007A695A6000BF2437BD4680BC704780B4BB
:1004600083B000AF78600B467B8013467B707B784F
:10047000002B03D07A887B681A6102E07A887B6857
:100480005A6100BF0C37BD4680BC704700000000B9
:1004900080B59AB000AF00F0A7FC00F0A3F800F020
:1004A0005BF800F04FF80346184600F067FE4FF087
:1004B0000002214B00F0CCFE02460B4610461946C6
:1004C00019A3D3E9002300F0EDFF02460B461046C6
:1004D000194601F057F903467B66786E00F060FE1E
:1004E00013A3D3E9002301F043F90346002B05D001
:1004F000012202211148FFF7B2FF04E0002202218D
:100500000E48FFF7ACFF786E00F04AFE02460B463D
:1005100038460B4901F086F93B46184600F0BEFC10
:10052000BFE700BFAFF300800000000000FEAF4057
:100530009A9999999999F93F00000840000C014057
:100540006064000880B500AF024800F0D0FA0346AE
:10055000184680BD0024014080B586B000AF4FF43E
:10056000004000F069F801214FF4007000F036F906
:1005700000237B6000233B7201237B724FF46023D6
:10058000FB6000233B6101233B750523012206210B
:10059000134800F0E3F93B1D1946114800F03CF9FF
:1005A00001210F4800F08AF90D4800F0A2F900BFC0
:1005B0000B4800F0ADF90346002BF9D1084800F0D4
:1005C000BEF900BF064800F0A3F90346002BF9D19D
:1005D0000121034800F072F900BF1837BD4680BD05
:1005E0000024014080B582B000AF0121082000F056
:1005F000F5F80121042000F0F1F80223BB80032369
:10060000BB711023FB713B1D19460948FFF76BFEB8
:100610004023BB800323BB710023FB713B1D1946A4
:100620000448FFF760FE00BF0837BD4680BD00BF2D
:10063000000C01400008014080B485B000AF786034
:100640000023FB60094B5B68FB60FB6823F44043BD
:10065000FB60FA687B681343FB60044AFB685360E5
:1006600000BF1437BD4680BC704700BF0010024079
:1006700080B487B000AF786000237B6100233B61CA
:100680000023FB600023BB604F4B5B6803F00C034F
:100690007B617B69082B11D07B69082B3AD87B6979
:1006A000002B03D07B69042B04D033E07B68474ADE
:1006B0001A6033E07B68454A1A602FE0424B5B6862
:1006C00003F470133B61404B5B6803F48033FB60C1
:1006D0003B699B0C02333B61FB68002B06D13B69F5
:1006E0003B4A03FB02F27B681A6017E0364B5B68FB
:1006F00003F40033002B06D03B69354A03FB02F2BA
:100700007B681A600AE03B69304A03FB02F27B68AF
:100710001A6003E07B682D4A1A6000BF2A4B5B68B1
:1007200003F0F0037B617B691B097B61294A7B69CC
:1007300013441B78DBB2BB607B681A68BB68DA4085
:100740007B685A60204B5B6803F4E0637B617B69E4
:100750001B0A7B611F4A7B6913441B78DBB2BB60B9
:100760007B685A68BB68DA407B689A60164B5B68A6
:1007700003F460537B617B69DB0A7B61154A7B690B
:1007800013441B78DBB2BB607B685A68BB68DA40F5
:100790007B68DA600C4B5B6803F440437B617B69E8
:1007A0009B0B7B610C4A7B6913441B78DBB2BB60FB
:1007B0007B68DA68BB68B2FBF3F27B681A6100BF42
:1007C0001C37BD4680BC70470010024000127A0002
:1007D00000093D00000000201000002080B483B01C
:1007E00000AF78600B46FB70FB78002B06D0094BFE
:1007F0009A6908497B6813438B6106E0054B9A6947
:100800007B68DB43034913408B6100BF0C37BD4657
:1008100080BC70470010024080B485B000AF7860A3
:1008200039600023FB600023FB727B685B68FB6020
:10083000FB6823F4702323F48073FB603B681A6821
:100840003B681B791B021343FA681343FB607B6808
:10085000FA685A607B689B68FB60FA68164B134025
:10086000FB603B68DA683B689B681A433B685B79CE
:100870005B001343FA681343FB607B68FA689A6075
:100880007B68DB6AFB60FB6823F47003FB603B68FA
:100890001B7C013BDAB2FB7A1343FB72FB7A1B052C
:1008A000FA681343FB607B68FA68DA6200BF1437AA
:1008B000BD4680BC704700BFFDF7F1FF80B483B038
:1008C00000AF78600B46FB70FB78002B06D07B688E
:1008D0009B6843F001027B689A6005E07B689B6837
:1008E00023F001027B689A6000BF0C37BD4680BCD4
:1008F000704780B483B000AF78607B689B6843F03A
:1009000008027B689A6000BF0C37BD4680BC704708
:1009100080B485B000AF78600023FB737B689B6870
:1009200003F00803002B02D00123FB7301E0002336
:10093000FB73FB7B18461437BD4680BC704780B400
:1009400083B000AF78607B689B6843F004027B68EB
:100950009A6000BF0C37BD4680BC704780B485B03C
:1009600000AF7860084611461A460346FB700B46F6
:10097000BB7013467B700023FB600023BB60FB78D9
:10098000092B23D97B68DB68FB60FB78A3F10A02A3
:1009900013465B001344072202FA03F3BB60BB68F3
:1009A000DB43FA681340FB607978FB78A3F10A0215
:1009B00013465B00134401FA03F3BB60FA68BB689B
:1009C0001343FB607B68FA68DA601EE07B681B6992
:1009D000FB60FA7813465B001344072202FA03F324
:1009E000BB60BB68DB43FA681340FB607978FA7838
:1009F00013465B00134401FA03F3BB60FA68BB685B
:100A00001343FB607B68FA681A61BB78062B21D818
:100A10007B685B6BFB60BB785A1E13469B001344DC
:100A20001F2202FA03F3BB60BB68DB43FA68134082
:100A3000FB60F978BB785A1E13469B00134401FAF9
:100A400003F3BB60FA68BB681343FB607B68FA681A
:100A50005A6347E0BB780C2B21D87B681B6BFB608B
:100A6000BB78DA1F13469B0013441F2202FA03F3DC
:100A7000BB60BB68DB43FA681340FB60F978BB7866
:100A8000DA1F13469B00134401FA03F3BB60FA68B4
:100A9000BB681343FB607B68FA681A6322E07B68DB
:100AA000DB6AFB60BB78A3F10D0213469B00134485
:100AB0001F2202FA03F3BB60BB68DB43FA681340F2
:100AC000FB60F978BB78A3F10D0213469B00134439
:100AD00001FA03F3BB60FA68BB681343FB607B68F1
:100AE000FA68DA6200BF1437BD4680BC704780B434
:100AF00083B000AF78607B68DB6C9BB218460C3724
:100B0000BD4680BC7047000080B58CB000AF7860F7
:100B100039600023FB620023BB6200237B62002359
:100B20003B620023FB617B68FB617B681B8A9BB295
:100B3000FB62FA6A4CF6FF731340FB623B68DB888A
:100B40001A46FB6A1343FB62FB6A9AB27B681A82FD
:100B50007B689B899BB2FB62FA6A4EF6F3131340E3
:100B6000FB623B689A883B681B8913439AB23B68D7
:100B70005B8913439BB21A46FB6A1343FB62FB6A11
:100B80009AB27B689A817B689B8A9BB2FB62FA6A05
:100B90004FF6FF431340FB623B689B891A46FB6A92
:100BA0001343FB62FB6A9AB27B689A8207F10803DF
:100BB0001846FFF75DFDFB692E4A934202D17B691F
:100BC000BB6201E03B69BB627B689B899BB21BB245
:100BD000002B0CDABA6A13469B0013449A001A449D
:100BE0003B681B685B00B2FBF3F37B620BE0BA6A05
:100BF00013469B0013449A001A443B681B689B00F1
:100C0000B2FBF3F37B627B6A1B4AA2FB03235B0903
:100C10001B01FB62FB6A1B09642202FB03F37A6A75
:100C2000D31A3B627B689B899BB21BB2002B0CDA08
:100C30003B6ADB003233104AA2FB03235B0903F05B
:100C40000703FA6A1343FB620BE03B6A1B01323372
:100C5000094AA2FB03235B0903F00F03FA6A13435B
:100C6000FB62FB6A9AB27B681A8100BF3037BD46CF
:100C700080BD00BF003801401F85EB5180B483B0B8
:100C800000AF78600B46FB70FB78002B08D07B68C8
:100C90009B899BB243F400539AB27B689A8107E028
:100CA0007B689B899BB223F400539AB27B689A813C
:100CB00000BF0C37BD4680BC704780B483B000AF26
:100CC00078600B467B807B88C3F308039AB27B680D
:100CD0009A8000BF0C37BD4680BC704780B485B099
:100CE00000AF78600B467B800023FB737B681B881A
:100CF0009AB27B8813409BB2002B02D00123FB7376
:100D000001E00023FB73FB7B18461437BD4680BC13
:100D10007047000080B485B000AF78600A4B1B6854
:100D2000002B02D1084B094A1A60074B1B68FB6075
:100D3000054B1A687B681344034A1360FB68184626
:100D40001437BD4680BC7047C40600204008002010
:100D500080B483B000AF78604FF0FF3318460C3793
:100D6000BD4680BC704780B483B000AF7860396006
:100D70003B684FF400525A60002318460C37BD46BA
:100D800080BC704780B483B000AF78600123184600
:100D90000C37BD4680BC704780B485B000AFF860AA
:100DA000B9607A60002318461437BD4680BC70478E
:100DB00080B485B000AFF860B9607A607B6818468F
:100DC0001437BD4680BC704780B485B000AFF86072
:100DD000B9607A607B6818461437BD4680BC70479E
:100DE00080B400AFFEE7000080B586B000AF0121FF
:100DF00044F20400FFF7F2FC4FF40073BB821823A7
:100E0000FB750323BB7507F1140319461348FFF75D
:100E10006AFA4FF48063BB820423FB7507F1140365
:100E200019460E48FFF75FFA4FF4E1337B60002369
:100E30003B8100237B810023BB8100233B820C2369
:100E4000FB813B1D19460648FFF75EFE0121044861
:100E5000FFF714FF00BF1837BD4680BD00080140F2
:100E60000038014080B582B000AF786039607B689F
:100E7000DBB29BB219460848FFF71FFF00BF4021B5
:100E80000548FFF72BFF0346012BF8D17B68184676
:100E90000837BD4680BD00BF0038014080B584B032
:100EA00000AF78600023FB600AE0FB687A681344B7
:100EB0001B7800211846FFF7D5FFFB680133FB6064
:100EC000FB687A6813441B78002BEED100BF00BF8B
:100ED0001037BD4680BD000081F0004102E000BF38
:100EE00083F0004330B54FEA41044FEA430594EAEA
:100EF000050F08BF90EA020F1FBF54EA000C55EA25
:100F0000020C7FEA645C7FEA655C00F0E2804FEAF5
:100F10005454D4EB5555B8BF6D420CDD2C4480EAD7
:100F2000020281EA030382EA000083EA010180EA07
:100F3000020281EA0303362D88BF30BD11F0004F55
:100F40004FEA01314FF4801C4CEA113102D040428B
:100F500061EB410113F0004F4FEA03334CEA1333C6
:100F600002D0524263EB430394EA050F00F0A780DE
:100F7000A4F10104D5F1200E0DDB02FA0EFC22FAD9
:100F800005F2801841F1000103FA0EF2801843FACD
:100F900005F359410EE0A5F120050EF1200E012ABE
:100FA00003FA0EFC28BF4CF0020C43FA05F3C018FC
:100FB00051EBE37101F0004507D54FF0000EDCF175
:100FC000000C7EEB00006EEB0101B1F5801F1BD31E
:100FD000B1F5001F0CD349085FEA30004FEA3C0C22
:100FE00004F101044FEA445212F5800F80F09A8018
:100FF000BCF1004F08BF5FEA500C50F1000041EB1C
:10100000045141EA050130BD5FEA4C0C404141EB1F
:101010000101013C28BFB1F5801FE9D291F0000F1A
:1010200004BF01460020B1FA81F308BF2033A3F1C9
:101030000B03B3F120020CDA0C3208DD02F1140CC0
:10104000C2F10C0201FA0CF021FA02F10CE002F1FB
:101050001402D8BFC2F1200C01FA02F120FA0CFCF4
:10106000DCBF41EA0C019040E41AA2BF01EB04513D
:10107000294330BD6FEA04041F3C1CDA0C340EDC3B
:1010800004F11404C4F1200220FA04F001FA02F37E
:1010900040EA030021FA04F345EA030130BDC4F13C
:1010A0000C04C4F1200220FA02F001FA04F340EA31
:1010B0000300294630BD21FA04F0294630BD94F0E2
:1010C000000F83F4801306BF81F480110134013DC9
:1010D0004EE77FEA645C18BF7FEA655C29D094EA3A
:1010E000050F08BF90EA020F05D054EA000C04BFB8
:1010F0001946104630BD91EA030F1EBF00210020A3
:1011000030BD5FEA545C05D14000494128BF41F041
:10111000004130BD14F580043CBF01F5801130BDA5
:1011200001F0004545F0FE4141F470014FF0000030
:1011300030BD7FEA645C1ABF194610467FEA655CE1
:101140001CBF0B46024650EA013406BF52EA033583
:1011500091EA030F41F4002130BD00BF90F0000F71
:1011600004BF0021704730B54FF4806404F13204AD
:101170004FF000054FF0000150E700BF90F0000F66
:1011800004BF0021704730B54FF4806404F132048D
:1011900010F0004548BF40424FF000013EE700BF5D
:1011A00042004FEAE2014FEA31014FEA02701FBFED
:1011B00012F07F4393F07F4F81F06051704732F01F
:1011C0007F4208BF704793F07F4F04BF41F4002176
:1011D000704730B54FF4607401F0004521F00041D4
:1011E0001CE700BF50EA010208BF704730B54FF05E
:1011F00000050AE050EA010208BF704730B511F05F
:10120000004502D5404261EB41014FF4806404F196
:1012100032045FEA915C3FF4D8AE4FF003025FEA1C
:10122000DC0C18BF03325FEADC0C18BF033202EBA0
:10123000DC02C2F1200300FA03FC20FA02F001FAFA
:1012400003FE40EA0E0021FA02F11444BDE600BF9D
:1012500070B54FF0FF0C4CF4E06C1CEA11541DBF4C
:101260001CEA135594EA0C0F95EA0C0F00F0DEF817
:101270002C4481EA030621EA4C5123EA4C5350EAFC
:10128000013518BF52EA033541F4801143F480134D
:1012900038D0A0FB02CE4FF00005E1FB02E506F0DE
:1012A0000042E0FB03E54FF00006E1FB03569CF033
:1012B000000F18BF4EF0010EA4F1FF04B6F5007F39
:1012C00064F5407404D25FEA4E0E6D4146EB0606AB
:1012D00042EAC62141EA55514FEAC52040EA5E5034
:1012E0004FEACE2EB4F1FD0C88BFBCF5E06F1ED8DE
:1012F000BEF1004F08BF5FEA500E50F1000041EB15
:10130000045170BD06F0004646EA010140EA0200C1
:1013100081EA0301B4EB5C04C2BFD4EB0C0541EAE3
:10132000045170BD41F480114FF0000E013C00F3F8
:10133000AB8014F1360FDEBF002001F0004170BD1C
:10134000C4F10004203C35DA0C341BDC04F1140435
:10135000C4F1200500FA05F320FA04F001FA05F2C1
:1013600040EA020001F0004221F0004110EBD3708E
:1013700021FA04F642EB06015EEA430E08BF20EABA
:10138000D37070BDC4F10C04C4F1200500FA04F35D
:1013900020FA05F001FA04F240EA020001F00041EF
:1013A00010EBD37041F100015EEA430E08BF20EA62
:1013B000D37070BDC4F1200500FA05F24EEA020EAA
:1013C00020FA04F301FA05F243EA020321FA04F0D9
:1013D00001F0004121FA04F220EA020000EBD37090
:1013E0005EEA430E08BF20EAD37070BD94F0000F90
:1013F0000FD101F00046400041EB010111F4801FC4
:1014000008BF013CF7D041EA060195F0000F18BF74
:10141000704703F00046520043EB030313F4801FB0
:1014200008BF013DF7D043EA0603704794EA0C0F6A
:101430000CEA135518BF95EA0C0F0CD050EA410680
:1014400018BF52EA4306D1D181EA030101F00041FD
:101450004FF0000070BD50EA410606BF1046194625
:1014600052EA430619D094EA0C0F02D150EA013631
:1014700013D195EA0C0F05D152EA03361CBF104672
:1014800019460AD181EA030101F0004141F0FE4111
:1014900041F470014FF0000070BD41F0FE4141F495
:1014A000780170BD70B54FF0FF0C4CF4E06C1CEA95
:1014B00011541DBF1CEA135594EA0C0F95EA0C0F4A
:1014C00000F0A7F8A4EB050481EA030E52EA033505
:1014D0004FEA013100F088804FEA03334FF0805526
:1014E00045EA131343EA12634FEA022245EA111553
:1014F00045EA10654FEA00260EF000419D4208BF04
:10150000964244F1FD0404F5407402D25B084FEAB0
:101510003202B61A65EB03055B084FEA32024FF45C
:1015200080104FF4002CB6EB020E75EB030E22BFB9
:10153000B61A754640EA0C005B084FEA3202B6EB79
:10154000020E75EB030E22BFB61A754640EA5C0028
:101550005B084FEA3202B6EB020E75EB030E22BFB8
:10156000B61A754640EA9C005B084FEA3202B6EBB9
:10157000020E75EB030E22BFB61A754640EADC0078
:1015800055EA060E18D04FEA051545EA16754FEADA
:1015900006164FEAC30343EA52734FEAC2025FEAF8
:1015A0001C1CC0D111F4801F0BD141EA00014FF087
:1015B00000004FF0004CB6E711F4801F04BF014358
:1015C0000020B4F1FD0C88BFBCF5E06F3FF6AFAE74
:1015D000B5EB030C04BFB6EB020C5FEA500C50F104
:1015E000000041EB045170BD0EF0004E4EEA113187
:1015F00014EB5C04C2BFD4EB0C0541EA045170BD8E
:1016000041F480114FF0000E013C90E645EA060ED1
:101610008DE60CEA135594EA0C0F08BF95EA0C0FFF
:101620003FF43BAF94EA0C0F0AD150EA01347FF447
:1016300034AF95EA0C0F7FF425AF104619462CE71E
:1016400095EA0C0F06D152EA03353FF4FDAE104681
:10165000194622E750EA410618BF52EA43067FF4D2
:10166000C5AE50EA41047FF40DAF52EA43057FF462
:10167000EBAE12E74FF0FF3C06E000BF4FF0010C6D
:1016800002E000BF4FF0010C4DF804CD4FEA410CD1
:101690007FEA6C5C4FEA430C18BF7FEA6C5C1BD09E
:1016A00001B050EA410C0CBF52EA430C91EA030F1F
:1016B00002BF90EA020F0020704710F1000F91EA7C
:1016C000030F58BF994208BF90422CBFD8176FEA4A
:1016D000E37040F0010070474FEA410C7FEA6C5C18
:1016E00002D150EA013C07D14FEA430C7FEA6C5C1F
:1016F000D6D152EA033CD3D05DF8040B704700BF4B
:101700008446104662468C461946634600E000BF98
:1017100001B5FFF7B7FF002848BF10F1000F01BD6A
:101720004DF808EDFFF7F4FF0CBF012000205DF835
:1017300008FB00BF4DF808EDFFF7EAFF34BF0120BA
:1017400000205DF808FB00BF4DF808EDFFF7E0FF53
:1017500094BF012000205DF808FB00BF4DF808EDA4
:10176000FFF7CEFF94BF012000205DF808FB00BF0B
:101770004DF808EDFFF7C4FF34BF012000205DF8ED
:1017800008FB00BF4FEA4102B2F1E04324BFB3F5CA
:10179000001CDCF1FE5C0DD901F0004C4FEAC002E8
:1017A0004CEA5070B2F1004F40EB830008BF20F0CC
:1017B0000100704711F0804F21D113F13872BCBF86
:1017C00001F00040704741F480114FEA5252C2F1DB
:1017D0001802C2F1200C10FA0CF320FA02F018BF24
:1017E00040F001004FEAC1234FEAD32303FA0CFC77
:1017F00040EA0C0023FA02F34FEA4303CCE77FEA06
:10180000625307D150EA01331EBF4FF0FE4040F44F
:101810004000704701F0004040F0FE4040F40000FE
:10182000704700BF0EB46FF0004100B59CB01DAB17
:1018300002900690079104910848094953F8042B37
:101840000591006802A9019300F00CF80022029BA8
:101850001A701CB05DF804EB03B07047380100202B
:101860000802FFFF2DE9F04FD3B08A4693461D468C
:10187000814601F0D3FA03681846179301F02AFB5A
:10188000BAF80C301290180618D5DAF81030ABB947
:101890004021484602F0C0FACAF80000CAF8100019
:1018A00048B90C23C9F800304FF0FF330F930F985D
:1018B00053B0BDE8F08F4023CAF814300023002253
:1018C000CDE9273309930023CDE910230023CDE987
:1018D000193329AC26940D93159318930F935B46F7
:1018E0001E4613F8012B0AB1252AF9D1B6EB0B07D6
:1018F0000DD0289BC4E900B73B442893279B0133B4
:10190000072B279379DC08340F9B3B440F933378E4
:10191000002B01F0338100234FF0FF3298460A2755
:101920002B2101368DF87B3007921393334613F841
:10193000012B0B920E930B9B203B5A2B00F2A6859A
:10194000DFE813F07E00A405A4058600A405A40525
:10195000A4056500A405A40589009300A4059000D2
:101960009600A405B200B500B500B500B500B500FD
:10197000B500B500B500B500A405A405A405A405EF
:10198000A405A405A4052401A405E200F500240192
:1019900024012401A405A405A405A405C500A405EB
:1019A000A4058304A405A405A405CD04A405EE04A0
:1019B000A405A4051005A405A405A405A405A40573
:1019C000A405A405A4052401A405E200F700240150
:1019D00024012401C800F700DC00A405D500A405FB
:1019E0005E048504BC04DC00A405CD047C00F00486
:1019F000A405A4052F05A4057C005146484626AA47
:101A000002F07AFF002840F02D8129AC7CE748469F
:101A100001F004FA43681846189301F05BFA159038
:101A2000484601F0FBF983682B210D93159B2BB1E0
:101A30000D9B1BB11B780BB148F480680E9E75E7B7
:101A40009DF87B30002BF9D120238DF87B30F5E712
:101A500048F00108F2E755F8043B002B1393EDDA48
:101A60005B42139348F00408E8E78DF87B10E5E744
:101A70000E9B13F8012B2A2A0B9212D155F8042B36
:101A80000E9342EAE2720792D8E7079807FB00221A
:101A9000079213F8012B0B920B9A303A092AF4D9CA
:101AA00048E700220792F7E748F08008C6E70022DF
:101AB0000E9B13920B9A1398303A07FB0022139255
:101AC00013F8012B0B92303A092AF3D932E748F088
:101AD0000808B3E70E9B1B78682B01BF0E9B48F4E8
:101AE000007801330E9318BF48F04008A6E70E9B1C
:101AF0001B786C2B05D10E9B01330E9348F0200808
:101B00009CE748F0100899E72A4652F8043B8DF804
:101B1000E43000230A928DF87B30002708930123DC
:101B20003E463D4607930C970DF1E40BB0E148F0BB
:101B3000100818F0200F11D0073525F007031A46BA
:101B400052F8085B5E680A92002E05DA2D236D427A
:101B500066EB46068DF87B30012389E32B4653F86C
:101B6000046B18F0100F0A9302D03546F617EBE716
:101B700018F0400F03D035B246F3C036E4E718F44E
:101B8000007FF2D075B246F3C016DDE7073525F0C9
:101B900007031946F1E80223CDE91023DDE91063BC
:101BA00023F000450A914FF0FF32304629463A4B68
:101BB00004F098FA18BB4FF0FF3230462946364BF6
:101BC000FFF7C2FDD8B9DDE9100100220023FFF7BD
:101BD000B1FD10B12D238DF87B30304A304B0B997D
:101BE00028F080084729D4BF93469B460323002151
:101BF000CDE9073100273E463B4600F0F9BFDDE95D
:101C000010231046194604F06DFA40B1119B254A85
:101C1000002BBCBF2D238DF87B30234BDFE70B9BC4
:101C200023F02003412B0C9325D130238DF87C30F9
:101C30000B9B48F00208612B0CBF782358238DF8CA
:101C40007D30079B632B31DD4846591C02F0E4F8D8
:101C50008346002840F0F881BAF80C3043F0400386
:101C6000AAF80C30BAF80C3013F0400F0F9B18BFD5
:101C70004FF0FF331AE6079B013300F0E7810C9B1E
:101C8000472B40F0E681079B002B40F0E281089350
:101C9000012307930DE000BFFFFFEF7F736400088F
:101CA000776400087B6400087F64000808900DF1E9
:101CB000E40B48F480731493DDE910731D1EAEBF6E
:101CC000002303F100452D231C930C9B412B40F076
:101CD000D881384620AA294601F004F900224FF0A5
:101CE0007F53FFF7B5FA0022002306460F46FFF7A1
:101CF00017FD08B101232093AD4BAE4A0B995D4609
:101D0000612918BF1A46079B1B92013B09930022C9
:101D1000A94B30463946FFF79BFA0F46064604F0BA
:101D2000F7F91D90FFF72AFA02460B46304639466E
:101D3000FFF7D6F81D9A1B9B06469B5C0F4605F8DD
:101D4000013B099B5A1C169307D0013B09930022C3
:101D50000023FFF7E5FC0028D9D0002230463946A1
:101D6000964BFFF705FD60B9002230463946934B8C
:101D7000FFF7D6FC002800F07F811D9BDB0740F1B8
:101D80007B8130201B9B2495D97B249A531E24935E
:101D900012F8013C8B4200F05E81392B0BBF1B9B7C
:101DA00001339B7ADBB202F8013CA5EB0B030993EC
:101DB0000C9B209D472B40F0B381EF1C03DB079B5E
:101DC000AB4280F2D3810B9B023B0B930B999DF8A6
:101DD0002C2021F02001412908BF0F3205F1FF33EB
:101DE00006BFD2B201210021002B8DF88820B4BF9C
:101DF0002D222B222093B8BFC5F10103092B8DF8AA
:101E0000892040F3A6810A260DF1970093FBF6F591
:101E1000024606FB1531303102F8011C19466329D0
:101E20002B4600F1FF30F1DC3033911E00F8013C0D
:101E30000B460DF189050DF197008342C0F08481B6
:101E40000DF199039B1A814288BF00230DF18A028C
:101E50001A4422ABD31A099A1993012A13440793FF
:101E600002DC18F0010F03D0079B129A134407936A
:101E70000026354628F4806343F4807314930C964F
:101E80001C9B13B12D238DF87B300027DDF850808B
:101E9000079BBB42B8BF3B4614939DF87B3013B100
:101EA000149B0133149318F002031B931EBF149B61
:101EB0000233149318F084031C9321D1DDE913320B
:101EC0009B1A002B16931BDDDDE9272316980132A0
:101ED00010283B4804F10801206000F3E6821698C0
:101EE000072A0344CDE92723606040F3F38251467B
:101EF000484626AA02F000FD002840F01D8629ACC5
:101F00009DF87B20289B6AB10DF17B0222600122A3
:101F100013442893279B62601344072B279300F3F5
:101F2000DB8208341B9A289B62B11FAA226002221E
:101F300013442893279B62600133072B279300F3F8
:101F4000D58208341C9B802B21D1DDE913329B1AEA
:101F5000002B16931BDDDDE927231698013210288C
:101F6000184804F10801206000F3CA821698072A75
:101F70000344CDE92723606040F3D78251464846A9
:101F800026AA02F0B9FC002840F0D68529AC079BB0
:101F9000FF1A002F28DDDDE927320A48102F03F150
:101FA000010304F10801206000F3C1820CE000BFCE
:101FB0009464000883640008000030400000E03FA3
:101FC000A7640008B76400086760072B1744CDE9D1
:101FD000273740F3BF825146484626AA02F08CFCC0
:101FE000002840F0A98529AC18F4807F289F40F094
:101FF000B782079BC4F800B01F4463602897279BF3
:102000000133072B279300F3F082083418F0040FF4
:1020100040F07485DDE913210F9B8A42ACBF9B1809
:102020005B180F93289B3BB15146484626AA02F005
:1020300063FC002840F0808500232793089B002B39
:1020400040F0968529ACE6E0089032E60623089039
:102050001FE608902DE602F8010C96E603F8010B46
:10206000CA1A002AFADA169A169B013203F1010302
:10207000B8BF00231D4498E6169A2B463020A918B5
:10208000EEE70C9B462B05D0452B1DD1079B5E1C14
:10209000022301E00323079E24AA049221AA0392AB
:1020A00020AACDE9016200933A462B46484600F04B
:1020B000D7FF0C9B8346472B08D118F0010F05D1A1
:1020C000249BA3EB0B0372E6079EE1E70BEB0603F1
:1020D00009930C9B462B11D19BF80030302B09D172
:1020E0000022002338462946FFF71AFB10B9C6F133
:1020F00001062096099A209B1A4409920022002387
:1021000038462946FFF70CFB08B1099B249330227F
:10211000249B09999942D3D9591C24911A70F7E745
:102120000C9B462B7FF452AE079A08F00103002D5A
:1021300043EA020329DD002B34D0129BEB181A442A
:10214000079266230B9333E013F8016B05F8016FD8
:1021500073E641B930228DF88A200DF18B023033BD
:1021600002F8013B75E60DF18A02F8E7099BAB42E4
:1021700010DD099B129A002D1344079310DC079A77
:10218000C5F101031A4407920AE06BB1129B079A4A
:102190000133D4E718F0010F1FD0129BEB180793FF
:1021A0006723CFE70795CCE766230B9301230793BB
:1021B00018F480630C9321D00026002D0C967FF735
:1021C0005FAE0D9B1B78FF2B09D10C9B079A1599CD
:1021D000334401FB0323079352E60795E0E7AB4244
:1021E000F3DAED1A0D9B5B7833B10C9B01330C9342
:1021F0000D9B01330D93E4E70136E2E70C9E3FE6C9
:102200002B1D18F0200F0A930AD00F9A2B680F99F4
:10221000D217C3E900120A9DDDF838B0FFF75FBBA3
:1022200018F0100F03D02B680F9A1A60F3E718F01C
:10223000400F03D02B680F9A1A80ECE718F4007F48
:10224000F1D02B680F9A1A70E5E748F0100818F0E3
:10225000200320D0073525F007031A4652F8085B03
:102260005E680A92002328F4806800228DF87B20A3
:10227000079A013200F08D8428F08002089255EA16
:10228000060240F08C84079A002A00F0F480012BAB
:1022900040F088849EE02A4652F8045B18F010064D
:1022A0000A9201D01E46DDE718F0400301D0ADB21E
:1022B000D8E718F40076D5D0EDB2F3E72B4653F803
:1022C000045B78220A9347F63003ADF87C30A24BCA
:1022D00000261A9348F0020802230B92C5E72B460A
:1022E000002553F804BB8DF87B500A93079B581CBC
:1022F00010D01A462946584600F0DEFD0890002806
:1023000000F0D080A0EB0B032F462E46CDE9073519
:102310000C95BDE5584600F0DDFDCDE9070569E403
:1023200048F0100818F0200309D0073525F00703FE
:102330001A4652F8085B5E680A92012395E72A461E
:1023400052F8045B18F010060A9201D01E46F4E71A
:1023500018F0400301D0ADB2EFE718F40076ECD0EE
:10236000EDB2F3E77D4B1A9318F020031BD007352D
:1023700025F007031A4652F8085B5E680A9218F0C7
:10238000010F0AD055EA060307D030238DF87C30C0
:102390000B9B48F002088DF87D30022328F48068FA
:1023A00063E76D4BDFE72A4652F8045B18F010062E
:1023B0000A9201D01E46E2E718F0400301D0ADB208
:1023C000DDE718F40076DAD0EDB2F3E70A2D76F106
:1023D000000305D230358DF847510DF2471BFDE360
:1023E00000230993089B52AF03F480630C930A22E5
:1023F00000232846314603F0B3FE099B30320133F7
:1024000009930C9B8846149007F1FF3B07F8012CB9
:10241000D3B10D9B099A1B789A4215D1FF2A13D08C
:102420000A2D76F100030FD3159B1899ABEB030B24
:102430001A46584600F0DFFC0D9B5B781BB10D9BE4
:1024400001330D93002309930A2D76F10006C0F0A5
:10245000C58346465F46149DC9E71A9A05F00F03E7
:10246000D35C2D0945EA067536090BF8013D55EA9E
:102470000603F2D1B2E333B918F0010F03D03023D1
:102480008DF84731A9E70DF5A47BA7E30B9B002B43
:1024900000F074838DF8E43000230A958DF87B30CA
:1024A000FFF73BBB089FFFF7A6BB1020072A03449A
:1024B000CDE92723606008DD5146484626AA02F090
:1024C0001BFA002840F0388329A9169B0C46103BC4
:1024D0001693F9E40C4613E55146484626AA02F045
:1024E0000BFA002840F0288329AC1BE551464846EA
:1024F00026AA02F001FA002840F01E8329AC21E54B
:102500001020072A0344CDE92723606008DD5146E7
:10251000484626AA02F0F0F9002840F00D8329A9C8
:10252000169B0C46103B169315E50C462FE5102024
:10253000072B0244CDE92732606008DD514648464A
:1025400026AA02F0D9F9002840F0F68229A90C4603
:10255000103F20E50C4647E58364000894640008BA
:102560000B9B652B40F33082DDE910010022002334
:10257000FFF7D6F8002868D06D4B236001231F4475
:102580006360279B28970133072B279337DC083498
:10259000209B099A934203DB18F0010F3FF436ADFC
:1025A000179B129A2360129B6360289B1344289305
:1025B000279B0133072B27932BDC0834099B5D1ED7
:1025C000002D7FF723AD10275A4E102DDDE927325D
:1025D00004F1080103F10103266024DC6560154461
:1025E0002895072B279340F386825146484626AA12
:1025F00002F082F9002840F09F8229AC06E551469E
:10260000484626AA02F078F9002840F0958229ACC5
:10261000BEE75146484626AA02F06EF9002840F06F
:102620008B8229ACCAE71032072BCDE927326760CD
:1026300008DD5146484626AA02F05EF9002840F01F
:102640007B8229A90C46103DBFE7209B002B73DC41
:10265000374B236001231F446360279B2897013376
:10266000072B27933DDC08340999209B289A0B43BC
:1026700008F001010B433FF4C9AC179B2360129B88
:102680001A446360279B28920133072B279332DC7F
:102690000834209D002D1BDA23461027254E6D425D
:1026A000102DDDE9272104F1080402F101021E606A
:1026B0002BDC5D60072A0D44CDE9272508DD514656
:1026C000484626AA02F018F9002840F0358229ACC5
:1026D000099B099A6360289BC4F800B013442893AF
:1026E0008DE45146484626AA02F006F9002840F03B
:1026F000238229ACB8E75146484626AA02F0FCF8E6
:10270000002840F0198229ACC3E71031072ACDE92F
:1027100027215F6008DD5146484626AA02F0ECF802
:10272000002840F0098229AC2346103DB8E700BFDD
:10273000A5640008B7640008099BAB42A8BF2B46FC
:10274000002B079309DD1F44C4E900B3279B28979A
:102750000133072B279374DC0834079B002BB4BF8D
:102760002F46EF1A002F18DDDDE927329548102F8C
:1027700003F1010304F1080120606CDC6760072BA2
:102780001744CDE9273779DD5146484626AA02F09D
:10279000B3F8002840F0D08129AC18F4806F5D4474
:1027A00009D00C9B002B6BD1002E6BD1099B5B4495
:1027B0009D4228BF1D46209B099A934202DB18F0D8
:1027C000010F0ED0179B129A2360129B6360289B07
:1027D00013442893279B0133072B279300F3CC80C6
:1027E0000834099B209E9E1B5B445B1B9E42A8BF36
:1027F0001E46002E289B0ADD33442893279BC4E9FC
:1028000000560133072B279300F3C0800834209D26
:10281000099B002EA3EB0505A8BFAD1B002D7FF77C
:10282000F5AB1027674E102DDDE9273204F10801C2
:1028300003F10103266000F3B3802A446560289207
:10284000CFE65146484626AA02F056F8002840F046
:10285000738129AC81E71020072B0244CDE9273290
:10286000606008DD5146484626AA02F045F8002877
:1028700040F0628129A90C46103F75E70C468CE7B1
:10288000002E49D0013E189B159A2360159B63606A
:10289000289B13442893279B0133072B279342DC63
:1028A0000834099B5B445A1B0D9B1B789A42A8BFB6
:1028B0001A46002A289B079209DD13442893279B78
:1028C000C4E900520133072B279336DC08340D9BF3
:1028D0001F78079B002BA8BFFF1A002F18DDDDE92A
:1028E00027323848102F03F1010304F1080120605A
:1028F0002DDC3A44072BCDE9273267603ADD51469B
:10290000484626AA01F0F8FF002840F0158129ACBE
:102910000D9B1B781D4444E70D9B013B0D930C9BC5
:10292000013B0C93AFE75146484626AA01F0E4FF6D
:10293000002840F0018129ACB3E75146484626AA59
:1029400001F0DAFF002840F0F78029ACBFE7102043
:10295000072B0244CDE92732606008DD5146484626
:1029600026AA01F0C9FF002840F0E68029A90C46FC
:10297000103FB4E70C46CBE75146484626AA01F083
:10298000BBFF002840F0D88029AC2AE751464846D2
:1029900026AA01F0B1FF002840F0CE8029AC36E72E
:1029A0001032072BCDE92732676008DD51464846D3
:1029B00026AA01F0A1FF002840F0BE8029A90C46FC
:1029C000103D30E7B7640008099A279B012A07F1F8
:1029D000010703F1010304F1080502DC18F0010FFF
:1029E0007ED00122072BCDE92737C4F800B0626002
:1029F00008DD5146484626AA01F07EFF002840F037
:102A00009B8029AD179B129A2B60129B6B60289BB1
:102A100013442893279B0133072B279332DC083577
:102A2000099B0022DDE91001DDE927765C1E002309
:102A3000FEF776FE00282ED10BF10103C5E9003424
:102A4000099B0137013E1E44072FCDE9277650DD53
:102A50005146484626AA01F04FFF00286CD129AD07
:102A600022AB2B60199B199A6B60289B1344289307
:102A7000279B0133072B27933FF7B7AD05F10804D8
:102A8000FFF7C4BA5146484626AA01F035FF002890
:102A900052D129ADC4E7002CE2DD1027564E102C90
:102AA000DDE9273205F1080103F101032E6007DC9F
:102AB0006C60072B1444CDE92734C9DC0D46CFE701
:102AC0001032072BCDE927326F6006DD51464846AC
:102AD00026AA01F011FF78BB29A90D46103CDEE7BC
:102AE0000122072BCDE92737C4F800B06260B7DDBB
:102AF000AEE70835B4E70C46FFF788BADDE91332D4
:102B00009D1A002D7FF786AA10273C4E102DDDE977
:102B10002732266003F1010318DC6560072B15449A
:102B2000CDE927357FF776AA5146484626AA01F017
:102B3000E3FE00283FF46EAA089B002B3FF492A806
:102B40001946484601F0A8F8FFF78CB81032072B59
:102B5000CDE92732676002DC0834103DD6E75146E4
:102B6000484626AA01F0C8FE0028E5D129ACF4E7C2
:102B70004846089901F090F8FFF764BA289B002BAB
:102B80003FF470A85146484626AA01F0B5FEFFF76B
:102B900069B855EA0602CDF820803FF478AB012BE6
:102BA0003FF414AC022B0DF5A47B3FF456AC05F0BA
:102BB0000703ED0845EA4675F608303355EA060185
:102BC0005A460BF8013DF2D10899C90706D5302BBA
:102BD00004D030230BF8013CA2F1020B52ABA3EB63
:102BE0000B03079F079300231E46DDF82080089300
:102BF0001D460C93FFF74CB9B7640008A7640008A2
:102C0000002310B50446C0E90033C0E904338360F3
:102C100081814366C2818361194608225C3000F0DD
:102C2000E2F8054BE4612362044B6362044BA36248
:102C3000044BE36210BD00BF612D0008832D000826
:102C4000BB2D0008DF2D0008024A0349034800F0AD
:102C500069B800BF3C010020F349000818000020BB
:102C600041680C4B10B59942044601D001F0C1FEF9
:102C7000A168094B994202D0204601F0BAFEE168F2
:102C8000064B994204D02046BDE8104001F0B1BE89
:102C900010BD00BFC80600203007002098070020A4
:102CA00010B50B4B0B4C0C4A20461A600421002235
:102CB000FFF7A6FF04F1680001220921FFF7A0FF3A
:102CC00004F1D0000222BDE810401221FFF798BFA6
:102CD00000080020C8060020492C0008014800F028
:102CE000E9B800BF09080020014800F0E4B800BFBF
:102CF0000908002010B50446FFF7F0FF636B1BB115
:102D0000BDE81040FFF7F0BF044B6363044B1B6842
:102D1000002BF5D1FFF7C4FFF2E700BF612C0008DC
:102D2000000800202DE9F84307468846144600268F
:102D3000D4E90195B9F1010905D52468002CF7D132
:102D40003046BDE8F883AB89012B07D9B5F90E30C1
:102D5000013303D029463846C04706436835E9E7C2
:102D600010B50C46B1F90E1000F07EF80028ABBF8C
:102D7000236DA3891B1823F48053ACBF2365A38163
:102D800010BD2DE9F0411F468B890546DB050C4639
:102D9000164605D502230022B1F90E1000F052F8B4
:102DA000A389324623F48053A38128463B46B4F9D5
:102DB0000E10BDE8F04100F069B810B50C46B1F94D
:102DC0000E1000F03FF8431CA38915BF206523F4C3
:102DD000805343F48053A38118BFA38110BDB1F980
:102DE0000E1000F01FB803460244934200D1704712
:102DF00003F8011BF9E7034610B5013932B111F8A8
:102E0000014F013A03F8014B002CF7D100211A447D
:102E1000934200D110BD03F8011BF9E70048704749
:102E20004806002038B50023054D044608462B60AF
:102E3000FDF78EFF431C02D12B6803B1236038BD20
:102E40000408002038B50446084611460022054D06
:102E50002A601A46FDF7A0FF431C02D12B6803B17C
:102E6000236038BD0408002038B5044608461146E2
:102E70000022054D2A601A46FDF79AFF431C02D135
:102E80002B6803B1236038BD0408002038B5044620
:102E9000084611460022054D2A601A46FDF794FFA8
:102EA000431C02D12B6803B1236038BD0408002005
:102EB0007047704770477047034610B5C9B2024467
:102EC0009342184601D1002003E0047801338C427C
:102ED000F6D110BD034613F8012B002AFBD1181AB6
:102EE00001387047F8B5174600223A60144A21F0BD
:102EF0000046964204460D460B461EDC024632430F
:102F00001BD0104A0A4052B900220F4BFEF7A0F91D
:102F10006FF0350204460B4621F000463A603A68ED
:102F2000361523F0FF43A6F2FE3623F4E0033244C5
:102F300043F07F553A6045F4001520462946F8BD18
:102F4000FFFFEF7F0000F07F000050432DE9F74FB7
:102F500003690C690746A3427FDB013C00F11405BD
:102F600001F1140805EB8403019358F8243055F857
:102F7000242001339A42B2FBF3F64FEA840B08EBAC
:102F8000840931D34FF0000E4046AC46F24650F86B
:102F9000042B93B206FB03E34FEA124E1A0C9BB2CA
:102FA00006FB0E22AAEB0303DCF800A04FEA124E48
:102FB0001FFA8AFA5344DCF800A092B2C2EB1A421C
:102FC00002EB23429BB243EA024381454FEA224A85
:102FD0004CF8043BDBD255F80B302BB9019B043B7A
:102FE0009D421A462DD33C61384601F087FB0028EC
:102FF00023DB29460020013658F8042BD1F800C005
:1030000093B2C31A120C1FFA8CF00344C2EB1C4299
:1030100002EB23429BB243EA0243C1454FEA2240FE
:1030200041F8043BE8D255F8242005EB840322B98B
:10303000043B9D421A460AD33C61304603B0BDE8CA
:10304000F08F1268043B002ACDD1013CC8E712681A
:10305000043B002AF0D1013CEBE70020EEE7000042
:103060002DE9F04F816B97B0814614461D4692467C
:103070009B46239E49B10123C26B93408B604A60FB
:1030800001F035F90023C9F838302B1EADBF0023FD
:10309000012223F0004B3360A34BB8BF326033EA08
:1030A0000B03CDF80CB019D142F20F73229A1360C2
:1030B000CBF31303234300F08685249B0BB99B4B72
:1030C00021E09A4B04930333249A1360049817B0B9
:1030D000BDE8F08F964B04930833F5E700220023F8
:1030E00050465946CDE90CABFEF71AFB074660B1D6
:1030F0000123229A1360249B002B00F061858D4BE5
:10310000249A1360013B0493E0E714AB019315ABE1
:1031100000934846DDE90C2301F098FB039B8046B1
:10312000C3F30A56002E00F08280DDE90C010D9BEE
:10313000A6F2FF36C3F3130343F07F5343F4401367
:103140001397194600227C4BFDF7CAFE70A3D3E902
:103150000023FEF77DF870A3D3E90023FDF7C2FE3C
:10316000044630460D46FEF709F86DA3D3E9002367
:10317000FEF76EF802460B4620462946FDF7B2FEE2
:1031800004460D4602F0C4FF0022039000232046AF
:103190002946FEF7CFFA50B10398FDF7EFFF22461C
:1031A0002B46FEF7BDFA10B9039B013B0393039B2B
:1031B000162B5AD8DDE90C01039A604B03EBC203CE
:1031C000D3E90023FEF7B6FA002850D0039B013B59
:1031D000039300231193149B9B1B5A1E49BFC3F1F9
:1031E000010300230693002358BF0693099248BFAA
:1031F0000993039B002B3CDB099B039A134409931F
:10320000002310920A93209B092B6AD8052BC4BF78
:10321000043B2093209BC8BF0024A3F10203D8BF26
:103220000124032B68D8DFE803F02D3A385ADDE992
:1032300014631E4406F23243202BC1BF039AC3F12C
:1032400040039A4006F21243CBBF24FA03F3C3F1C2
:10325000200342EA030004FA03F0FDF77FFF012296
:10326000A1F1F873013E13926BE70123B2E71190CD
:10327000B1E7069B039A9B1A069353420A930023D5
:103280001093C0E700230B93219B002B37DC012315
:103290001A460893059321920CE00123F3E70023DB
:1032A000219A0B93039B134408930133012B05933D
:1032B000B8BF01230021042202F11400984222D950
:1032C0004846C9F83C1000F0EDFF049000283BD1BF
:1032D000024640F2AF111A4B1A4801F0DBFC012301
:1032E000DEE7012400230B9420934FF0FF330022EC
:1032F000089305931223CEE701230B93F5E7219B57
:1033000008930593D6E701315200D5E7AFF300806B
:1033100061436F63A787D23FB3C8608B288AC63FDB
:10332000FB799F501344D33F0000F07FD064000826
:10333000C7640008A66400080000F83FC0650008E4
:10334000D4640008E5640008049BC9F83830059B84
:103350000E2B00F2A280002C00F09F80039B002B1C
:1033600035DD03F00F02964B03EBC203D3E90045B2
:10337000039BD8054FEA231617D5DDE90C01914BC5
:103380000327D3E90823FEF78DF882468B4606F023
:103390000F068C4B0E9356B922462B465046594683
:1033A000FEF780F882468B462AE00227F1E7F10714
:1033B00009D50E9B2046D3E900232946FDF748FF97
:1033C00004460D4601370E9B76100833E2E700F005
:1033D0009F80DDE90C01039B02275C42784B04F0DF
:1033E0000F0203EBC203D3E90023FDF731FF0023F3
:1033F00082468B46734D2411002C7ED1002BD1D1F7
:10340000119BCDE90EAB002B00F0848000225046CA
:1034100059466D4BFEF78EF900287BD0059B002B9B
:1034200078D0089B002B36DD039B5046594600227E
:103430005D1E664BFDF70CFF82468B46089C0137EC
:103440003846FDF79BFE52465B46FDF701FF002222
:103450005F4BFDF747FDA1F15076CDE90E010F96C8
:10346000002C5AD10022504659465A4BFDF738FDE0
:1034700033460E9A82468B46FEF77AF9002840F0D2
:103480009582504659460E9A06F10043FEF752F9CE
:10349000002840F08982DDE90CAB159B002BC0F2BF
:1034A0004E81039A0E2A00F34A81454B03EBC20377
:1034B000D3E90034CDE90634219B002B80F2D7807C
:1034C000059B002B00F3D38040F06D82DDE90601FF
:1034D0000022404BFDF7BCFE52465B46FEF73EF92C
:1034E000059C2546002840F046823123049E06F8BC
:1034F000013B039B0133039341E2E20705D5D5E984
:103500000023FDF7A5FE012301376410083573E79A
:10351000022775E7039D059C92E70499284B2144F7
:1035200012910B9903EBC403DDE90E6753E9022303
:10353000002953D000202849FDF7B4FF32463B460E
:10354000FDF7CEFCCDE90E01049E5946504602F02F
:10355000DFFD0446FDF712FE02460B465046594673
:10356000FDF7BEFCDDE90E23303406F8014B824640
:103570008B46FEF7DFF8002871D152465B460020EB
:103580001149FDF7ADFCDDE90E23FEF7D3F8002865
:1035900040F0B780129B9E423FF47DAFDDE90E0103
:1035A00000220A4BFDF754FE0022CDE90E01074B25
:1035B00050465946FDF74CFE82468B46C5E700BF94
:1035C000C0650008986500080000F03F0000244036
:1035D00000001C40000014400000E03F3046394627
:1035E000FDF736FECDE90E01129F049E5946504666
:1035F00002F08EFD0446FDF7C1FD02460B46504623
:103600005946FDF76DFC3034129B06F8014B9E4283
:1036100082468B464FF0000223D1DDE90E01B14B0B
:10362000FDF760FC02460B4650465946FEF7A0F8EF
:10363000002866D1DDE90E230020AA49FDF750FCE1
:1036400002460B4650465946FEF774F800283FF4F0
:1036500022AF3E4616F8013C013F302BF9D00395CE
:103660003EE0A14BFDF7F4FD82468B46BEE7544693
:103670004FF0000A5D46049EDFF86CB2DDE90623D8
:1036800020462946FDF70EFF02F042FD0746FDF7F2
:1036900075FDDDE90623FDF7DBFD02460B462046FE
:1036A0002946FDF71DFC07F1300406F8014B049C88
:1036B000059D341BA54202460B4633D1FDF712FC93
:1036C000DDE9062304460D46FEF752F8C0B9DDE9F0
:1036D000062320462946FEF723F808B1FB070FD43E
:1036E0004146484600F003FE00233370039B229AB4
:1036F00001331360249B002B3FF4E8AC1E60E5E42B
:10370000039D33461E4613F8012D392A06D1049A2B
:103710009A42F7D13022049901350A701A780132A1
:103720001A709CE752465B46FDF792FD002200238B
:1037300004460D46FDF7F4FF00289FD0D0E70B9A12
:10374000002A00F0CA80209A012A00F3AD80139A63
:10375000002A00F0A58003F233430A9C069E069AD5
:1037600001211A440692099A48461A44099200F027
:103770005BFE054666B1099B002B09DDB342A8BF7D
:103780003346069AF61AD21A0692099AD31A099360
:103790000A9BF3B10B9B002B00F0A880002C10DDDE
:1037A00029462246484600F0FDFE424601460546AF
:1037B000484600F04FFE07464146484600F097FD58
:1037C000B8460A9B1A1B04D04146484600F0EAFE60
:1037D00080460121484600F027FE109B0446002B3E
:1037E00040F386801A460146484600F0DBFE209BE7
:1037F0000446012B7FDD0027236904EB830318694E
:1038000000F0C4FDC0F12000099B184410F01F0017
:1038100000F09880C0F12003042B40F38880069BC1
:10382000C0F11C0003440693099B0644034409931A
:10383000069B002B05DD41461A46484600F0F2FE85
:103840008046099B002B05DD21461A46484600F0BC
:10385000E9FE0446119B002B76D02146404600F03D
:103860004DFF002870DA039B4146013B03930A2277
:103870000023484600F044FD0B9B8046002B00F0DF
:10388000A981002329460A22484600F039FD089BF9
:103890000546002B00F39380209B022B5CDC8EE01E
:1038A000149BC3F1360358E7059B5C1E0A9BA34299
:1038B000BFBF0A9B109AE31AD218A8BF1C1B059B16
:1038C000BEBF10920A940024002BB7BFDDE9052388
:1038D000DDE905369E1A002341E70A9C069E0B9DF2
:1038E00048E700BF0000E03F000024400A9A6BE771
:1038F000209B012B17DCBAF1000F14D1CBF313037B
:103900009BB92BF000473F0D3F0537B10127069BC0
:1039100001330693099B01330993109B002B7FF41D
:103920006BAF012070E70027F7E75746F5E73FF454
:103930007FAF069A1C331A440692099A1E441A4411
:10394000099275E70346F4E7059B002B31DC209BC9
:10395000022B2EDD059B0893089B63B921460522A7
:10396000484600F0CDFC01460446404600F0C6FE45
:1039700000283FF7BAAD219B049EDB430393002749
:103980002146484600F0B3FC002D3FF4A9AE2FB10C
:10399000AF4203D03946484600F0A9FC29464846C4
:1039A00000F0A5FC9CE600242546E4E703952546A7
:1039B0009BE50B9B002B00F0C480059B0893002E19
:1039C00005DD29463246484600F02CFE0546002F0C
:1039D00058D04846696800F065FC064620B90246A2
:1039E00040F2EF217F4B77E42A6905F10C010232A6
:1039F00092000C3001F040F901223146484600F0B7
:103A000011FE2F460546049B049A01330593089B3B
:103A100013440A930AF001030993059B214640468B
:103A200003F1FF3BFFF792FA3946069000F1300AA6
:103A3000404600F063FE2A4608902146484600F0C2
:103A400079FEC2680646FAB90146404600F056FEC5
:103A50000246314648460B9200F049FC209B0B9AE7
:103A6000059E43EA0201099B19430FD1BAF1390FB0
:103A700028D0089B002B02DD069B03F1310A8BF84E
:103A800000A07DE72846BCE70122E2E7089B002B67
:103A900004DB20990B4309990B4320D1002AEEDD6A
:103AA00041460122484600F0BDFD2146804600F017
:103AB00025FE002803DCE2D11AF0010FDFD0BAF1B5
:103AC000390FD9D139238BF8003033461E4616F80A
:103AD000012C013B392A6AD001321A7050E7002AC2
:103AE00007DDBAF1390FEDD00AF101038BF8003090
:103AF00046E7059B0A9A03F801AC934241D0414640
:103B000000230A22484600F0FBFBAF4280464FF0FC
:103B100000034FF00A023946484607D100F0F0FB97
:103B200007460546059B0133059376E700F0E8FB61
:103B30002946074600230A22484600F0E1FB0546D5
:103B4000F0E7059B0893049E21464046FFF7FEF9E7
:103B5000049B00F1300A06F801ABF21A089B93426D
:103B600007DD414600230A22484600F0C9FB804693
:103B7000EAE7089B0027002BCCBF1E460126049BCA
:103B80001E4441460122484600F04CFD2146804635
:103B900000F0B4FD002898DC02D11AF0010F94D196
:103BA00033461E4613F8012D302AFAD0E8E6049A6F
:103BB0009A428BD1039B0133039331231370DFE6C9
:103BC000094BFFF7A0BA249B002B7FF483AA074B75
:103BD000FFF799BA089B002BB5DC209B022B3FF71F
:103BE000BBAEB0E7D4640008A5640008C764000851
:103BF0002DE9F041064608200C4601F031F88046D8
:103C0000224F304600F042FBBB685D6825F003059B
:103C10002C1B113C4444B4FBF8F4013C08FB04F4B5
:103C2000A04505DD304600F037FB0020BDE8F081FF
:103C30000021304601F004F8BB682B449842F1D1D2
:103C40003046614200F0FCFF013010D100213046C7
:103C500000F0F6FFBA68831A0F2BE3DD0C4943F03E
:103C6000010309685360401A0A490860DAE7BB6833
:103C7000084A2D1B45F001055D60136830461B1B8B
:103C8000136000F009FB0120D0E700BF48010020CD
:103C9000500500200C080020F8B505460F46002905
:103CA00000F0B18000F0F2FA57F8042C564822F0E8
:103CB0000104A7F1080303EB040C8168DCF804603D
:103CC000614526F0030602F001021BD126443AB9F1
:103CD00057F8082C9B1A1644D3E90212CA60916067
:103CE00046F001025A608360484B1B68B34204D817
:103CF000474B28461968FFF77BFF2846BDE8F84088
:103D000000F0CABACCF80460002A38D157F8081C71
:103D100000F108075B1A0C449968B94231D0DF689A
:103D2000CF60B9600CEB06014968C9070BD4DCF819
:103D3000081034443ABB374EB14224D10122C0E9C5
:103D40000433C3E9021144F0010159601C51002AF7
:103D5000D3D1B4F5007F1BD20121E2086409A14050
:103D6000446801322143416050F8324000EBC20107
:103D70000839C3E9024140F83230E360BDE7002270
:103D8000D0E70122CEE7DCF80C60CE60B160DAE764
:103D9000B4F5206F4FEA542214D2A2093832511CD4
:103DA00050F8311000EBC2068E4225D1012492104A
:103DB00004FA02F2446822434260C3E90216B36087
:103DC000CB609AE7142A01D85B32E8E7542A02D87C
:103DD000220B6E32E3E7B2F5AA7F02D8E20B77320C
:103DE000DDE740F254518A4296BFA20C7E227C321B
:103DF000D5E789688E4204D04A6822F00302A242C5
:103E0000F7D8CE68D9E7F8BD480100205405002056
:103E10003C0800205001002001F10B03162B2DE976
:103E2000F74F054606D933F0070704D50C232B605E
:103E30000024A1E11027B942F8D8284600F026FA5C
:103E4000B7F5FC7FAE4E37D207F108023244546812
:103E5000A2F108018C424FEAD70302D1D468A242F2
:103E600010D06368D4E9021223F00303CA6023442C
:103E700091605A6842F001025A60284600F00CFA3C
:103E8000083479E1023334699E498C4277D0626804
:103E900022F0030CACEB07000F2848DDE21940F0DC
:103EA000010347F001076760C6E90422C2E9021175
:103EB000536044F80C00E0E77B0A2AD0042B12D8A8
:103EC000BB0938335A1C06EBC2025468A2F1080C35
:103ED000644506D0626822F00302D01B0F281CDD67
:103EE000013B0133CFE7142B01D85B33EAE7542BB6
:103EF00002D83B0B6E33E5E7B3F5AA7F02D8FB0B84
:103F00007733DFE740F25452934204D8BB0C7C3342
:103F1000D8E73F23D6E77E23D4E70028E16804DB17
:103F2000A368D9608B60A318A3E70C46D0E70028EC
:103F3000C6E9041107DBA444DCF8043043F00103B4
:103F4000CCF8043099E7BCF5007F706880F093806E
:103F50004FEADC024FEA5C1E4FF0010C0CFA0EFC3B
:103F60004CEA0000013256F832C0706006EBC20025
:103F70000838C4E902C046F83240CCF80C400122AF
:103F8000981082407068904226D3104206D123F0E8
:103F900003035200104203F10403FAD006EBC308F6
:103FA000C1469E46D9F80C404C4540F0B7800EF112
:103FB000010E1EF0030F09F10809F3D1980740F034
:103FC000E180736823EA02037360706852009042D4
:103FD00002D3002A40F0E280D6F808A0DAF80430D4
:103FE00023F00309B94504D3A9EB07020F2A00F314
:103FF0004081454B082019680AEB090B1031394400
:10400000019100F02DFE414A019913688046013369
:104010001FBF01F1FF3109184342194028460191A1
:1040200000F00EFE421C044600F0F6808345019924
:10403000364A02D9B24540F0EF80354BA3451868A7
:1040400008F1FF3C0844186040F0AA801BEA0C0FFE
:1040500040F0A680B268494441F0010151602D4A08
:104060001B6811688B4288BF13602B4A11688B4212
:1040700088BF1360D0E0BCF5206F4FEA5C2218D2F5
:104080004FEA9C12383202F1010E56F83EE006EB80
:10409000C208F0452BD14FF0010C92100CFA02F23D
:1040A00002437260C4E902E8C8F80840CEF80C4048
:1040B00065E7142A01D85B32E5E7542A03D84FEAB2
:1040C0001C326E32DFE7B2F5AA7F03D84FEADC324A
:1040D0007732D8E740F2545E724596BF4FEA9C4271
:1040E0007E227C32CFE7DEF808E0F04505D0DEF82E
:1040F000042022F003026245F5D8DEF80C80D1E7F7
:1041000048010020500100203C08002050050020FC
:104110000C08002034080020380800206068D4F81B
:104120000CC020F00300A0EB070ABAF10F0F12DD5C
:10413000A368E21947F001076760C3F80CC0CCF828
:1041400008304AF00103C6E90422C2E902115360B3
:1041500044F800A091E6BAF1000F11DB2044436857
:1041600043F00103436054F8083F2846C3F80CC0ED
:10417000CCF8083000F090F8204603B0BDE8F08F8E
:10418000644611E758F80809013B40453FF416AF73
:104190001BE7043352001042FBD0FFE67346FAE7F8
:1041A000D2F800E0BEF1FF3F1BBFA4EB0B0B0BEB03
:1041B000000214601A6014F0070B0EBF5846CBF1D2
:1041C00008002418621802EA0C018044A8EB0108D8
:1041D00008EA0C0841462846019200F031FD431CD4
:1041E000019A294B07D1BBF1000F23D04FF00008F3
:1041F000ABF1080010441A68001B4044424440F0F0
:104200000100B245B4601A6060603FF428AFB9F1B4
:104210000F0F12D801236360B3685B6823F00303B8
:10422000BB42A3EB070201D30F2A22DC284600F091
:1042300033F8FDE51046D846DDE70521DAF804201D
:10424000A9F10C0929F0070902F0010242EA09026A
:10425000CAF80420B9F10F0F0AEB0902C2E90111F3
:104260007FF6FDAE28460AF10801FFF715FD064B63
:10427000F5E6B46847F0010342F0010227446360A9
:10428000B7607A60F9E500BF0C0800200148FEF72E
:1042900011BE00BF080800200148FEF70CBE00BF99
:1042A00008080020436C70B505460C467BB16B6C6A
:1042B00053F82400A0B9012101FA04F6721D284622
:1042C000920000F005FD48B1C0E901460BE0212253
:1042D000042100F0FDFC68640028E8D1002070BDD6
:1042E000026843F824200023C0E90333F7E731B123
:1042F000436C4A6853F82200086043F82210704764
:104300002DE9F04107460C461E4600200D6901F1DB
:10431000140CDCF80030013099B202FB01611E0C74
:104320000B0C02FB063389B201EB034185424FEAD5
:1043300013464CF8041BECDC0EB3A368AB4219DC4B
:10434000616838460131FFF7ADFF804628B9024663
:10435000BA210C4B0C4800F09DFC226904F10C01C1
:10436000023292000C3000F087FC21463846FFF7FD
:10437000BEFF444604EB850301355E61256120469E
:10438000BDE8F081D46400083D650008020C120409
:104390000346CAB90304102013F07F4F04BF1B0269
:1043A000083013F0704F04BF1B01043013F0404F6E
:1043B00004BF9B000230002B05DB13F0804F00F19F
:1043C000010008BF202070470020E5E7036802468F
:1043D00013F007000BD0D90721D4980749BF5B0819
:1043E0009B08012013605CBF02201360704799B2E4
:1043F00009B910201B0CD9B209B908301B0A1907DA
:1044000004BF1B090430990704BF9B080230D90779
:1044100003D45B0800F1010003D013607047002053
:10442000704720207047000010B50C460121FFF7AF
:1044300039FF024628B940F24511044B044800F008
:1044400029FC01234461036110BD00BFD46400084E
:104450003D6500082DE9F04F91460A69D9F8103002
:104460000C469A42BEBF0B464C4699462769D9F87E
:1044700010A0A368616807EB0A06B34285B0B8BF15
:104480000131FFF70FFF30B902464FF4B171434BD2
:10449000434800F0FFFB00F114052B46002205EB1A
:1044A0008608434521D304F1140303EB870709F180
:1044B000140303EB8A0202923A1B153A22F003021C
:1044C000043204F115018F4238BF04220192029A8E
:1044D00003939A420CD8002E03DD58F8043D002BBC
:1044E0005AD0066105B0BDE8F08F43F8042BD8E739
:1044F000B3F800A0BAF1000F23D0A9464FF0000C8A
:1045000004F1140E5EF8042BD9F800101FFA82FB98
:1045100089B20AFB0B116144D9F800C0120C4FEAB2
:104520001C4C0AFB02C202EB114289B241EA024171
:1045300077454FEA124C49F8041BE3D8019A45F835
:1045400002C0039A0433B2F80290B9F1000F21D0EF
:10455000AE464FF0000A296804F1140CBCF800B014
:10456000BEF8022089B209FB0B22524441EA024103
:104570004EF8041B5CF8041B4FEA114ABEF8001009
:10458000674509FB0A1101EB12414FEA114AE5D8D0
:10459000019AA95004359AE7013E9CE7D4640008CB
:1045A0003D6500082DE9F843154612F00302064662
:1045B0000F4607D01A4C013A002354F82220FFF787
:1045C0009FFE0746AD1027D0346C44B940F27121EC
:1045D0003046FFF729FF00230446306403604FF0A4
:1045E0000009EB070AD5394622463046FFF732FF6D
:1045F000804639463046FFF77AFE47466D100BD0AD
:10460000206838B9224621463046FFF723FF206054
:10461000C0F800900446E4E73846BDE8F88300BFE0
:10462000886600082DE9F0470C4607469146236945
:10463000496803EB6218A3684FEA621A08F10106A1
:10464000B3420BDB3846FFF72DFE054648B902465C
:104650004FF4EF71274B284800F01CFB01315B0041
:10466000EEE7002300F1140100F110021846534553
:1046700033DB20692AEAEA7A04F1140319F01F09EE
:1046800001EB8A0103EB800C2BD08A460022C9F192
:10469000200E186800FA09F010434AF8040B53F88A
:1046A000042B9C4522FA0EF2F3D8ACEB0403153B25
:1046B00023F00303043304F11500844538BF0423B9
:1046C000CA500AB108F10206013E384621462E6161
:1046D000FFF70DFE2846BDE8F08742F8040F0133CE
:1046E000C5E7043953F8042B9C4541F8042FF9D849
:1046F000EAE700BFD46400083D65000803460A6984
:10470000006930B5801A0DD11433143103EB8204E3
:1047100001EB820154F8045D51F8042D954202D05A
:1047200004D3012030BDA342F4D3FBE74FF0FF30A8
:10473000F8E700002DE9F84F0D46074611462846D8
:104740001446FFF7DBFF061E11D131463846FFF74E
:10475000A9FD024628B940F237213A4B3A4800F009
:1047600099FA0123C0E904361046BDE8F88FA4BFCA
:1047700023462C4638466168A6BF1D460026012602
:10478000FFF790FD024618B940F245212D4BE5E7B1
:1047900002F11408C2464FF0000C2769C6602E696A
:1047A00004F1140005F1140900EB870E09EB8606ED
:1047B000103454F804BF59F8043B1FFA8BF16144DC
:1047C0001FFA83FC1B0CA1EB0C01C3EB1B4303EB97
:1047D000214389B241EA03414E454FEA234C4AF84E
:1047E000041BE6D8731B153B23F003031535043374
:1047F000AE4238BF0423184443441E46054675455F
:104800000ED30EF10301091A21F003010338864586
:1048100038BF00210B4453F8041D89B11761A3E789
:1048200055F8048B1FFA88F161440C1404EB18440A
:1048300089B241EA04414FEA244C46F8041BDEE702
:10484000013FE8E7D46400083D650008F7B50121A1
:1048500017461C46089EFFF725FD054630B902465F
:1048600040F20F31224B234800F014FAC4F3130333
:10487000C4F30A5424BB002F019326D06846009746
:10488000FFF7A4FDDDE90012E8B1C0F1200302FA50
:1048900003F30B43C2406B610192019B002B14BFD9
:1048A00002210121AB612961BCB1A4F2334404446B
:1048B0003460C0F13500099B1860284603B0F0BD94
:1048C00043F48013D7E76961E7E701A8FFF77EFDAE
:1048D000019B01216B612030E5E7A0F2324005EB3E
:1048E000810330601869FFF751FDC0EB4110E2E72A
:1048F000D46400083D6500082DE9F74F1368804631
:10490000019393680C461746002B57D100200023D3
:104910007B6003B0BDE8F08F019BD3E900AB0833A7
:104920000193A6682068BBF1000FF5D0B3452DD3E5
:10493000A28912F4906F29D021696569A0EB010961
:1049400005EB450505EBD57509F101006D105844DF
:10495000854238BF0546530534D529464046FFF702
:104960005BFA0646002838D04A46216900F084F9EF
:10497000A28922F4906242F08002A28126614E4414
:1049800026605E466561A5EB0905A5605E4528BF0A
:104990005E4651463246206800F031F9A268DA449A
:1049A000921BA260226832442260BA68A2EB0B0319
:1049B000BB60002BAAD04FF0000BB2E74FF0000A0B
:1049C000D346AEE72A46404600F0CAF9064600281C
:1049D000D4D140462169FFF75FF90C23C8F80030B5
:1049E000A3894FF0FF3043F04003A3810023BB6055
:1049F0008DE770B506460C4611B90025284670BDF6
:104A000018B1436B0BB9FEF775F9636ED80705D47F
:104A1000A389990502D4A06DFEF74CFAB4F90C30C5
:104A20003BB9656E15F00105E7D1A06DFEF743FABD
:104A3000E4E72146304600F033F8E36A054633B137
:104A40003046E16998470028B8BF4FF0FF35A38989
:104A50001A0603D530462169FFF71EF9216B41B1D3
:104A600004F14003994202D03046FFF715F90023C4
:104A70002363616C21B13046FFF70EF900236364B4
:104A8000FEF72CF90023A381636EDB0702D4A06D2F
:104A9000FEF711FAA06DFEF70CFAFEF725F9ADE767
:104AA000F8B58B89054618070C46B1F90C205ED481
:104AB0004B6842F40062002B8A8104DCCB6B002B34
:104AC00001DC0020F8BDA66A002EFAD0002312F403
:104AD00080522F68E1692B6036D0206DA3895A0778
:104AE00005D56368C01A236B0BB1E36BC01A0023B2
:104AF0000246A66A2846E169B047431CA38906D14D
:104B000029681D292FD82A4A0A41D6072BD400220A
:104B100023F400631BB262602269D904A38122607E
:104B200004D5421C01D12B6803B92065216B2F608D
:104B30000029C6D004F14003994202D02846FFF76D
:104B4000ABF800202063BDE701232846B047411C95
:104B5000C4D12B68002BC1D01D2B01D0162B01D145
:104B60002F60AEE7A38943F04003A381AAE70F6952
:104B7000002FA6D09B0718BF00230E6808BF4B6903
:104B8000F61B0F608B60002E9BDD33463A462846AD
:104B9000E169D4F824C0E047002806DCA3894FF07F
:104BA000FF3043F04003A3818CE70744361AEAE75D
:104BB000FEFFBFDF38B50C46054618B1436B0BB995
:104BC000FEF798F8B4F90C00B8B1636EDB0704D4B3
:104BD000810502D4A06DFEF76DF928462146FFF746
:104BE0005FFF636E0546DA0705D4A3899B0502D4EF
:104BF000A06DFEF760F9284638BD0546FBE7884200
:104C000010B501EB020402D98442234607D8431EA3
:104C1000A14208D011F8012B03F8012FF8E7014653
:104C200002448A4200D110BD13F8014D02F8014D33
:104C3000F7E70000014B93F8280170475805002062
:104C400038B50023054D044608462B60FCF762F892
:104C5000431C02D12B6803B1236038BD0408002037
:104C6000082808B506D001F051F9162303604FF06B
:104C7000FF3008BD8020FCE70A44914200F1FF3379
:104C800000D1704710B511F8014B914203F8014F64
:104C9000F9D110BD1FB514461A46094B05461B68CD
:104CA000D8684CB1074BCDE9013400912B46064939
:104CB00000F00EFAFCF794F8044B1C46F3E700BF33
:104CC000380100209E660008AB660008D96600081F
:104CD00038B5A1FB02152DB9FFF79EF8044638B987
:104CE000204638BD01F012F90C2300240360F7E7D9
:104CF00050F8042C22F00302043A242A19D8132A6B
:104D000015D91B2AC0E9005506D800F10803002276
:104D1000C3E900229A60E3E7242AC0E9025511BFE3
:104D200000F11003056100F118034561EFE7034648
:104D3000EDE72946FEF757F8D2E782B001B901A99D
:104D400042B14BB113780B601278101E18BF0120CE
:104D500002B070471046FBE76FF00100F8E7000073
:104D60002DE9F74F0C468246114624B903B0BDE841
:104D7000F04FFFF751B80192FFF788FA019954F804
:104D8000045C01F10B08B8F1160F0BD938F00708D5
:104D90000AD50C234FF0000BCAF80030584603B078
:104DA000BDE8F08F4FF010088845F2D325F00306D8
:104DB000B045A4F1080940F373819D4A09EB06034D
:104DC000D2F808C05A689C4505D022F0010018446A
:104DD0004068C70747D422F003029C4506EB020750
:104DE00019D108F11000B8423FDC914AA7EB08073F
:104DF00009EB080347F0010793605F6054F8043C37
:104E0000504603F0010343EA080344F8043CFFF76B
:104E100043FAA346C2E7B84527DCD3E90232DA6099
:104E20009360D9F80430A7EB08000F2803F00103C2
:104E300009EB070240F2368109EB080148EA030357
:104E400040F00100C9F8043048605368504643F010
:104E5000010353600831FEF71FFF5046FFF71CFAAD
:104E600009F1080B9AE700221346E80700F1C98010
:104E700054F8085CA9EB0505686820F0030000EB16
:104E8000060B002B00F088809C4502EB0B074AD1F3
:104E900008F11003BB427FDCAB46EB685BF8082FE0
:104EA000D3609A60321F242A38D8132A34D9236851
:104EB0001B2AAB606368EB601BD8083405F1100354
:104EC00022681A6062685A60A2689A60584AA7EB22
:104ED000080705EB080347F0010793605F606B6804
:104EE00003F0010343EA08036B605046FFF7D4F96F
:104EF00054E7A368242A2B61E36818BF10346B6160
:104F000009BF236905F11803AB61626902BF05F1AE
:104F10002003EA611834D3E75B46D1E721465846BF
:104F2000FFF76DFED2E7B84536DCD3E902322846FA
:104F3000DA60936050F8082FEB68D3609A60321FF4
:104F4000242A25D8132A08D923681B2AAB60636852
:104F5000EB600AD8083405F1100023680360636829
:104F60004360A3688360A9465BE7A368242A2B619A
:104F7000E36818BF05F118006B6109BF236910349D
:104F8000AB61636902BF05F12000EB611834E4E70F
:104F90002146FFF734FEE6E7D84532DC2846EB68C9
:104FA00050F8082FD3609A60321F242A25D8132A7C
:104FB00008D923681B2AAB606368EB600AD8083401
:104FC00005F110002368036063684360A368836091
:104FD0005F46C8E7A368242A2B61E36818BF05F180
:104FE00018006B6109BF23691034AB61636902BFAC
:104FF00005F12000EB611834E4E72146FFF7FFFDDF
:10500000E6E75046FEF708FF834600283FF46DAF01
:1050100054F8043CA0F1080223F001034B449342EE
:1050200008D150F8047C27F003073744F9E600BFA5
:1050300048010020321F242A2ED8132A29D9236898
:105040001B2A0360636843600ED804F1080200F174
:105050000803116819605168596092689A60214686
:105060005046FEF719FE40E7A368242A8360E368F0
:1050700018BF04F11002C36009BF236900F11003D7
:105080000361616902BF04F1180200F11803416174
:10509000DFE703462246DCE72146FFF7B0FDDEE707
:1050A0003746BEE61F43C9F80470536843F0010356
:1050B0005360D2E60346084641B1FF2A04D98A224A
:1050C0004FF0FF301A60704701200A7070470000EF
:1050D0000EB403B5014603AB054853F8042B006832
:1050E000019300F039F802B05DF804EB03B07047AB
:1050F000380100202DE9F84F936880460F4614468A
:1051000043B34B6E9D0422D5156808354FF0000956
:1051100055E902B64FEA960ACA450DDCA06826F0AA
:105120000306801BA06008350028EFD10023A36090
:1051300000236360BDE8F88F3A4640465BF82910CB
:1051400000F0BBFE431CF1D009F10109E4E700F0D7
:10515000D1FCEBE71846EBE72DE9F04FBDB00F4669
:105160001D461C468146029218B1436B0BB9FDF7F0
:10517000C1FD7B6ED80705D4BB89990502D4B86DF3
:10518000FDF798FEB7F90C309A0406D443F40053A7
:10519000BB817B6E23F400537B66BB891E0701D560
:1051A0003B69ABB93946484600F0EEFD80B17B6EF5
:1051B000D80706D54FF0FF33039303983DB0BDE801
:1051C000F08FBB899905F5D4B86DFDF774FEF1E752
:1051D000BB8903F01A020A2A14D1B7F90E20002A5B
:1051E00010DB7A6ED20704D49E0502D4B86DFDF7A9
:1051F00062FE2B4639464846029A3DB0BDE8F04F64
:1052000000F038BC0023CDE91133CDE90633CDE9F8
:10521000083313AE10960393029B1D4613F8012B1F
:105220000AB1252AF9D1029BB5EB03080DD0C6E9D6
:105230000038129B43441293119B0133072B1193A7
:1052400076DC0836039B434403932B78002B00F055
:10525000D28300234FF0FF329A4601358DF83B3060
:10526000019204932A4612F8013B0292A3F1200214
:105270005A2A00F21A83DFE812F07D00180318039F
:105280008500180318031803650018031803880025
:10529000920018038F0094001803AF00B200B20010
:1052A000B200B200B200B200B200B200B200180305
:1052B0001803180318031803180318031803180316
:1052C000DC00EA0018031803180318031803180376
:1052D00018031803180318033901180318031803D7
:1052E0007E0118035C02180318037C0218031803DC
:1052F00018031803180318031803180318031803D6
:10530000DC00EC00180318031803C200EC00D60000
:105310001803CF00180317013B017001D6001803D2
:105320007E017B005E0218031803980218037B00BD
:105330003946484610AAFFF7DDFE002840F03A83C0
:1053400013AE7FE74846FDF769FD436818460993A9
:10535000FDF7C0FD08904846FDF760FD83680793A0
:10536000089B2BB1079B1BB11B780BB14AF4806AD9
:10537000029D77E79DF83B30002BF9D120238DF873
:105380003B30F5E74AF0010AF2E754F8043B002B02
:105390000493EDDA5B4204934AF0040AE8E72B2316
:1053A000EDE7029A12F8013B2A2B12D154F8043B84
:1053B00043EAE373CDE90132DAE70A20019B00FBFF
:1053C0000313019312F8013BA3F130010929F4D929
:1053D0004BE700210191F7E74AF0800AC8E7002176
:1053E000029A04910A200499303B00FB0133049394
:1053F00012F8013BA3F130010929F3D935E7029BEB
:105400001B78682B01BF029B4AF4007A0133029398
:1054100018BF4AF0400AABE7029B1B786C2B05D102
:10542000029B013302934AF0200AA1E74AF0100AD6
:105430009EE7A04658F8043B8DF88C3000238DF889
:105440003B3001221D4601920DF18C0BA8E04AF081
:10545000100A1AF0200F10D0073424F007039846E2
:105460005D6858F8084B002D05DA2D23644265EB82
:1054700045058DF83B3001234AE0A0461AF0100F95
:1054800058F8045B02D02C46ED17ECE71AF0400FF9
:1054900003D02CB245F3C035E5E71AF4007FF2D013
:1054A0006CB245F3C015DEE71AF0200F04F10408D2
:1054B00007D0039A23680399D217C3E90012444620
:1054C000AAE61AF0100F03D02368039A1A60F6E7D1
:1054D0001AF0400F03D02368039A1A80EFE71AF4FA
:1054E000007FF1D02368039A1A70E8E74AF0100AA7
:1054F0001AF020031FD0073424F0070398465D6894
:1055000058F8084B00232AF4806A00228DF83B20CB
:10551000019A013200F07C822AF08002059254EA5E
:10552000050240F07B82019A002A00F0B381012B32
:1055300040F0778251E1A0461AF0100558F8044B6C
:1055400001D01D46DEE71AF0400301D0A4B2D9E72E
:105550001AF40075D6D0E4B2F3E747F63003A0465C
:105560000025ADF83C30A04B58F8044B4AF0020A35
:1055700006930223C9E7A0460025019B58F804BB07
:105580005C1C8DF83B5000F0CF801A4629465846E7
:10559000FDF792FC002800F09281A0EB0B03019331
:1055A000019B9DF83B20AB42B8BF2B4605930AB147
:1055B000013305931AF002030A931EBF059B0233C1
:1055C00005931AF084030B931FD1DDE904329C1A72
:1055D000002C1ADD854B102CDDE9112106F10800A5
:1055E00002F10102336000F36C817460072A0C44FD
:1055F000CDE9112440F37A813946484610AAFFF7D5
:1056000079FD002840F0D68113AE9DF83B00DDE91E
:10561000112160B10DF13B003060012001320144E5
:10562000072ACDE91121706000F3628108360A9BD8
:10563000DDE911215BB10FA8306002200132014485
:10564000072ACDE91121706000F35B8108360B9BBE
:10565000802B1FD1DDE904329C1A002C1ADD644B2B
:10566000102CDDE9112106F1080002F1010233607E
:1056700000F350817460072A0C44CDE9112440F3F3
:105680005E813946484610AAFFF734FD002840F0F5
:10569000918113AE019BEC1A002C1BDD1023544D9D
:1056A000102CDDE9112106F1080002F1010235603C
:1056B00000F347817460072A0C44CDE9112440F3BC
:1056C00051813946484610AAFFF714FD002840F0E2
:1056D000718113AE019B019A7360129BC6F800B0F2
:1056E00013441293119B0133072B119300F33C8158
:1056F00006F108031AF0040F40F03E81DDE90332A1
:1057000005998A42ACBF9B185B180393129B3BB16F
:105710003946484610AAFFF7EDFC002840F04A81C0
:10572000002313AE1193CAE65846FDF7D3FB019050
:1057300036E74AF0100A1AF0200308D0073424F0A4
:10574000070398465D6858F8084B0123DDE6A0463C
:105750001AF0100558F8044B01D01D46F5E71AF071
:10576000400301D0A4B2F0E71AF40075EDD0E4B222
:10577000F3E7204A06921AF0200218D0073424F0EA
:1057800007029046556858F8084B1AF0010F09D0E7
:1057900054EA05021FBF30228DF83D308DF83C20C1
:1057A0004AF0020A2AF4806AE3E60F4AE2E7A046DA
:1057B0001AF0100558F8044B01D01546E5E71AF029
:1057C000400201D0A4B2E0E71AF40075DDD0E4B2E3
:1057D000F3E70A2C75F100030ED230348DF8EF4058
:1057E0000DF1EF0B39E100BF83640008DB670008AF
:1057F000EB670008946400084FF0000A3CAB0A9382
:10580000059B03F480630B930A220023204629465C
:1058100000F0A6FC0A9B303203F1FF3B03F8012C99
:105820000B9BCDE90C010AF1010ACBB1079B1A7859
:10583000524515D1BAF1FF0F12D00A2C75F10002B2
:105840000ED3089B0999ABEB030B1A465846FDF79C
:10585000D2FA079B5A786AB14FF0000A01330793D6
:105860000A2C75F10005C0F0F880DDE90C45CDF893
:1058700028B0C9E79246F3E7069B04F00F029A5C52
:10588000240944EA05742D090BF8012D54EA050298
:10589000F2D1E2E033B91AF0010F03D030238DF8D2
:1058A000EF309DE70DF1F00BD7E0002B00F0A38067
:1058B0008DF88C300023A0468DF83B30C1E50546BD
:1058C0006EE64FF0100C072A6144CDE91121C6F8AD
:1058D00004C008DD3946484610AAFFF70BFC002833
:1058E00068D1624B13A80646103C74E606468CE667
:1058F0003946484610AAFFF7FDFB00285AD113AEDF
:1059000095E63946484610AAFFF7F4FB002851D126
:1059100013AE9CE64FF0100C072A6144CDE911212B
:10592000C6F804C008DD3946484610AAFFF7E2FB76
:1059300000283FD14E4B13A80646103C90E6064681
:10594000A8E61031072ACDE91121736007DD394639
:10595000484610AAFFF7CEFB60BB102313A80646EB
:10596000103C9DE60646B5E63946484610AAFFF7C4
:10597000C1FBF8B913ABBDE6DDE90421541A002CD4
:105980007FF7BCAE1026394D102CDDE911211D60CA
:1059900002F101021DDC5C60072A0C44CDE91124F0
:1059A0007FF7ACAE3946484610AAFFF7A3FB0028A4
:1059B0003FF4A4AE7B6ED90705D4BB899A0502D407
:1059C000B86DFDF778FABB895B067FF5F6ABFFF79C
:1059D000F1BB1031072ACDE911215E6002DC0833EA
:1059E000103CD1E73946484610AAFFF783FB002850
:1059F000E0D113ABF4E7129B13B900231193D9E75D
:105A00003946484610AAFFF775FB0028F5D0D1E7C4
:105A100054EA0502CDF814A03FF489AD012B3FF400
:105A2000D8AE022B0DF1F00B3FF426AF04F00702C5
:105A3000E40844EA4574ED08303254EA050059465A
:105A40000BF8012DF2D1059BD80706D5302A04D0DA
:105A500030220BF8012CA1F1020B3CABA3EB0B03A2
:105A6000019DDDF814A001939AE500BFDB670008F3
:105A7000EB670008F0B51F468B89ADF26C4D23F043
:105A80000203ADF80C304B6E15461993CB890646D0
:105A9000ADF80E30CB6916A807934B6A0C460993F4
:105AA0001AAB009304934FF4806302930593002391
:105AB0000693FDF7FDF92A463B4669463046FFF757
:105AC0004BFB051E07DB69463046FFF773F80028DD
:105AD00018BF4FF0FF35BDF80C3016985B0642BF7B
