:020000040800F2
:100000001804002081020008E1020008E102000853
:10001000E1020008E1020008E1020008000000001F
:10002000000000000000000000000000E1020008E5
:10003000E102000800000000E1020008E1020008FF
:10004000E1020008E1020008E1020008E102000804
:10005000E1020008E1020008E1020008E1020008F4
:10006000E1020008E1020008E1020008E1020008E4
:10007000E1020008E1020008E1020008E1020008D4
:10008000E1020008E1020008E1020008E1020008C4
:10009000E1020008E1020008E1020008E1020008B4
:1000A000E1020008E1020008E1020008E1020008A4
:1000B000E1020008E1020008E1020008E102000894
:1000C000E1020008E1020008E1020008E102000884
:1000D000E1020008E1020008E1020008E102000874
:1000E000E1020008E1020008E1020008000000004F
:1000F0000000000000000000000000000000000000
:1001000000000000000000005FF808F180B500AFBB
:10011000154B1B68144A43F001031360124B5A68D5
:100120001149124B13404B600F4B1B680E4A23F0D2
:10013000847323F4803313600B4B1B680A4A23F447
:1001400080231360084B5B68074A23F4FE03536067
:10015000054B4FF41F029A6000F00CF8044B4FF06F
:1001600000629A6000BF80BD001002400000FFF8EE
:1001700000ED00E080B500AF00F002F800BF80BDE8
:1001800080B483B000AF00237B6000233B603A4B18
:100190001B68394A43F480331360374B1B6803F400
:1001A00000333B607B6801337B603B68002B03D1ED
:1001B0007B68B3F5A06FF0D12F4B1B6803F40033BD
:1001C000002B02D001233B6001E000233B603B6831
:1001D000012B4BD1294B1B68284A43F010031360B5
:1001E000264B1B68254A23F003031360234B1B682F
:1001F000224A43F0020313601F4B1F4A5B6853609F
:100200001D4B1D4A5B6853601B4B5B681A4A43F4E5
:1002100080635360184B5B68174A23F47C13536068
:10022000154B5B68144A43F4E8135360124B1B6888
:10023000114A43F08073136000BF0F4B1B6803F03B
:100240000073002BF9D00C4B5B680B4A23F00303BF
:100250005360094B5B68084A43F00203536000BFD8
:10026000054B5B6803F00C03082BF9D100BF0C377A
:10027000BD4680BC704700BF001002400020024015
:1002800080B582B000AF114B7B60114B3B6007E043
:100290007A68131D7B603B68191D396012681A600B
:1002A0003B680C4A9342F3D30B480C494FF00002D1
:1002B0008842B8BF40F8042BFADBFFF727FF00F0B5
:1002C0003FF900BF0837BD4680BD00BF6C0A00087B
:1002D0000000002014000020140000201400002062
:1002E00080B400AFFEE780B489B000AF78603960B9
:1002F0000023FB6100233B610023BB610023FB6003
:1003000000237B610023BB603B68DB7803F00F03B5
:10031000FB613B68DB7803F01003002B05D03B68E2
:100320009B781A46FB691343FB613B681B88DBB271
:10033000002B44D07B681B687B610023BB6138E0E5
:100340000122BB6902FA03F3FB603B681B881A4673
:10035000FB6813403B613A69FB689A4226D1BB694E
:100360009B00FB600F22FB6802FA03F3BB60BB68D3
:10037000DB437A6913407B61FA69FB6802FA03F395
:100380007A6913437B613B68DB78282B05D1012216
:10039000BB699A407B685A6108E03B68DB78482B70
:1003A00004D10122BB699A407B681A61BB690133A1
:1003B000BB61BB69072BC3D97B687A691A603B684C
:1003C0001B88FF2B46D97B685B687B610023BB6180
:1003D0003AE0BB690833012202FA03F3FB603B6891
:1003E0001B881A46FB6813403B613A69FB689A42D6
:1003F00027D1BB699B00FB600F22FB6802FA03F365
:10040000BB60BB68DB437A6913407B61FA69FB68B8
:1004100002FA03F37A6913437B613B68DB78282B8C
:1004200005D1BB69083301229A407B685A613B6859
:10043000DB78482B05D1BB69083301229A407B68E1
:100440001A61BB690133BB61BB69072BC1D97B68EA
:100450007A695A6000BF2437BD4680BC70470000EF
:1004600080B487B000AF78600B46FB7000233B611F
:100470000023FB6000237B610023BB607B68002BB3
:1004800003DA2E4BDB697B6102E02C4B5B687B61FE
:100490007B681B0C03F00F03BB607B689BB23B6166
:1004A0007B6803F44013B3F5401F0AD17B6923F046
:1004B00070637B61214B5B68204A23F0706353605B
:1004C00021E07B6803F48013002B0ED00322BB686D
:1004D00002FA03F3FB60FB68DB437A6913407B613C
:1004E0007B6943F070637B610DE07B685B0D1B01F2
:1004F0003A6902FA03F3DB437A6913407B617B6953
:1005000043F070637B61FB78002B08D07B685B0D48
:100510001B013A6902FA03F37A6913437B617B6832
:10052000002B03DA054A7B69D36102E0034A7B6949
:10053000536000BF1C37BD4680BC704700000140BF
:1005400080B500AF00F004FA034800F05DFAC8205F
:1005500000F004F8F8E700BF440A000880B485B052
:1005600000AF78600023FB600DE00023BB6002E079
:10057000BB680133BB60BB6842F6FE229342F7D9E9
:10058000FB680133FB60FA687B689A42EDD300BFD9
:1005900000BF1437BD4680BC7047000080B487B0F0
:1005A00000AF786000237B6100233B610023FB6088
:1005B0000023BB604F4B5B6803F00C037B617B69DE
:1005C000082B11D07B69082B3AD87B69002B03D00C
:1005D0007B69042B04D033E07B68474A1A6033E020
:1005E0007B68454A1A602FE0424B5B6803F4701346
:1005F0003B61404B5B6803F48033FB603B699B0CC1
:1006000002333B61FB68002B06D13B693B4A03FB8D
:1006100002F27B681A6017E0364B5B6803F4003324
:10062000002B06D03B69354A03FB02F27B681A6057
:100630000AE03B69304A03FB02F27B681A6003E080
:100640007B682D4A1A6000BF2A4B5B6803F0F003F9
:100650007B617B691B097B61294A7B6913441B7899
:10066000DBB2BB607B681A68BB68DA407B685A60A3
:10067000204B5B6803F4E0637B617B691B0A7B6151
:100680001F4A7B6913441B78DBB2BB607B685A68E6
:10069000BB68DA407B689A60164B5B6803F4605372
:1006A0007B617B69DB0A7B61154A7B6913441B789C
:1006B000DBB2BB607B685A68BB68DA407B68DA6093
:1006C0000C4B5B6803F440437B617B699B0B7B6154
:1006D0000C4A7B6913441B78DBB2BB607B68DA6829
:1006E000BB68B2FBF3F27B681A6100BF1C37BD46E2
:1006F00080BC70470010024000127A0000093D00E3
:10070000000000201000002080B483B000AF7860AB
:100710000B46FB70FB78002B06D0094B9A69084901
:100720007B6813438B6106E0054B9A697B68DB436A
:10073000034913408B6100BF0C37BD4680BC704736
:100740000010024080B58CB000AF786039600023A3
:10075000FB620023BB6200237B6200233B62002319
:10076000FB617B68FB617B681B8A9BB2FB62FA6A58
:100770004CF6FF731340FB623B68DB881A46FB6A4A
:100780001343FB62FB6A9AB27B681A827B689B897F
:100790009BB2FB62FA6A4EF6F3131340FB623B68AE
:1007A0009A883B681B8913439AB23B685B89134361
:1007B0009BB21A46FB6A1343FB62FB6A9AB27B68E0
:1007C0009A817B689B8A9BB2FB62FA6A4FF6FF4371
:1007D0001340FB623B689B891A46FB6A1343FB622A
:1007E000FB6A9AB27B689A8207F108031846FFF702
:1007F000D5FEFB692E4A934202D17B69BB6201E0C0
:100800003B69BB627B689B899BB21BB2002B0CDAF5
:10081000BA6A13469B0013449A001A443B681B684B
:100820005B00B2FBF3F37B620BE0BA6A13469B00FA
:1008300013449A001A443B681B689B00B2FBF3F315
:100840007B627B6A1B4AA2FB03235B091B01FB62E1
:10085000FB6A1B09642202FB03F37A6AD31A3B6228
:100860007B689B899BB21BB2002B0CDA3B6ADB00D6
:100870003233104AA2FB03235B0903F00703FA6A31
:100880001343FB620BE03B6A1B013233094AA2FBB4
:1008900003235B0903F00F03FA6A1343FB62FB6A4D
:1008A0009AB27B681A8100BF3037BD4680BD00BF59
:1008B000003801401F85EB5180B483B000AF7860F1
:1008C0000B46FB70FB78002B08D07B689B899BB2A2
:1008D00043F400539AB27B689A8107E07B689B8956
:1008E0009BB223F400539AB27B689A8100BF0C3705
:1008F000BD4680BC704780B483B000AF78600B46C3
:100900007B807B88C3F308039AB27B689A8000BF20
:100910000C37BD4680BC704780B485B000AF7860AE
:100920000B467B800023FB737B681B889AB27B8815
:1009300013409BB2002B02D00123FB7301E0002384
:10094000FB73FB7B18461437BD4680BC7047000024
:1009500080B586B000AF012144F20900FFF7D4FE54
:1009600001210420FFF77CFD4023BB821823FB7587
:100970000323BB7507F1140319461348FFF7B3FCB3
:100980008023BB820423FB7507F1140319460E482C
:10099000FFF7A9FC4FF4E1337B6000233B81002388
:1009A0007B810023BB8100233B820C23FB813B1D09
:1009B00019460648FFF7C6FE01210448FFF77CFFF1
:1009C00000BF1837BD4680BD000C01400038014013
:1009D00080B582B000AF786039607B68DBB29BB2D3
:1009E00019460848FFF787FF00BF40210548FFF779
:1009F00093FF0346012BF8D17B6818460837BD46A4
:100A000080BD00BF0038014080B584B000AF786081
:100A10000023FB600AE0FB687A6813441B7800211E
:100A20001846FFF7D5FFFB680133FB60FB687A6867
:100A300013441B78002BEED100BF00BF1037BD461A
:100A400080BD00004573746F20657320756E20743F
:100A50006578746F206465207072756562612070BE
:0C0A60006F72207072696E74660D0A00DF
:100A6C000000000001020304010203040607080948
:040A7C000204060862
:0400000508000000EF
:00000001FF
