:020000040800F2
:100000006804002001010008090100080B01000834
:100010000D0100080F010008110100080000000098
:1000200000000000000000000000000013010008B4
:100030001501000800000000170100081901000860
:100040001B0100081B0100081B010008250B00080C
:100050001B0100081B0100081B0100081B01000810
:100060001B0100081B0100081B0100081B01000800
:100070001B0100081B0100081B0100081B010008F0
:100080001B0100081B0100081B0100081B010008E0
:100090001B0100081B0100081B0100081B010008D0
:1000A0001B0100081B0100081B0100081B010008C0
:1000B0001B0100081B0100081B0100081B010008B0
:1000C0001B0100081B0100081B0100081B010008A0
:1000D0001B0100081B0100081B0100081B01000890
:1000E0001B0100081B0100081B010008DFF80CD0F1
:1000F00000F0A2FB0048004715110008680400202A
:100100000648804706480047FEE7FEE7FEE7FEE7B1
:10011000FEE7FEE7FEE7FEE7FEE7FEE72D0D00083F
:10012000ED000008F0B480EA0102D40F4200B2EB07
:10013000410F02D20246084611464A0042D0C30D82
:10014000DDB2C1F3C752AD1A202D35DAC1F3160165
:1001500041F4000204B15242C5F1200602FA06F150
:100160002A411044B3EBD05F23D0C4B1012DA0EBE2
:10017000C35009DCF0BC4FF0004202EAC352DBB2CC
:1001800000F5000000F09DBA400000F1807000EB27
:10019000C350A0F1807040EAD170490009E04908DD
:1001A00041EAC071A0EBC35000F50000400800EB2D
:1001B000C350F0BC00F07CBA6142012202EB410165
:1001C000001BF6E7F0BC704781F00041AAE780F021
:1001D0000040A7E72DE9FE4F804681EA0300C00FEB
:1001E0000C46009021F0004123F00045B8EB0200DE
:1001F000A94105D24046214690461C460B46024680
:1002000023F00040104347D0270DC7F30A00C3F383
:100210000A510290401A019040286BDAC3F3130090
:1002200040F4801B0098924620B10023D2EB030AD1
:1002300063EB0B0B01985946C0F14002504600F0A9
:1002400006FA06460D4650465946019A00F01EFA37
:1002500010EB08006141002487EA115284EAE77339
:100260001A4340D0009A62B3019A012A4FEA07521A
:1002700015DC001B61EB02014FF0004202EA07525D
:10028000CDE90042001C41F5801132462B4600F0BA
:1002900055FA03B0BDE8F08F40462146F9E7001B50
:1002A00061EB0201001C41F5801300185B4120182E
:1002B000A2F5001747EB030140EAD570B6196D416E
:1002C00011E06D084FEA360645EAC0754FEA07525D
:1002D000001B61EB0201001C41F5801149084FEA47
:1002E00030000019514132462B4603B0BDE8F04FB3
:1002F00000F015BA0098012240000023D0EB020262
:1003000063EBE073009821464FEAE074B8EB00001D
:1003100061EB0401E9E783F000435BE781F0004112
:1003200058E72DE9FE4F81EA030404F0004421F070
:10033000004100944FF0000B23F0004350EA010409
:100340005ED052EA03045BD0C3F30A54C1F30A55EA
:100350002C44A4F2F3340194A0FB0254C1F3130122
:1003600041F48011C3F3130343F4801301FB0244EF
:1003700000FB034E840A970A44EA815447EA8357F4
:10038000A4FB076802958D0A05FB07854FEA932CAD
:1003900004FB0C542705029D4FEA065847EA16371E
:1003A000B5EB08056EEB070C870E920E47EA811736
:1003B00042EA8312A7FB0201B6EB0B0164EB0004D7
:1003C0002B0D43EA0C335E1844EB1C50DA465146C1
:1003D000E7FB0201C5F313044FEA0B3343EA14535E
:1003E0004FEA0432019C43EA0603A4F10C04029490
:1003F000009CCDE900B400F0A1F903B0BDE8F08F96
:1004000000200146F9E72DE9F04D81EA030404F0EC
:10041000004B21F0004514464FF0000A23F0004144
:1004200050EA050220D054EA01021DD0C5F30A5754
:100430000246C5F31303C1F31300C1F30A5640F497
:10044000801543F48013A7EB0608101BD64608F26C
:10045000FD3873EB050002D308F1010801E09218A2
:100460005B41B8F1000F03DA00200146BDE8F08DD2
:1004700000204FF48011064684460EE0171B73EBF4
:10048000050705D3121B63EB050306434CEA010C79
:1004900049084FEA300092185B4150EA0107EDD15C
:1004A00052EA030012D082EA040083EA05010843FD
:1004B00005D0101BAB4106D20122002306E000222A
:1004C0004FF0004302E06FF0010253101AEB0600F8
:1004D0004CEB085110EB0A0041EB0B01BDE8F04D6D
:1004E00000F01DB9C10F80EAE0700844CA079623E6
:1004F000002100F0E6B80EB5C10F80EAE0700844B4
:10050000CA07002140F233438DE80E000A460B462D
:1005100000F014F903B000BD00F0004220F00040EC
:10052000C10DC0F3160040F400007F2901DA00205D
:100530007047962903DCC1F19601C84001E0963965
:100540008840002AF4D04042704770B5C1F30A5287
:1005500001F000450024C1F3130140F2FF3341F4E0
:1005600080119A4201DA002070BD40F233439A4272
:10057000A2F2334203DC524200F078F800E09040EF
:100580002C43F1D0404270BD01F0004330B421F063
:10059000004150EA010206D00A0DA2F56072C1F3D3
:1005A0001301002A02DC30BC00207047440F44EAEB
:1005B000C104C100E01830BC00EBC25000F078B8B4
:1005C00030B50B46014600202022012409E021FA23
:1005D00002F59D4205D303FA02F5491B04FA02F520
:1005E0002844151EA2F10102F1DC30BD2DE9F05FB7
:1005F0000546002092469B46884606468146402492
:100600001BE0284641464746224600F02FF8534655
:100610005A46C01A914110D311461846224600F09E
:1006200016F82D1A67EB01084F46224601200021DB
:1006300000F00DF817EB00094E41201EA4F1010453
:10064000DFDC484631462A464346BDE8F09F202A73
:1006500004DB203A00FA02F1002070479140C2F119
:10066000200320FA03F3194390407047202A04DB4B
:10067000203A21FA02F00021704721FA02F3D0401B
:10068000C2F120029140084319467047202A06DB38
:10069000CB17203A41FA02F043EAE07306E041FA50
:1006A00002F3D040C2F1200291400843194670473E
:1006B0000029A8BF7047401C490008BF20F0010076
:1006C000704710B4B0FA80FC00FA0CF050EA010454
:1006D00004BF10BC704749B1CCF1200421FA04F4E6
:1006E00011FA0CF118BF012121430843A3EB0C01BF
:1006F000CB1D4FEA00614FEA102042BF002010BC22
:10070000704700EBC35010440029A4BF10BC7047D1
:10071000401C490008BF20F0010010BC704710B514
:10072000141E73F1000408DA401C41F10001921814
:100730005B411A4301D120F0010010BD2DE9F04DBD
:1007400092469B4611B1B1FA81F202E0B0FA80F212
:1007500020329046FFF77BFF04460F4640EA0A002E
:1007600041EA0B0153465A46084313D0114653EA57
:10077000010019D0C8F140025046FFF777FF054647
:100780000E46504659464246FFF761FF084305D0E2
:10079000012004E020463946BDE8F08D00200543E5
:1007A00046EAE0762C4337430A986305E40AA0EB57
:1007B00008000022FD0A44EA47540A3002D500200E
:1007C0000146E9E7010510196941DDE9084500190D
:1007D0006941BDE8F04DA2E7C1F30A52C1F313012C
:1007E00040F2FF3341F480119A4202DA00200146C0
:1007F000704740F233439A42A2F2334202DC524243
:10080000FFF734BFFFF723BF30B5041E71F10004BA
:1008100004DB4FF00044404264EB0101141E73F10D
:10082000000405DB1C464FF00043524263EB040317
:10083000994208BF904230BD064C074D06E0E06883
:1008400040F0010394E8070098471034AC42F6D317
:10085000FFF750FC1C2200083C22000880B5012054
:1008600000F0A4F80020BDE8804000F09FB8000030
:1008700081B00021009146F60041C4F200010091D0
:100880000099084400900098008801B0704700006B
:1008900081B00022009246F60042C4F200020092AB
:1008A000009A104400900098016001B07047000069
:1008B0002DE9F047CA7802F00F0CD30644BF8B78BD
:1008C0004CEA030C09880B0625D082465AF8144BD3
:1008D00000F1100E00254FF001094FF00F0800271E
:1008E00006E000BF1E600137082F05F1040511D096
:1008F00009FA07F60E42F6D008FA05F324EA0303D4
:100900000CFA05F41C43282A5346EBD0482AEAD1B6
:100910007346E7E70460B1F5807F38BFBDE8F08734
:10092000436800F1100E00F1140900254FF4807A9D
:100930004FF00F08002705E034600137082F05F15C
:10094000040512D00AFA07F404EA0106A642F4D11B
:1009500008FA05F6B3430CFA05F63343282A4E4647
:10096000EAD0482AE9D17646E6E74360BDE8F08759
:100970002021C4F20E21086070470000002941F2D6
:100980001C01C4F202010A680CBF22EA00001043F5
:1009900008607047002941F21801C4F202010A6898
:1009A0000CBF22EA000010430860704740F240414B
:1009B000C4F242210860704741F22400C4F20200F0
:1009C000016841F0807101607047000010B541F28C
:1009D0000404C4F20204226802F00C02082A41F264
:1009E0000022C0F27A021CD12368D4F800C0C3F3FD
:1009F000834E5FEACC330EF1020C06D440F60012AF
:100A0000C0F23D020CFB02F20BE023689B0302D410
:100A10000CFB02F205E040F60012C0F23D020CFBB6
:100A200002F20260226841F69C53C2F30312C0F640
:100A300000039A5C0168D14041602268C2F302223F
:100A40009A5C21FA02F282602268C2F3C2229A5CA6
:100A500041F69853D140C1602268C0F60003C2F34A
:100A600081329A5CB1FBF2F1016110BD420941F2A1
:100A70000001012AC4F2020103D0022A14BF24316A
:100A80002031096800F01F0021FA00F000F0010099
:100A90007047000041F22001C4F202010022012847
:100AA0000A700A7003D0042818BF70470520087028
:100AB0007047000040F23C41C4F242210860704798
:100AC00041F22001C4F202010A6810430860704735
:100AD00042F60401C4F200010A8822EA00000880FC
:100AE0007047000042F61802C4F200021188908894
:100AF000138899421CBF9088194640EA014070470C
:100B000042F60001C4F200018A880988014000EA27
:100B10000200C0B218BF0121002818BF0120084000
:100B20007047000080B50120FFF7EAFF002808BFEA
:100B300080BD0120FFF7CCFFBDE8804000F0E2B8A7
:100B4000002942F60001C4F200010A880CBF22EA23
:100B5000000010430880704780B54FF0C05001215D
:100B6000FFF70CFF0120FFF703FF40F25800C2F22D
:100B70000000007801280DD02FA001F0FBF8FFF74E
:100B80006DFE0120FFF712FF0020FFF70FFF30A0DE
:100B900001F0F0F80120FFF77DFF38A001F0EAF83E
:100BA0004120FFF763FF0028FAD041F6EA70C0F653
:100BB000000001F0DFF84FF48070FFF781FF42F290
:100BC0000500C0F6000001F0D5F80120FFF772FF24
:100BD00042F24F10C0F6000001F0CCF800F092F89D
:100BE0002EA001F0C7F800F095F800F08BF8012076
:100BF0000121FFF7A5FF41F6BD70C0F6000001F02E
:100C0000B9F802200121FFF79BFF41F68E70C0F674
:100C1000000001F0AFF800F075F847F6FF7000F043
:100C20005FF841F65F70C0F6000001F0A3F8BDE880
:100C3000804000F067B800BF20205265696E69638C
:100C4000696F2064656C20525443200D0000000041
:100C5000202020202D20526573657465616E646FBD
:100C6000206261636B7570206465207265676973CB
:100C700074726F73205254430D0000002020202016
:100C80002D20486162696C6974616E646F206675BD
:100C9000656E7465204C5345200D000020202020F7
:100CA0002D204573706572616E646F2073696E6389
:100CB000726F6E697A6163696F6E200D00000000CB
:100CC00042F60401C4F200010A8842F010020A80D0
:100CD000020C8A820883088820F010000880704780
:100CE00042F60401C4F200010A8842F010020A80B0
:100CF000C0F303428A800881088820F01000088031
:100D00007047000042F60400C4F200000188890622
:100D1000FCD5704742F60400C4F20000018821F0BF
:100D20000801018001880907FCD5704782B041F2B3
:100D30000400C4F2020050F8041C002241F001013A
:100D400040F8041C0168CFF6FF021140016050F822
:100D5000041C4FF6FF72CFF6F662114040F8041CF7
:100D600050F8041C21F4802140F8041C016821F48F
:100D7000FE0101604FF41F014160002101910091CB
:100D800050F8041C41F4803140F8041C50F8041C55
:100D900001F400310091019901310191009919B9D3
:100DA0000199B1F5A06FF1D150F8041C890354BF2B
:100DB0000021012100910099012936D142F2000160
:100DC000C4F202010A6842F010020A600A6822F0C6
:100DD00007020A600A6842F002020A6001680160C4
:100DE00001680160016841F480610160016821F4DB
:100DF0007C110160016841F4E811016050F8041CA5
:100E000041F0807140F8041C50F8041C8901FBD5A6
:100E1000016821F003010160016841F002010160F5
:100E2000016801F00C010829FAD14EF60850CEF203
:100E300000004FF00061016002B070478289002914
:100E400018BF012122F4005242EA413181817047EA
:100E50000088084018BF01207047000070B586B0B8
:100E60000446008A0D46C98820F440500843208279
:100E7000A0894EF6F3110840A9882A896B89084396
:100E800010431843A081A08AA98920F44070084328
:100E900001AEA0823046FFF799FD43F6000106F14E
:100EA0000800C4F201018C4208BF06F10C00006882
:100EB0001922B4F90C1050432A680123B1F1FF3F05
:100EC000C8BF022302FA03F1B0FBF1F048F21F5150
:100ED000C5F2EB11A0FB01235A096FF0630302FB7B
:100EE0000300B4F90C300326B3F1FF3FC8BF04265A
:100EF00000FA06F000F13200A0FB01014FF00700FC
:100F0000C8BF0F2000EA511040EA0210208106B04D
:100F100070BD00006FF35F2181807047B0B543F66C
:100F20000005C4F201050446C1B22846FFF7F2FFEE
:100F300028464021FFF78CFF0128F9D12046B0BD9B
:100F40002DE9F04F81B0009344F600339146C4F28E
:100F5000DF0300228A468346FFF73CF9FFF7F5FAE4
:100F600040F2BD61C3F66B1180FB0112D11301EB9E
:100F7000D27843F6B122C0F2020208FB120248F214
:100F8000FB10CEF2AC5082FB00039818C31303EBA6
:100F9000D07000EB4000033000EB907047F2541328
:100FA0004FEAA00ECFF6FF730EFB03234BF2730242
:100FB000C1F26D6283FB0226F21102EBD67C40F295
:100FC000B5560CFB16334FF6B116CBF28C3683FBBD
:100FD00006671F443E1206EBD77707EB4707033738
:100FE00007EB9776B7106FF4B67407FB043348F23B
:100FF000D70403EB830707F59A77CDF22B6487FBC1
:1010000004453D44EC1104EBD57599246C4304F57B
:1010100099744FF0993184FB01144DF29D51C4F243
:10102000637187FB01174AF6AB21C2F6AA2185FB43
:10103000011064210EFB01F14FF4C87208FB02118C
:10104000621002EBD4727C1201EB8C0104EBD777B7
:1010500001EBA6013944A1F59651C9F800104110E1
:1010600001EBD07000EB4000A5EB8000009901304F
:10107000086098180A997B30086058465146FFF777
:1010800064FAFFF738FA02460B4658465146FFF716
:1010900042F943F69063C4F20E130022FFF741F9C0
:1010A000FFF772FA0446FFF737FA4BF2C531C9F27F
:1010B000A21180FB01121044C11201EBD0700B99F8
:1010C00008604FF461614843FFF70CFA014620467F
:1010D000FFF77AF80446FFF71FFA48F68901C8F6C9
:1010E000880180FB01121044411101EBD0700C9972
:1010F0000860C0EB00108000FFF7F4F901462046BD
:10110000FFF762F8FFF708FA0D99086001B0BDE833
:10111000F08F000092B044F204000121FFF73AFC86
:1011200040F2002040F60004C1F60300C4F20104BE
:1011300011AD119020462946FFF7BAFB4FF48060AD
:10114000ADF8440004208DF8470020462946FFF7FB
:10115000AFFB4FF4E13009904FF4402004F54054C8
:1011600000260B9009A920460A96ADF83060FFF7DB
:1011700075FE20460121FFF761FE42F22900C0F60C
:10118000000000F0F7FD4CF22A5541F6C3604AF624
:101190007632C4F24215C0F60000CAF244222B4651
:1011A00000F06EF91F2019211222029041F67E6094
:1011B000CDE90021C0F6000040F2E7710A221B23AE
:1011C00040F2E7784FF00A0900F05AF942F21310A2
:1011D000C0F6000000F0CEFD8BA000F0CBFD99A082
:1011E00000F0C8FD0420FFF743FB4AF2A45140F28F
:1011F00050078842C2F2000709D17B20FFF736FC76
:1012000000283FD041F63D70C0F6000042E042F2B7
:10121000B400C0F6000000F0ADFD42F2D000C0F610
:10122000000000F0A7FD42F2F100C0F6000000F05F
:10123000A1FD40F25800C2F200000670FFF78CFCDE
:1012400042F61770C1F6003038604CF2411040F29F
:101250006001CAF63B40C2F20001C1E9000500206E
:10126000A7F8068087F80590FFF72AFD42F269107B
:10127000C0F6000000F07EFD04204AF2A351FFF703
:1012800007FB1DE07A20FFF7F1FB28B141F6127051
:10129000C0F6000000F06EFD42F28200C0F60000D1
:1012A00000F068FD41F6EC60C0F6000000F062FD61
:1012B00040F25800C2F2000001210170FFF74CFC1F
:1012C000FFF77AFB002600BFFFF70CFC801B0B2802
:1012D000FAD3FFF707FC40F26001C2F20001D1E946
:1012E00000BA0646FFF707F948F280430022C4F22D
:1012F0002E13FFF788F880460F465846514642465F
:101300003B46FEF767FF05460090CDE9070141F631
:101310003D600C46C0F60000314642463B46CDE9F2
:1013200002BA019400F0ACF810A800900FA8019048
:101330000EA802902846214609AA11AB0DAF0397CB
:10134000FFF7FEFD109D42F29340C9F2492085FB54
:1013500000014819811001EBD070A0EBC0002844B7
:10136000069002A8DDF824A0119CDDF83C90DDE990
:101370000D8B80E8200A41F6CA50DDE90723C0F64C
:101380000000CDE900A4CDF8148000F079F840F217
:1013900050070698C2F200077C713871E2B25FFA1A
:1013A00089F05FFA8BF4CDE9000441F60E60FD7020
:1013B000E9B21FFA8AF35FFA88F5C0F60000A7F8D1
:1013C00006A087F8009087F801B087F802800295A0
:1013D00000F056F8387940F20401C2F200017B793E
:1013E00051F8201040F22000C2F2000000EB830010
:1013F000FA7850F8043CFF8841F6AC50C0F6000083
:10140000009700F03DF85FE7202050524F475241CF
:101410004D412044454D4F204445205554494C49A9
:101420005A4143494F4E2044454C2043414C454E80
:10143000444152494F2044454C2052544320200DF2
:1014400000000000203D3D3D3D3D3D3D3D3D3D3DDD
:101450003D3D3D3D3D3D3D3D3D3D3D3D3D3D3D3DBC
:101460003D3D3D3D3D3D3D3D3D3D3D3D3D3D3D3DAC
:101470003D3D3D3D3D3D3D3D3D3D3D3D0D00000083
:101480000FB4054B10B503A9044A029800F0DAF82E
:1014900010BC5DF814FB00001D0F000800000020C8
:1014A00002E008C8121F08C1002AFAD1704770472D
:1014B000002001E001C1121F002AFBD1704700008B
:1014C0002DE9FF5F82B00021DDE90430020DDDF877
:1014D00040B0034318D044F61050A2F2FF3242430A
:1014E0001514119801281FD0A5EB0B00401C5FEAD2
:1014F000000A4FF000064E4FDFF83891B0465046D4
:1015000015D5CAF1000413E0119801244AA301285B
:1015100001D16FEA0B010298119AC0E90031C0E9CC
:10152000024206B0BDE8F09FCBF10000DFE70446C1
:101530000021404A491842EB0450CDE9001012E066
:10154000E00707D032463B4640464946FEF7E9FEF3
:101550008046894632463B4610461946FEF7E1FE74
:1015600006460F466410002CEAD1DDE90401DDE9EE
:101570000023BAF1000F06DAFEF7D3FE42464B46CF
:10158000FEF7CFFE05E0FEF73EFF42464B46FEF774
:101590003AFF04460E460022284BFFF735F903D8E0
:1015A0004FF0FF30014607E00022254B2046314630
:1015B000FEF710FEFFF710F9102409E0002C0ADBFB
:1015C0000A220023FFF712F8039B30321A55641EDB
:1015D00050EA0102F2D1641C039AC4F111031444CD
:1015E000119A012A03D0012208430DD10AE00843D1
:1015F00004D000204FF0110B119072E7A3EB0B0504
:101600006D1E0DE05B4504DD4FF0000205F10105A4
:1016100004E003DA4FF00002A5F10105002AECD046
:1016200002981199C0E90231C0E9004579E700004C
:10163000000014400000F03F300000000000F043C4
:101640000000E03F2DE9FF4F95B09B4689460646D6
:1016500000250FE2252877D100242746F84A0121EA
:10166000059400E0044316F8013F203B01FA03F023
:101670001042F7D130782A2811D06FF02F0330783C
:10168000A0F13002092A16D8059A44F0020402EBB0
:10169000820203EB42021044761C0590EFE759F8F2
:1016A000042B0592002A03DA504244F400540590BA
:1016B00044F00204761C30782E2816D116F8010F5B
:1016C00044F004042A280DD06FF02F023078A0F1E6
:1016D0003003092B09D807EB870302EB4303C71834
:1016E000761CF3E759F8047B761C30786C280FD011
:1016F00006DC4C2817D068280DD06A2814D104E0E5
:10170000742810D07A280FD10DE044F400140AE0B8
:1017100044F4801401E044F440147278824202D10F
:1017200004F58014761C761C307866280BD013DC08
:10173000582877D009DC002875D04528F6D04628EF
:10174000F4D047281AD19DE118E0632835D06428E9
:1017500079D0652812D195E1702873D008DC67280C
:10176000F1D069286FD06E280DD06F2806D1B5E072
:1017700073282CD0752875D0782874D05A461799BC
:1017800090476D1C75E1C4F30250022809D003286C
:101790000DD0D9F8001004280DD00D6009F104090E
:1017A00067E1D9F80010EA17C1E90052F6E7D9F865
:1017B00000100D80F2E70D70F0E719F8041B8DF8AA
:1017C000001000208DF80100EA46012003E059F8DE
:1017D00004AB4FF0FF3061074FF0000102D40DE081
:1017E00008F101018846B9420FDA8045F8DB1AF8A2
:1017F00008100029F4D108E008F10101884681426F
:10180000FADB1AF808100029F6D105985B46A0EB20
:10181000080721463846179A00F094FA284400EB4E
:10182000080507E04DE029E10DE01AF8010B5A46E2
:1018300017999047B8F10108F7D25B462146384620
:10184000179A13E142E00A220092C4F302524FF0C9
:10185000000A022A08D059F804CB032A4FEAEC7197
:101860000AD00DE029E02AE009F1070121F0070282
:10187000F2E802C1914609E00FFA8CFC4FEAEC71E4
:10188000042A03D14FFA8CFC4FEAEC71002907DAE5
:101890000A460021DCF1000C61EB02012D2202E07E
:1018A000220504D52B228DF80420012203E0E20753
:1018B00001D02022F7E7904659E00A2102E01022E9
:1018C0000DE010214FF0000A00910BE010224FF0C4
:1018D000000A44F004040827009203E008224FF0B5
:1018E000000A0092C4F30252022A05D059F804CB30
:1018F0000021032A08D009E009F1070121F00702BD
:10190000F2E802C1914605E01FFA8CFC042A01D1DD
:101910000CF0FF0C4FF00008220728D5702806D0E5
:10192000009B83F0100353EA0A0305D00EE0402227
:101930008DF80420012208E05CEA010206D0302282
:101940008DF804208DF8050002229046009B83F05C
:10195000080353EA0A030AD15CEA010201D16207D3
:1019600005D530228DF804204FF001087F1E58283D
:1019700004D034A003900EA802900DE036A0F9E741
:1019800053466046009AFEF731FE84460398825C17
:101990000298401E029002705CEA0100F0D10298A9
:1019A00006A9081A00F1200A600702D524F4803441
:1019B00000E00127574502DDA7EB0A0000E0002008
:1019C00000EB0A01009005984144401A0590E0039D
:1019D00006D45B462146179A059800F0B3F90544F2
:1019E000002706E001A85A46C05D179990476D1C74
:1019F0007F1C4745F6DBE0030CD55B462146179A72
:101A0000059800F09FF9054404E030205A461799E4
:101A100090476D1C0099481E00900029F5DC08E0F5
:101A2000029802995A460078491C029117999047EA
:101A30006D1CBAF10001AAF1010AF1DC65E10000B8
:101A40000928010030313233343536373839616294
:101A50006364656600000000303132333435363758
:101A600038394142434445460000000000F058F92F
:101A70000544761C307800287FF4ECAD19B0284678
:101A8000BDE8F08F620700D4062709F1070222F0B3
:101A9000070CFCE80223E14603F000485FEA080C6B
:101AA00002D00FF2702C0DE05FEA045C02D50FF259
:101AB000682C07E05FEAC47C02D00FF2602C01E0E2
:101AC000AFF2700C4FF0FF3823F00043CDF850C058
:101AD00065280CD006DC452809D046281DD04728AB
:101AE0003DD13DE0662818D067287ED138E000213E
:101AF000112F01DB112000E0781CCDE9000106A9BF
:101B00000EA8FFF7DDFCDDE90F010E9A039100211D
:101B1000009207F1010A04914DE04FF00040009758
:101B2000CDE9011006A90EA8FFF7CAFCDDE90F02F6
:101B300003920E9B11990022DDF80CA000930492F1
:101B400011B9791C00EB010AB7EB0A0004D4C0F10B
:101B5000FF3007F1010A0490AAEB0700019044E06E
:101B6000012F00DA01270021112F01DD112000E0F3
:101B70003846CDE9000106A90EA8FFF7A1FCDDE972
:101B80000F010E9A0391002104910092BA46210799
:101B90000CD40399514500DA8A46BAF1010F05DDEC
:101BA000009AAAF10101515C302908D0B84202DA4A
:101BB00010F1040F06DA0121CDE9011015E0AAF1B8
:101BC0000101E9E7002805DC049901440491AAEB2E
:101BD000000102E0411C514500DD8A460499401A8B
:101BE000401C01904FF000400290200704D401985F
:101BF000504501DBCDF8048000208DF84F0002989D
:101C00000DF14F07B0F1004F25D02B200E90029818
:101C10004FF0020800280CDA404202902D200E906E
:101C200007E00A210298FEF7CBFC3031029007F85A
:101C3000011DB8F10001A8F10108F2DC02980028AA
:101C4000EFD1791E0E980870307800F0200040F037
:101C5000450007F8020D12A8C01B00F107081498F0
:101C6000007800B1012000EB0A01019801EBE0715E
:101C700005984144401A401E0590E00306D45B4697
:101C80002146179A059800F05DF8054414980078ED
:101C900018B15A46179990476D1CE00324D55B464E
:101CA0002146179A059800F04DF805441CE0049869
:101CB000002807DBDDE90301884203DD0098405C72
:101CC000179901E0179930205A469047049805F17A
:101CD0000105401C04900198401E019004D12E2063
:101CE0005A46179990476D1CBAF10001AAF1010AF2
:101CF000DDDC05E017F8010B5A46179990476D1C7B
:101D0000B8F10001A8F10108F4DC5B462146179AFE
:101D10000598ABE62D0000002B000000200000001D
:101D20002DE9F041044600251E461746880404D4D8
:101D300005E039462020B0476D1C641EF9D52846C1
:101D4000BDE8F0812DE9F041044600251E4690468D
:101D5000C80301D5302700E02027880404D505E01A
:101D600041463846B0476D1C641EF9D52846BDE88B
:101D7000F081000010B5044601E0FFF7CFF814F839
:101D8000010B04490028F8D1BDE810400A20FFF7F4
:101D9000C5B8000000000020020406080000000092
:101DA0000102030401020304060708092020446914
:101DB000612025732C202564206465202573206410
:101DC000652025303464200D0A000D0A6A756C699F
:101DD000616E6F3D25662061C3B16F3D2564206D46
:101DE00065733D2564206469613D256420686F72D8
:101DF000613D2564206D696E75746F733D256420A7
:101E0000736567756E646F733D25640D0A0020204D
:101E100046656368613A20253032642F253032648C
:101E20002F2530346420486F72613A2025303264A7
:101E30003A253032643A253032640D0A000D0A0D1D
:101E40000A2020436F6E7461646F7220736567753A
:101E50006E646F7320525443203A2025642020631F
:101E6000616C63756C6F3D2025662020746D703D3C
:101E700025662020626173653D25660D0A004C6170
:101E800020666563686120677265676F7269616E5D
:101E90006120636F72726573706F6E6469656E74D2
:101EA000652065733A2025642D253032642D253058
:101EB000326420253032643A253032643A2530329B
:101EC000640A004C61206665636861206A756C690C
:101ED000616E6120636F72726573706F6E646965A5
:101EE0006E74652065733A2025660A0020202E2E28
:101EF0002E20496E696369616E646F20656C2052A3
:101F000054432C20657370657265202E2E2E0D0AA9
:101F10000D000D0A2020556E2052657365742065F2
:101F2000787465726E6F20736520612064657465D6
:101F3000637461646F2E2E2E2E0D0A0D000D0A2083
:101F400020556E205265696E6963696F2061206F4C
:101F50006375727269646F2E2E2E2E0D0A0D00208D
:101F60002020202D20436F6E666967757261646F53
:101F7000205072657363616C6572204C5345202854
:101F800033322C373638206B487A29200D00202038
:101F900020202D20486162696C6974616E646F2035
:101FA000496E74657272757063696F6E2064652026
:101FB000416C61726D6120525443200D002020203D
:101FC000202D20486162696C6974616E646F2049DC
:101FD0006E74657272757063696F6E2067656E6589
:101FE00072616C20525443200D00202020202D20AF
:101FF000446573686162696C6974616E646F204CDA
:102000005349200D00202020202D20486162696C5A
:102010006974616E646F204C534520706172612059
:10202000525443434C4B200D002D2D2D2D2D2D2D85
:102030002D2D2D2D2D2D2D2D2D2D2D2D2D2D2D2DD0
:102040002D2D2D2D2D2D2D2D2D2D2D2D2D2D2D2DC0
:102050002D2D2D2D2D56616C6964616E646F2D2DB3
:102060002D2D2D2D2D2D2D2D2D2D2D2D2D2D2D2DA0
:102070002D2D2D2D2D2D2D2D2D2D2D2D2D2D2D2D90
:102080000D0020204E4F206573206E6563657361DF
:1020900072696F20636F6E66696775726172206422
:1020A00065206E7565766F20656C205254432E2E28
:1020B0002E2E0D000D0A2020525443204E4F204357
:1020C0004F4E464947555241444F2E2E2E2E0D005D
:1020D0000D0A20205265696E696369616E646F2024
:1020E0005254432C206573706572652E2E2E2E0D72
:1020F000000D0A2020436F6E6669677572616E6419
:102100006F205254432C206573706572652E2E2EFD
:102110002E0D000D0A203D3D3D3D3D3D3D3D3D3DEB
:102120003D3D3D3D3D3D3D3D3D3D3D3D3D3D3D3DDF
:102130003D3D3D3D3D3D3D3D3D3D3D3D3D3D3D3DCF
:102140003D3D3D3D3D3D3D3D3D3D3D3D3D0D002049
:102150002020202D20486162696C6974616E646F73
:1021600020525443434C4B0D000D0A20202D2D2DA1
:102170002052544320434F4E464947555241444F05
:10218000202D2D2D20212121205C6E0D004469631E
:1021900069656D627265004E6F7669656D62726524
:1021A000004F637475627265005365707469656D84
:1021B00070726500416272696C0053616261646FA4
:1021C00000446F6D696E676F004A756C696F004AF5
:1021D000756E696F00456E65726F00466562726567
:1021E000726F0041676F73746F004D61796F004DBE
:1021F00061727A6F004D696572636F6C657300562A
:102200006965726E6573004C756E6573004D617221
:10221000746573004A756576657300004022000896
:102220000000002050000000A014000890220008C8
:102230005000002018040000B01400080000000046
:1022400000000000072200080D220008F521000808
:1022500014220008FF210008BA210008C12100084B
:10226000D5210008DB210008EF210008B421000877
:10227000EA210008CF210008C9210008E321000855
:10228000A9210008A1210008972100088D2100083C
:04000005080000ED02
:00000001FF
