:020000040800F2
:100000001804002001010008090100080B01000884
:100010000D0100080F010008110100080000000098
:1000200000000000000000000000000013010008B4
:100030001501000800000000170100081901000860
:100040001B0100081B0100081B010008A105000896
:100050001B0100081B0100081B0100081B01000810
:100060001B0100081B0100081B0100081B01000800
:100070001B0100081B0100081B0100081B010008F0
:100080001B0100081B0100081B0100081B010008E0
:100090001B0100081B0100081B010008C901000822
:1000A0001B0100081B0100081B0100081B010008C0
:1000B0001B0100081B0100081B0100081B010008B0
:1000C0001B0100081B0100081B0100081B010008A0
:1000D0001B0100081B0100081B0100081B01000890
:1000E0001B0100081B0100081B010008DFF80CD0F1
:1000F00000F02EF800480047E10A0008180400202C
:100100000648804706480047FEE7FEE7FEE7FEE7B1
:10011000FEE7FEE7FEE7FEE7FEE7FEE7CD080008A4
:10012000ED00000830B50B460146002020220124D6
:1001300009E021FA02F59D4205D303FA02F5491BB5
:1001400004FA02F52844151EA2F10102F1DC30BDCB
:10015000064C074D06E0E06840F0010394E8070014
:1001600098471034AC42F6D3FFF7C4FFFC110008E7
:100170001C12000880B5012000F056F90020BDE8EF
:10018000804000F051B9000081B00021009146F696
:100190000041C4F2000100910099084400900098C9
:1001A000008801B07047000081B00022009246F63E
:1001B0000042C4F200020092009A1044009000989D
:1001C000016001B07047000080B5202000F030F8D9
:1001D000002808BF80BD202000F024F8002000F097
:1001E0002FFB00F05FFB0220002100F06FFA05A05A
:1001F00000F0C4FE40F20800C2F2000001210170CC
:1002000080BD00BF2020414C41524D412044455308
:100210004142494C4954414441202121212121217D
:10022000200D000040F21441C4F201010860704743
:1002300040F20041C4F201010A68496902400840E5
:1002400018BF0120002A18BF01221040704700008B
:100250008179002940F20041C4F201011FD00268F7
:100260000B6893430B604B6893434B60037943EAFD
:10027000010CDCF800301A43CCF8002002688B68CF
:1002800093438B60CB689343CB60407910280ED1A9
:10029000886810438860C8681043C8607047027956
:1002A000006811430A6822EA0000086070470843AA
:1002B00001681143016070472DE9F047CA7802F0E8
:1002C0000F0CD30644BF8B784CEA030C09880B064D
:1002D00025D082465AF8144B00F1100E00254FF03D
:1002E00001094FF00F08002706E000BF1E6001372C
:1002F000082F05F1040511D009FA07F60E42F6D0D1
:1003000008FA05F324EA03030CFA05F41C43282A2F
:100310005346EBD0482AEAD17346E7E70460B1F5CB
:10032000807F38BFBDE8F087436800F1100E00F110
:10033000140900254FF4807A4FF00F08002705E0DC
:1003400034600137082F05F1040512D00AFA07F4CA
:1003500004EA0106A642F4D108FA05F6B3430CFA02
:1003600005F63343282A4E46EAD0482AE9D1764694
:10037000E6E74360BDE8F08710B5C17800294EF28A
:100380000011CEF200011AD04EF60C52CEF200024D
:100390001268072323EA12220F23C2F1040C23FA66
:1003A00002F24378847890F800E003FA0CF32240DC
:1003B0001A43120101EB0E0383F8002300E08031A1
:1003C0000078012300F01F0203FA02F2C0F342108A
:1003D00041F8202010BD000040F080604EF60C5126
:1003E00040F0FD70CEF20001086070472021C4F299
:1003F0000E21086070470000002941F21C01C4F280
:1004000002010A680CBF22EA00001043086070472E
:10041000002941F21801C4F202010A680CBF22EA65
:10042000000010430860704740F24041C4F242218E
:100430000860704741F22400C4F20200016841F0F4
:10044000807101607047000010B541F20404C4F2ED
:100450000204226802F00C02082A41F20022C0F2D3
:100460007A021CD12368D4F800C0C3F3834E5FEA3C
:10047000CC330EF1020C06D440F60012C0F23D025D
:100480000CFB02F20BE023689B0302D40CFB02F28C
:1004900005E040F60012C0F23D020CFB02F20260E1
:1004A000226840F6A473C2F30312C0F600039A5CFC
:1004B0000168D14041602268C2F302229A5C21FAAD
:1004C00002F282602268C2F3C2229A5C40F6A073F4
:1004D000D140C1602268C0F60003C2F381329A5C49
:1004E000B1FBF2F1016110BD420941F20001012AA4
:1004F000C4F2020103D0022A14BF2431203109685A
:1005000000F01F0021FA00F000F001007047000029
:1005100041F22001C4F20201002201280A700A708F
:1005200003D0042818BF70470520087070470000EA
:1005300040F23C41C4F242210860704741F2200180
:10054000C4F202010A6810430860704742F60401D1
:10055000C4F200010A8822EA000008807047000007
:1005600042F61802C4F2000211889088138899425A
:100570001CBF9088194640EA0140704742F60001CE
:10058000C4F200018A880988014000EA0200C0B272
:1005900018BF0121002818BF012008407047000043
:1005A00080B50120FFF7EAFF88B10120FFF7CEFFF9
:1005B00000F078F9FFF7D4FF45F28011C0F2010195
:1005C000884204D1002000F04BF900F06BF90220C2
:1005D000FFF7D4FF014631A000F006FC0220FFF730
:1005E000CDFF002808BF80BD0220FFF7AFFFFFF757
:1005F000B7FF4BF2C531C9F2A211A0FB0112D10A1B
:100600004FF4616301FB130048F68901C8F68801C5
:10061000A0FB011348F2B511C1F64E31A0FB011C3D
:100620004CF6CD415B09CCF6CC41A3FB011EC2F3D5
:10063000C7214FEADE024FEA9C1C02EB8202A3EBC9
:10064000420200EB83000CEB8C0302EB430200F050
:100650003F0341F2E010C0F6000000F0C5FB40F29D
:100660000800C2F20000017841F2230041F2DE12DC
:10067000C0F60000C0F60002002918BF104600F0C6
:100680007DFC0BA000F07AFCFFF76AFFB43000F0AD
:10069000D7F8BDE8804000F005B900BF0D0A5254FC
:1006A000435F49545F414C52202564200000000004
:1006B0002020414C41524D41204143544956414430
:1006C0004120212121212121210D0000002942F674
:1006D0000001C4F200010A880CBF22EA00001043A6
:1006E0000880704780B54FF0C0500121FFF784FEAD
:1006F0000120FFF77BFE40F21000C2F200000078FC
:1007000068B92DA000F03AFCFFF734FD0120FFF797
:100710008BFE0020FFF788FE2DA000F02FFC0120AB
:10072000FFF7F6FE35A000F029FC00BF4120FFF7DF
:10073000DBFE0028FAD04FF48070FFF7FFFE41F295
:10074000B500C0F6000000F019FC0120FFF7F0FE34
:1007500041F2C610C0F6000000F010FC00F0A2F854
:100760002EA000F00BFC00F0A5F800F09BF8012093
:100770000121FFF7ABFF41F28800C0F6000000F056
:10078000FDFB02200121FFF7A1FF41F25900C0F655
:10079000000000F0F3FB00F085F847F6FF7000F072
:1007A0006FF841F22A00C0F6000000F0E7FBBDE858
:1007B000804000F077B800BF20205265696E696301
:1007C000696F2064656C20525443200D00000000C6
:1007D000202020202D20526573657465616E646F42
:1007E000206261636B757020646520726567697350
:1007F00074726F73205254430D000000202020209B
:100800002D20486162696C6974616E646F20667541
:10081000656E7465204C5345200D0000202020207B
:100820002D204573706572616E646F2073696E630D
:10083000726F6E697A6163696F6E200D000000004F
:1008400042F60401C4F200010A8842F010020A8054
:10085000020C8A830884088820F010000880704702
:1008600042F60401C4F200010A8842F010020A8034
:10087000020C8A820883088820F0100008807047E4
:1008800042F60401C4F200010A8842F010020A8014
:10089000C0F303428A800881088820F01000088095
:1008A0007047000042F60400C4F200000188890687
:1008B000FCD5704742F60400C4F20000018821F024
:1008C0000801018001880907FCD5704782B041F218
:1008D0000400C4F2020050F8041C002241F001019F
:1008E00040F8041C0168CFF6FF021140016050F887
:1008F000041C4FF6FF72CFF6F662114040F8041C5C
:1009000050F8041C21F4802140F8041C016821F4F3
:10091000FE0101604FF41F0141600021019100912F
:1009200050F8041C41F4803140F8041C50F8041CB9
:1009300001F400310091019901310191009919B937
:100940000199B1F5A06FF1D150F8041C890354BF8F
:100950000021012100910099012936D142F20001C4
:10096000C4F202010A6842F010020A600A6822F02A
:1009700007020A600A6842F002020A600168016028
:1009800001680160016841F480610160016821F43F
:100990007C110160016841F4E811016050F8041C09
:1009A00041F0807140F8041C50F8041C8901FBD50B
:1009B000016821F003010160016841F0020101605A
:1009C000016801F00C010829FAD14EF60850CEF268
:1009D00000004FF00061016002B070478289002979
:1009E00018BF012122F4005242EA4131818170474F
:1009F0000088084018BF01207047000070B586B01D
:100A00000446008A0D46C98820F4405008432082DD
:100A1000A0894EF6F3110840A9882A896B890843FA
:100A200010431843A081A08AA98920F4407008438C
:100A300001AEA0823046FFF707FD43F6000106F144
:100A40000800C4F201018C4208BF06F10C000068E6
:100A50001922B4F90C1050432A680123B1F1FF3F69
:100A6000C8BF022302FA03F1B0FBF1F048F21F51B4
:100A7000C5F2EB11A0FB01235A096FF0630302FBDF
:100A80000300B4F90C300326B3F1FF3FC8BF0426BE
:100A900000FA06F000F13200A0FB01014FF0070060
:100AA000C8BF0F2000EA511040EA0210208106B0B2
:100AB00070BD00006FF35F2181807047B0B543F6D1
:100AC0000005C4F201050446C1B22846FFF7F2FF53
:100AD00028464021FFF78CFF0128F9D12046B0BD00
:100AE00086B044F2040001214AF2A5560127FFF71F
:100AF0008FFC40F2002040F60004C1F60300C4F26F
:100B0000010405AD059020462946FFF7D5FB4FF4BB
:100B10008060ADF8140004208DF8170020462946A7
:100B2000FFF7CAFB4FF4E130019000204FF4402161
:100B300004F5405502900391ADF8100001A9284634
:100B4000FFF75CFF28460121FFF748FF4FF4C06024
:100B5000FFF742FC0320C0F2001001AD01902846CF
:100B6000FFF70AFC40F62970C0F2001001902846F9
:100B7000FFF702FC4FF4C060FFF72EFC40F21710A5
:100B8000C0F2001001902846FFF7F6FB0420012177
:100B9000FFF73EFC2020C4F60200059005A9204680
:100BA000FFF78AFB202001904FF44060ADF8080069
:100BB00001A88DF80A70FFF74BFB41F28E10C0F6CA
:100BC000000000F0DBF966A000F0D8F972A000F098
:100BD000D5F90420FFF7D8FAB04208D17B20FFF7FF
:100BE00083FCD8B340F6DF70C0F600003EE041F26F
:100BF0002F10C0F6000000F0C1F941F24B10C0F612
:100C0000000000F0BBF9FFF76DFD41F26C10C0F67B
:100C1000000000F0B3F901200021FFF757FD01208B
:100C2000FFF7E4FB4DF2F020FFF71AFEFFF73AFE64
:100C300001200121FFF74AFD4DF26830FFF700FE69
:100C4000FFF730FE41F20100C0F6000000F096F917
:100C500004204AF2A551FFF7A7FA1FE07A20FFF718
:100C600043FC28B140F6B470C0F6000000F086F9ED
:100C700041F2FD00C0F6000000F080F941F2D90019
:100C8000C0F6000000F07AF940F21000C2F2000055
:100C900001210170FFF726FDFFF7CCFB701C81B22C
:100CA0000420FFF781FA40F20C064CF6CD4B41F2DE
:100CB000E01540F2080841F2DE1941F2230AC2F2BF
:100CC0000006CCF6CC4BC0F60005C2F20008C0F618
:100CD0000009C0F6000A00BFFFF742FC3168401A65
:100CE0000B28F9D33AA000F07FF8FFF739FC4BF25C
:100CF000C531C9F2A211A0FB0112D10A4FF4616300
:100D000001FB130048F68901C8F68801A0FB011316
:100D100048F2B5115B09C1F64E31A0FB0114A3FBEB
:100D20000B17FF08C2F3C721A20907EB8707A3EB44
:100D3000470700EB830002EB820207EB420200F060
:100D40003F03284600F050F898F80000002850466D
:100D500018BF484600F012F9FFF702FC3060BBE70D
:100D6000202050524F4752414D412044454D4F2085
:100D70004445205554494C495A4143494F4E20441B
:100D800045204C4120414C41524D412044454C208E
:100D900052544320200D00003D3D3D3D3D3D3D3D35
:100DA0003D3D3D3D3D3D3D3D3D3D3D3D3D3D3D3D73
:100DB0003D3D3D3D3D3D3D3D3D3D3D3D3D3D3D3D63
:100DC0003D3D3D3D3D3D3D3D3D3D3D3D0D0000003A
:100DD0000D0A2020546F74616C20736567756E6412
:100DE0006F733A20256400000FB4054B10B503A9BA
:100DF000044A029800F018F810BC5DF814FB0000DB
:100E0000BD0A00080000002002E008C8121F08C147
:100E1000002AFAD170477047002001E001C1121F7B
:100E2000002AFBD1704700002DE9FF4F89B09B4697
:100E30000446002506E025280BD05A460B9990471A
:100E4000641C6D1C20780028F5D10DB02846BDE843
:100E5000F08F0027B8460122474900E0074314F805
:100E6000013F203B02FA03F00842F7D120782E28F8
:100E700019D114F8010F47F004072A280ED06FF09B
:100E80002F022078A0F1300109290CD808EB880145
:100E900002EB410100EB0108641CF2E70A98641CB4
:100EA00050F8048B0A9020780028CED0642808D00F
:100EB000692806D075281ED05A460B9990476D1C9C
:100EC00058E00A994FF00A0901C90A91002802DA8C
:100ED00040422D2102E0390504D52B218DF8201048
:100EE000012103E0F90704D02021F7E78A4608AE84
:100EF0000DE00021FAE70A994FF00A0901C90A91A9
:100F0000F7E74946FFF70EF9303106F8011D0028D2
:100F1000F7D1ADEB060000F12009780701D44FF0BE
:100F20000108C84502DDA8EB090000E0002080466A
:100F3000002706E008A85A46C05D0B9990476D1C33
:100F40007F1C5745F6DB04E030205A460B9990474A
:100F50006D1CB8F10001A8F10108F5DC05E016F8F8
:100F6000010B5A460B9990476D1CB9F10001A9F18C
:100F70000109F4DC641C65E70928010010B504468A
:100F800001E0FFF79BFD14F8010B04490028F8D19C
:100F9000BDE810400A20FFF791BD000000000020CE
:100FA0000204060800000000010203040102030419
:100FB000060708090D0A2020556E205265736574D6
:100FC0002065787465726E6F20736520612064659A
:100FD0007465637461646F2E2E2E2E0D0A0D000D44
:100FE0000A2020556E205265696E6963696F206121
:100FF000206F6375727269646F2E2E2E2E0D0A0D8E
:10100000000D0A20202D2D2D2052544320434F4EF9
:10101000464947555241444F202D2D2D2021212155
:10102000200D0020284129200D00202020202D20E7
:10103000436F6E666967757261646F205072657385
:1010400063616C6572204C5345202833322C37364F
:1010500038206B487A29200D00202020202D2048A0
:101060006162696C6974616E646F20496E74657247
:1010700072757063696F6E20646520416C61726D7A
:101080006120525443200D00202020202D20486153
:1010900062696C6974616E646F20496E7465727206
:1010A000757063696F6E2067656E6572616C205242
:1010B0005443200D00202020202D20486162696CBF
:1010C0006974616E646F204C5345207061726120B9
:1010D000525443434C4B200D0020202E2E2E2049ED
:1010E0006E696369616E646F20656C205254432C95
:1010F00020657370657265202E2E2E0D0020204E07
:101100004F206573206E656365736172696F20633C
:101110006F6E66696775726172206465206E7565B1
:10112000766F20656C205254432E2E2E2E0D000D0E
:101130000A2020525443204E4F20434F4E464947E9
:10114000555241444F2E2E2E2E0D000D0A202052B6
:1011500065696E696369616E646F205254432C2027
:101160006573706572652E2E2E2E0D000D0A2020DF
:10117000436F6E6669677572616E646F2052544387
:101180002C206573706572652E2E2E2E0D000D0AB3
:101190003D3D3D3D3D3D3D3D3D3D3D3D3D3D3D3D7F
:1011A0003D3D3D3D3D3D3D3D3D3D3D3D3D3D3D3D6F
:1011B0003D3D3D3D3D3D3D3D3D3D3D3D3D3D3D3D5F
:1011C0003D3D3D3D0D00202020202D2048616269DD
:1011D0006C6974616E646F20525443434C4B0D0034
:1011E0000D0A2020484F5241205254433A202025D6
:1011F000643A25643A2564200000000020120008AB
:101200000000002008000000080E00082812000856
:101210000800002010040000180E00080000000064
:081220000000000000000000C6
:04000005080000ED02
:00000001FF
